{
  "_format": "hh-sol-artifact-1",
  "contractName": "MyUniswapV2Factory",
  "sourceName": "contracts/core/MyUniswapV2Factory.sol",
  "abi": [
    {
      "anonymous": false,
      "inputs": [
        {
          "indexed": true,
          "internalType": "address",
          "name": "token0",
          "type": "address"
        },
        {
          "indexed": true,
          "internalType": "address",
          "name": "token1",
          "type": "address"
        },
        {
          "indexed": false,
          "internalType": "address",
          "name": "pair",
          "type": "address"
        },
        {
          "indexed": false,
          "internalType": "uint256",
          "name": "",
          "type": "uint256"
        }
      ],
      "name": "PairCreated",
      "type": "event"
    },
    {
      "inputs": [
        {
          "internalType": "uint256",
          "name": "",
          "type": "uint256"
        }
      ],
      "name": "allPairs",
      "outputs": [
        {
          "internalType": "address",
          "name": "",
          "type": "address"
        }
      ],
      "stateMutability": "view",
      "type": "function"
    },
    {
      "inputs": [],
      "name": "allPairsLength",
      "outputs": [
        {
          "internalType": "uint256",
          "name": "",
          "type": "uint256"
        }
      ],
      "stateMutability": "view",
      "type": "function"
    },
    {
      "inputs": [
        {
          "internalType": "address",
          "name": "tokenA",
          "type": "address"
        },
        {
          "internalType": "address",
          "name": "tokenB",
          "type": "address"
        }
      ],
      "name": "createPair",
      "outputs": [
        {
          "internalType": "address",
          "name": "pair",
          "type": "address"
        }
      ],
      "stateMutability": "nonpayable",
      "type": "function"
    },
    {
      "inputs": [
        {
          "internalType": "address",
          "name": "",
          "type": "address"
        },
        {
          "internalType": "address",
          "name": "",
          "type": "address"
        }
      ],
      "name": "getPair",
      "outputs": [
        {
          "internalType": "address",
          "name": "",
          "type": "address"
        }
      ],
      "stateMutability": "view",
      "type": "function"
    }
  ],
  "bytecode": "0x6080604052348015600f57600080fd5b506155c38061001f6000396000f3fe608060405234801561001057600080fd5b506004361061004c5760003560e01c80631e3dd18b14610051578063574f2ba314610081578063c9c653961461009f578063e6a43905146100cf575b600080fd5b61006b6004803603810190610066919061071d565b6100ff565b604051610078919061078b565b60405180910390f35b61008961013e565b60405161009691906107b5565b60405180910390f35b6100b960048036038101906100b491906107fc565b61014b565b6040516100c6919061078b565b60405180910390f35b6100e960048036038101906100e491906107fc565b610693565b6040516100f6919061078b565b60405180910390f35b6001818154811061010f57600080fd5b906000526020600020016000915054906101000a900473ffffffffffffffffffffffffffffffffffffffff1681565b6000600180549050905090565b60008173ffffffffffffffffffffffffffffffffffffffff168373ffffffffffffffffffffffffffffffffffffffff16036101bb576040517f08c379a00000000000000000000000000000000000000000000000000000000081526004016101b290610899565b60405180910390fd5b6000808373ffffffffffffffffffffffffffffffffffffffff168573ffffffffffffffffffffffffffffffffffffffff16106101f85783856101fb565b84845b91509150600073ffffffffffffffffffffffffffffffffffffffff168273ffffffffffffffffffffffffffffffffffffffff160361026e576040517f08c379a000000000000000000000000000000000000000000000000000000000815260040161026590610905565b60405180910390fd5b600073ffffffffffffffffffffffffffffffffffffffff166000808473ffffffffffffffffffffffffffffffffffffffff1673ffffffffffffffffffffffffffffffffffffffff16815260200190815260200160002060008373ffffffffffffffffffffffffffffffffffffffff1673ffffffffffffffffffffffffffffffffffffffff16815260200190815260200160002060009054906101000a900473ffffffffffffffffffffffffffffffffffffffff1673ffffffffffffffffffffffffffffffffffffffff1614610378576040517f08c379a000000000000000000000000000000000000000000000000000000000815260040161036f90610971565b60405180910390fd5b60006040518060200161038a906106d5565b6020820181038252601f19601f820116604052509050600083836040516020016103b59291906109d9565b604051602081830303815290604052805190602001209050808251602084016000f594508473ffffffffffffffffffffffffffffffffffffffff1663485cc95585856040518363ffffffff1660e01b8152600401610414929190610a05565b600060405180830381600087803b15801561042e57600080fd5b505af1158015610442573d6000803e3d6000fd5b50505050846000808673ffffffffffffffffffffffffffffffffffffffff1673ffffffffffffffffffffffffffffffffffffffff16815260200190815260200160002060008573ffffffffffffffffffffffffffffffffffffffff1673ffffffffffffffffffffffffffffffffffffffff16815260200190815260200160002060006101000a81548173ffffffffffffffffffffffffffffffffffffffff021916908373ffffffffffffffffffffffffffffffffffffffff160217905550846000808573ffffffffffffffffffffffffffffffffffffffff1673ffffffffffffffffffffffffffffffffffffffff16815260200190815260200160002060008673ffffffffffffffffffffffffffffffffffffffff1673ffffffffffffffffffffffffffffffffffffffff16815260200190815260200160002060006101000a81548173ffffffffffffffffffffffffffffffffffffffff021916908373ffffffffffffffffffffffffffffffffffffffff1602179055506001859080600181540180825580915050600190039060005260206000200160009091909190916101000a81548173ffffffffffffffffffffffffffffffffffffffff021916908373ffffffffffffffffffffffffffffffffffffffff1602179055508273ffffffffffffffffffffffffffffffffffffffff168473ffffffffffffffffffffffffffffffffffffffff167f0d3648bd0f6ba80134a33ba9275ac585d9d315f0ad8355cddefde31afa28d0e987600180549050604051610681929190610a2e565b60405180910390a35050505092915050565b60006020528160005260406000206020528060005260406000206000915091509054906101000a900473ffffffffffffffffffffffffffffffffffffffff1681565b614b3680610a5883390190565b600080fd5b6000819050919050565b6106fa816106e7565b811461070557600080fd5b50565b600081359050610717816106f1565b92915050565b600060208284031215610733576107326106e2565b5b600061074184828501610708565b91505092915050565b600073ffffffffffffffffffffffffffffffffffffffff82169050919050565b60006107758261074a565b9050919050565b6107858161076a565b82525050565b60006020820190506107a0600083018461077c565b92915050565b6107af816106e7565b82525050565b60006020820190506107ca60008301846107a6565b92915050565b6107d98161076a565b81146107e457600080fd5b50565b6000813590506107f6816107d0565b92915050565b60008060408385031215610813576108126106e2565b5b6000610821858286016107e7565b9250506020610832858286016107e7565b9150509250929050565b600082825260208201905092915050565b7f4d79556e697377617056323a204944454e544943414c5f414444524553534553600082015250565b600061088360208361083c565b915061088e8261084d565b602082019050919050565b600060208201905081810360008301526108b281610876565b9050919050565b7f4d79556e697377617056323a205a45524f5f4144445245535300000000000000600082015250565b60006108ef60198361083c565b91506108fa826108b9565b602082019050919050565b6000602082019050818103600083015261091e816108e2565b9050919050565b7f4d79556e697377617056323a20504149525f4558495354530000000000000000600082015250565b600061095b60188361083c565b915061096682610925565b602082019050919050565b6000602082019050818103600083015261098a8161094e565b9050919050565b60008160601b9050919050565b60006109a982610991565b9050919050565b60006109bb8261099e565b9050919050565b6109d36109ce8261076a565b6109b0565b82525050565b60006109e582856109c2565b6014820191506109f582846109c2565b6014820191508190509392505050565b6000604082019050610a1a600083018561077c565b610a27602083018461077c565b9392505050565b6000604082019050610a43600083018561077c565b610a5060208301846107a6565b939250505056fe6080604052600160065534801561001557600080fd5b506040518060400160405280600a81526020017f556e6973776170205632000000000000000000000000000000000000000000008152506040518060400160405280600681526020017f554e492d5632000000000000000000000000000000000000000000000000000081525081600390816100919190610479565b5080600490816100a19190610479565b50505033600760006101000a81548173ffffffffffffffffffffffffffffffffffffffff021916908373ffffffffffffffffffffffffffffffffffffffff16021790555060016005819055507f8b73c3c69bb8fe3d512ecc4cf759cc79239f7b179b0ffacaa9a75d522b39400f61011c61019760201b60201c565b805190602001206040518060400160405280600181526020017f31000000000000000000000000000000000000000000000000000000000000008152508051906020012046306040516020016101769594939291906105b4565b60405160208183030381529060405280519060200120600e81905550610607565b6060600380546101a690610292565b80601f01602080910402602001604051908101604052809291908181526020018280546101d290610292565b801561021f5780601f106101f45761010080835404028352916020019161021f565b820191906000526020600020905b81548152906001019060200180831161020257829003601f168201915b5050505050905090565b600081519050919050565b7f4e487b7100000000000000000000000000000000000000000000000000000000600052604160045260246000fd5b7f4e487b7100000000000000000000000000000000000000000000000000000000600052602260045260246000fd5b600060028204905060018216806102aa57607f821691505b6020821081036102bd576102bc610263565b5b50919050565b60008190508160005260206000209050919050565b60006020601f8301049050919050565b600082821b905092915050565b6000600883026103257fffffffffffffffffffffffffffffffffffffffffffffffffffffffffffffffff826102e8565b61032f86836102e8565b95508019841693508086168417925050509392505050565b6000819050919050565b6000819050919050565b600061037661037161036c84610347565b610351565b610347565b9050919050565b6000819050919050565b6103908361035b565b6103a461039c8261037d565b8484546102f5565b825550505050565b600090565b6103b96103ac565b6103c4818484610387565b505050565b5b818110156103e8576103dd6000826103b1565b6001810190506103ca565b5050565b601f82111561042d576103fe816102c3565b610407846102d8565b81016020851015610416578190505b61042a610422856102d8565b8301826103c9565b50505b505050565b600082821c905092915050565b600061045060001984600802610432565b1980831691505092915050565b6000610469838361043f565b9150826002028217905092915050565b61048282610229565b67ffffffffffffffff81111561049b5761049a610234565b5b6104a58254610292565b6104b08282856103ec565b600060209050601f8311600181146104e357600084156104d1578287015190505b6104db858261045d565b865550610543565b601f1984166104f1866102c3565b60005b82811015610519578489015182556001820191506020850194506020810190506104f4565b868310156105365784890151610532601f89168261043f565b8355505b6001600288020188555050505b505050505050565b6000819050919050565b61055e8161054b565b82525050565b61056d81610347565b82525050565b600073ffffffffffffffffffffffffffffffffffffffff82169050919050565b600061059e82610573565b9050919050565b6105ae81610593565b82525050565b600060a0820190506105c96000830188610555565b6105d66020830187610555565b6105e36040830186610555565b6105f06060830185610564565b6105fd60808301846105a5565b9695505050505050565b614520806106166000396000f3fe608060405234801561001057600080fd5b50600436106101a95760003560e01c80635a3d5493116100f9578063a9059cbb11610097578063d21220a711610071578063d21220a7146104d9578063d505accf146104f7578063dd62ed3e14610513578063fff6cae914610543576101a9565b8063a9059cbb1461046f578063bc25cf771461049f578063c45a0155146104bb576101a9565b80637464fc3d116100d35780637464fc3d146103d25780637ecebe00146103f057806389afcb441461042057806395d89b4114610451576101a9565b80635a3d5493146103545780636a6278421461037257806370a08231146103a2576101a9565b806323b872dd116101665780633644e515116101405780633644e515146102e0578063485cc955146102fe578063490e6cbc1461031a5780635909c0d514610336576101a9565b806323b872dd1461027457806330adf81f146102a4578063313ce567146102c2576101a9565b8063022c0d9f146101ae57806306fdde03146101ca5780630902f1ac146101e8578063095ea7b3146102085780630dfe16811461023857806318160ddd14610256575b600080fd5b6101c860048036038101906101c39190613253565b61054d565b005b6101d2610be6565b6040516101df919061336b565b60405180910390f35b6101f0610c78565b6040516101ff939291906133d5565b60405180910390f35b610222600480360381019061021d919061340c565b610cd5565b60405161022f9190613467565b60405180910390f35b610240610cf8565b60405161024d9190613491565b60405180910390f35b61025e610d1e565b60405161026b91906134bb565b60405180910390f35b61028e600480360381019061028991906134d6565b610d28565b60405161029b9190613467565b60405180910390f35b6102ac610d57565b6040516102b99190613542565b60405180910390f35b6102ca610d7e565b6040516102d79190613579565b60405180910390f35b6102e8610d87565b6040516102f59190613542565b60405180910390f35b61031860048036038101906103139190613594565b610d8d565b005b610334600480360381019061032f91906135d4565b610ea3565b005b61033e611431565b60405161034b91906134bb565b60405180910390f35b61035c611437565b60405161036991906134bb565b60405180910390f35b61038c6004803603810190610387919061365c565b61143d565b60405161039991906134bb565b60405180910390f35b6103bc60048036038101906103b7919061365c565b611840565b6040516103c991906134bb565b60405180910390f35b6103da611888565b6040516103e791906134bb565b60405180910390f35b61040a6004803603810190610405919061365c565b61188e565b60405161041791906134bb565b60405180910390f35b61043a6004803603810190610435919061365c565b6118a6565b604051610448929190613689565b60405180910390f35b610459611e9a565b604051610466919061336b565b60405180910390f35b6104896004803603810190610484919061340c565b611f2c565b6040516104969190613467565b60405180910390f35b6104b960048036038101906104b4919061365c565b611f4f565b005b6104c3612255565b6040516104d09190613491565b60405180910390f35b6104e161227b565b6040516104ee9190613491565b60405180910390f35b610511600480360381019061050c919061370a565b6122a1565b005b61052d60048036038101906105289190613594565b6124c9565b60405161053a91906134bb565b60405180910390f35b61054b612550565b005b600260055403610592576040517f08c379a0000000000000000000000000000000000000000000000000000000008152600401610589906137f8565b60405180910390fd5b600260058190555060008511806105a95750600084115b6105e8576040517f08c379a00000000000000000000000000000000000000000000000000000000081526004016105df9061388a565b60405180910390fd5b6000806105f3610c78565b506dffffffffffffffffffffffffffff1691506dffffffffffffffffffffffffffff169150818710801561062657508086105b610665576040517f08c379a000000000000000000000000000000000000000000000000000000000815260040161065c9061391c565b60405180910390fd5b6000806000600860009054906101000a900473ffffffffffffffffffffffffffffffffffffffff1690506000600960009054906101000a900473ffffffffffffffffffffffffffffffffffffffff1690508173ffffffffffffffffffffffffffffffffffffffff168973ffffffffffffffffffffffffffffffffffffffff161415801561071e57508073ffffffffffffffffffffffffffffffffffffffff168973ffffffffffffffffffffffffffffffffffffffff1614155b61075d576040517f08c379a000000000000000000000000000000000000000000000000000000000815260040161075490613988565b60405180910390fd5b60008b11156107e6578173ffffffffffffffffffffffffffffffffffffffff1663a9059cbb8a8d6040518363ffffffff1660e01b81526004016107a19291906139a8565b6020604051808303816000875af11580156107c0573d6000803e3d6000fd5b505050506040513d601f19601f820116820180604052508101906107e491906139fd565b505b60008a111561086f578073ffffffffffffffffffffffffffffffffffffffff1663a9059cbb8a8c6040518363ffffffff1660e01b815260040161082a9291906139a8565b6020604051808303816000875af1158015610849573d6000803e3d6000fd5b505050506040513d601f19601f8201168201806040525081019061086d91906139fd565b505b60008888905011156108ef578873ffffffffffffffffffffffffffffffffffffffff166310d1e85c338d8d8c8c6040518663ffffffff1660e01b81526004016108bc959493929190613a77565b600060405180830381600087803b1580156108d657600080fd5b505af11580156108ea573d6000803e3d6000fd5b505050505b8173ffffffffffffffffffffffffffffffffffffffff166370a08231306040518263ffffffff1660e01b81526004016109289190613491565b602060405180830381865afa158015610945573d6000803e3d6000fd5b505050506040513d601f19601f820116820180604052508101906109699190613ada565b93508073ffffffffffffffffffffffffffffffffffffffff166370a08231306040518263ffffffff1660e01b81526004016109a49190613491565b602060405180830381865afa1580156109c1573d6000803e3d6000fd5b505050506040513d601f19601f820116820180604052508101906109e59190613ada565b92505050600089856109f79190613b36565b8311610a04576000610a1c565b8985610a109190613b36565b83610a1b9190613b36565b5b905060008985610a2c9190613b36565b8311610a39576000610a51565b8985610a459190613b36565b83610a509190613b36565b5b90506000821180610a625750600081115b610aa1576040517f08c379a0000000000000000000000000000000000000000000000000000000008152600401610a9890613bdc565b60405180910390fd5b6000600383610ab09190613bfc565b6103e886610abe9190613bfc565b610ac89190613b36565b90506000600383610ad99190613bfc565b6103e886610ae79190613bfc565b610af19190613b36565b9050620f42408789610b039190613bfc565b610b0d9190613bfc565b8183610b199190613bfc565b1015610b5a576040517f08c379a0000000000000000000000000000000000000000000000000000000008152600401610b5190613c8a565b60405180910390fd5b5050610b6684846126e7565b8873ffffffffffffffffffffffffffffffffffffffff163373ffffffffffffffffffffffffffffffffffffffff167fd78ad95fa46c994b6551d0da85fc275fe613ce37657fb8d5e3d130840159d82284848f8f604051610bc99493929190613caa565b60405180910390a350505050505060016005819055505050505050565b606060038054610bf590613d1e565b80601f0160208091040260200160405190810160405280929190818152602001828054610c2190613d1e565b8015610c6e5780601f10610c4357610100808354040283529160200191610c6e565b820191906000526020600020905b815481529060010190602001808311610c5157829003601f168201915b5050505050905090565b6000806000600a60009054906101000a90046dffffffffffffffffffffffffffff169250600a600e9054906101000a90046dffffffffffffffffffffffffffff169150600a601c9054906101000a900463ffffffff169050909192565b600080610ce0612a1b565b9050610ced818585612a23565b600191505092915050565b600860009054906101000a900473ffffffffffffffffffffffffffffffffffffffff1681565b6000600254905090565b600080610d33612a1b565b9050610d40858285612a35565b610d4b858585612ac9565b60019150509392505050565b7f6e71edae12b1b97f4d1f60370fef10105fa2faae0126114a169c64845d6126c960001b81565b60006012905090565b600e5481565b600760009054906101000a900473ffffffffffffffffffffffffffffffffffffffff1673ffffffffffffffffffffffffffffffffffffffff163373ffffffffffffffffffffffffffffffffffffffff1614610e1d576040517f08c379a0000000000000000000000000000000000000000000000000000000008152600401610e1490613d9b565b60405180910390fd5b81600860006101000a81548173ffffffffffffffffffffffffffffffffffffffff021916908373ffffffffffffffffffffffffffffffffffffffff16021790555080600960006101000a81548173ffffffffffffffffffffffffffffffffffffffff021916908373ffffffffffffffffffffffffffffffffffffffff1602179055505050565b600160065414610ee8576040517f08c379a0000000000000000000000000000000000000000000000000000000008152600401610edf90613e07565b60405180910390fd5b6000600681905550600260055403610f35576040517f08c379a0000000000000000000000000000000000000000000000000000000008152600401610f2c906137f8565b60405180910390fd5b60026005819055506000600860009054906101000a900473ffffffffffffffffffffffffffffffffffffffff1673ffffffffffffffffffffffffffffffffffffffff166370a08231306040518263ffffffff1660e01b8152600401610f9a9190613491565b602060405180830381865afa158015610fb7573d6000803e3d6000fd5b505050506040513d601f19601f82011682018060405250810190610fdb9190613ada565b90506000600960009054906101000a900473ffffffffffffffffffffffffffffffffffffffff1673ffffffffffffffffffffffffffffffffffffffff166370a08231306040518263ffffffff1660e01b815260040161103a9190613491565b602060405180830381865afa158015611057573d6000803e3d6000fd5b505050506040513d601f19601f8201168201806040525081019061107b9190613ada565b9050600086111561112857600860009054906101000a900473ffffffffffffffffffffffffffffffffffffffff1673ffffffffffffffffffffffffffffffffffffffff1663a9059cbb88886040518363ffffffff1660e01b81526004016110e39291906139a8565b6020604051808303816000875af1158015611102573d6000803e3d6000fd5b505050506040513d601f19601f8201168201806040525081019061112691906139fd565b505b60008511156111d357600960009054906101000a900473ffffffffffffffffffffffffffffffffffffffff1673ffffffffffffffffffffffffffffffffffffffff1663a9059cbb88876040518363ffffffff1660e01b815260040161118e9291906139a8565b6020604051808303816000875af11580156111ad573d6000803e3d6000fd5b505050506040513d601f19601f820116820180604052508101906111d191906139fd565b505b8673ffffffffffffffffffffffffffffffffffffffff166310d1e85c33888888886040518663ffffffff1660e01b8152600401611214959493929190613a77565b600060405180830381600087803b15801561122e57600080fd5b505af1158015611242573d6000803e3d6000fd5b505050506000600860009054906101000a900473ffffffffffffffffffffffffffffffffffffffff1673ffffffffffffffffffffffffffffffffffffffff166370a08231306040518263ffffffff1660e01b81526004016112a39190613491565b602060405180830381865afa1580156112c0573d6000803e3d6000fd5b505050506040513d601f19601f820116820180604052508101906112e49190613ada565b90506000600960009054906101000a900473ffffffffffffffffffffffffffffffffffffffff1673ffffffffffffffffffffffffffffffffffffffff166370a08231306040518263ffffffff1660e01b81526004016113439190613491565b602060405180830381865afa158015611360573d6000803e3d6000fd5b505050506040513d601f19601f820116820180604052508101906113849190613ada565b9050838210156113c9576040517f08c379a00000000000000000000000000000000000000000000000000000000081526004016113c090613e99565b60405180910390fd5b8281101561140c576040517f08c379a000000000000000000000000000000000000000000000000000000000815260040161140390613f2b565b60405180910390fd5b61141682826126e7565b50505050600160058190555060016006819055505050505050565b600b5481565b600c5481565b6000600160065414611484576040517f08c379a000000000000000000000000000000000000000000000000000000000815260040161147b90613e07565b60405180910390fd5b60006006819055506002600554036114d1576040517f08c379a00000000000000000000000000000000000000000000000000000000081526004016114c8906137f8565b60405180910390fd5b60026005819055506000806114e4610c78565b50915091506000600860009054906101000a900473ffffffffffffffffffffffffffffffffffffffff1673ffffffffffffffffffffffffffffffffffffffff166370a08231306040518263ffffffff1660e01b81526004016115469190613491565b602060405180830381865afa158015611563573d6000803e3d6000fd5b505050506040513d601f19601f820116820180604052508101906115879190613ada565b90506000600960009054906101000a900473ffffffffffffffffffffffffffffffffffffffff1673ffffffffffffffffffffffffffffffffffffffff166370a08231306040518263ffffffff1660e01b81526004016115e69190613491565b602060405180830381865afa158015611603573d6000803e3d6000fd5b505050506040513d601f19601f820116820180604052508101906116279190613ada565b90506000846dffffffffffffffffffffffffffff16836116479190613b36565b90506000846dffffffffffffffffffffffffffff16836116679190613b36565b90506000611673610d1e565b036116ad576103e861168f828461168a9190613bfc565b612bbd565b6116999190613b36565b96506116a860006103e8612c37565b611714565b611711866dffffffffffffffffffffffffffff166116c9610d1e565b846116d49190613bfc565b6116de9190613f7a565b866dffffffffffffffffffffffffffff166116f7610d1e565b846117029190613bfc565b61170c9190613f7a565b612cb9565b96505b60008711611757576040517f08c379a000000000000000000000000000000000000000000000000000000000815260040161174e9061401d565b60405180910390fd5b6117618888612c37565b61176b84846126e7565b600a600e9054906101000a90046dffffffffffffffffffffffffffff166dffffffffffffffffffffffffffff16600a60009054906101000a90046dffffffffffffffffffffffffffff166dffffffffffffffffffffffffffff166117cf9190613bfc565b600d819055503373ffffffffffffffffffffffffffffffffffffffff167f4c209b5fc8ad50758f13e2e1088ba56a560dff690a1c6fef26394f4c03821c4f838360405161181d929190613689565b60405180910390a250505050505060016005819055506001600681905550919050565b60008060008373ffffffffffffffffffffffffffffffffffffffff1673ffffffffffffffffffffffffffffffffffffffff168152602001908152602001600020549050919050565b600d5481565b600f6020528060005260406000206000915090505481565b6000806001600654146118ee576040517f08c379a00000000000000000000000000000000000000000000000000000000081526004016118e590613e07565b60405180910390fd5b600060068190555060026005540361193b576040517f08c379a0000000000000000000000000000000000000000000000000000000008152600401611932906137f8565b60405180910390fd5b60026005819055506000600860009054906101000a900473ffffffffffffffffffffffffffffffffffffffff1673ffffffffffffffffffffffffffffffffffffffff166370a08231306040518263ffffffff1660e01b81526004016119a09190613491565b602060405180830381865afa1580156119bd573d6000803e3d6000fd5b505050506040513d601f19601f820116820180604052508101906119e19190613ada565b90506000600960009054906101000a900473ffffffffffffffffffffffffffffffffffffffff1673ffffffffffffffffffffffffffffffffffffffff166370a08231306040518263ffffffff1660e01b8152600401611a409190613491565b602060405180830381865afa158015611a5d573d6000803e3d6000fd5b505050506040513d601f19601f82011682018060405250810190611a819190613ada565b90506000611a8e30611840565b9050611a98610d1e565b8382611aa49190613bfc565b611aae9190613f7a565b9450611ab8610d1e565b8282611ac49190613bfc565b611ace9190613f7a565b9350600085118015611ae05750600084115b611b1f576040517f08c379a0000000000000000000000000000000000000000000000000000000008152600401611b16906140af565b60405180910390fd5b611b293082612cd2565b600860009054906101000a900473ffffffffffffffffffffffffffffffffffffffff1673ffffffffffffffffffffffffffffffffffffffff1663a9059cbb87876040518363ffffffff1660e01b8152600401611b869291906139a8565b6020604051808303816000875af1158015611ba5573d6000803e3d6000fd5b505050506040513d601f19601f82011682018060405250810190611bc991906139fd565b50600960009054906101000a900473ffffffffffffffffffffffffffffffffffffffff1673ffffffffffffffffffffffffffffffffffffffff1663a9059cbb87866040518363ffffffff1660e01b8152600401611c279291906139a8565b6020604051808303816000875af1158015611c46573d6000803e3d6000fd5b505050506040513d601f19601f82011682018060405250810190611c6a91906139fd565b50600860009054906101000a900473ffffffffffffffffffffffffffffffffffffffff1673ffffffffffffffffffffffffffffffffffffffff166370a08231306040518263ffffffff1660e01b8152600401611cc69190613491565b602060405180830381865afa158015611ce3573d6000803e3d6000fd5b505050506040513d601f19601f82011682018060405250810190611d079190613ada565b9250600960009054906101000a900473ffffffffffffffffffffffffffffffffffffffff1673ffffffffffffffffffffffffffffffffffffffff166370a08231306040518263ffffffff1660e01b8152600401611d649190613491565b602060405180830381865afa158015611d81573d6000803e3d6000fd5b505050506040513d601f19601f82011682018060405250810190611da59190613ada565b9150611db183836126e7565b600a600e9054906101000a90046dffffffffffffffffffffffffffff166dffffffffffffffffffffffffffff16600a60009054906101000a90046dffffffffffffffffffffffffffff166dffffffffffffffffffffffffffff16611e159190613bfc565b600d819055508573ffffffffffffffffffffffffffffffffffffffff163373ffffffffffffffffffffffffffffffffffffffff167fdccd412f0b1252819cb1fd330b93224ca42612892bb3f4f789976e6d819364968787604051611e7a929190613689565b60405180910390a350505060016005819055506001600681905550915091565b606060048054611ea990613d1e565b80601f0160208091040260200160405190810160405280929190818152602001828054611ed590613d1e565b8015611f225780601f10611ef757610100808354040283529160200191611f22565b820191906000526020600020905b815481529060010190602001808311611f0557829003601f168201915b5050505050905090565b600080611f37612a1b565b9050611f44818585612ac9565b600191505092915050565b600160065414611f94576040517f08c379a0000000000000000000000000000000000000000000000000000000008152600401611f8b90613e07565b60405180910390fd5b60006006819055506000600860009054906101000a900473ffffffffffffffffffffffffffffffffffffffff1690506000600960009054906101000a900473ffffffffffffffffffffffffffffffffffffffff1690508173ffffffffffffffffffffffffffffffffffffffff1663a9059cbb84600a60009054906101000a90046dffffffffffffffffffffffffffff166dffffffffffffffffffffffffffff168573ffffffffffffffffffffffffffffffffffffffff166370a08231306040518263ffffffff1660e01b815260040161206d9190613491565b602060405180830381865afa15801561208a573d6000803e3d6000fd5b505050506040513d601f19601f820116820180604052508101906120ae9190613ada565b6120b89190613b36565b6040518363ffffffff1660e01b81526004016120d59291906139a8565b6020604051808303816000875af11580156120f4573d6000803e3d6000fd5b505050506040513d601f19601f8201168201806040525081019061211891906139fd565b508073ffffffffffffffffffffffffffffffffffffffff1663a9059cbb84600a600e9054906101000a90046dffffffffffffffffffffffffffff166dffffffffffffffffffffffffffff168473ffffffffffffffffffffffffffffffffffffffff166370a08231306040518263ffffffff1660e01b815260040161219c9190613491565b602060405180830381865afa1580156121b9573d6000803e3d6000fd5b505050506040513d601f19601f820116820180604052508101906121dd9190613ada565b6121e79190613b36565b6040518363ffffffff1660e01b81526004016122049291906139a8565b6020604051808303816000875af1158015612223573d6000803e3d6000fd5b505050506040513d601f19601f8201168201806040525081019061224791906139fd565b505050600160068190555050565b600760009054906101000a900473ffffffffffffffffffffffffffffffffffffffff1681565b600960009054906101000a900473ffffffffffffffffffffffffffffffffffffffff1681565b428410156122e4576040517f08c379a00000000000000000000000000000000000000000000000000000000081526004016122db9061411b565b60405180910390fd5b6000600e547f6e71edae12b1b97f4d1f60370fef10105fa2faae0126114a169c64845d6126c960001b898989600f60008e73ffffffffffffffffffffffffffffffffffffffff1673ffffffffffffffffffffffffffffffffffffffff16815260200190815260200160002060008154809291906123609061413b565b919050558a60405160200161237a96959493929190614183565b604051602081830303815290604052805190602001206040516020016123a192919061425c565b6040516020818303038152906040528051906020012090506000600182868686604051600081526020016040526040516123de9493929190614293565b6020604051602081039080840390855afa158015612400573d6000803e3d6000fd5b505050602060405103519050600073ffffffffffffffffffffffffffffffffffffffff168173ffffffffffffffffffffffffffffffffffffffff161415801561247457508873ffffffffffffffffffffffffffffffffffffffff168173ffffffffffffffffffffffffffffffffffffffff16145b6124b3576040517f08c379a00000000000000000000000000000000000000000000000000000000081526004016124aa90614324565b60405180910390fd5b6124be898989612a23565b505050505050505050565b6000600160008473ffffffffffffffffffffffffffffffffffffffff1673ffffffffffffffffffffffffffffffffffffffff16815260200190815260200160002060008373ffffffffffffffffffffffffffffffffffffffff1673ffffffffffffffffffffffffffffffffffffffff16815260200190815260200160002054905092915050565b600160065414612595576040517f08c379a000000000000000000000000000000000000000000000000000000000815260040161258c90613e07565b60405180910390fd5b60006006819055506126dd600860009054906101000a900473ffffffffffffffffffffffffffffffffffffffff1673ffffffffffffffffffffffffffffffffffffffff166370a08231306040518263ffffffff1660e01b81526004016125fb9190613491565b602060405180830381865afa158015612618573d6000803e3d6000fd5b505050506040513d601f19601f8201168201806040525081019061263c9190613ada565b600960009054906101000a900473ffffffffffffffffffffffffffffffffffffffff1673ffffffffffffffffffffffffffffffffffffffff166370a08231306040518263ffffffff1660e01b81526004016126979190613491565b602060405180830381865afa1580156126b4573d6000803e3d6000fd5b505050506040513d601f19601f820116820180604052508101906126d89190613ada565b6126e7565b6001600681905550565b6dffffffffffffffffffffffffffff8016821115801561271757506dffffffffffffffffffffffffffff80168111155b612756576040517f08c379a000000000000000000000000000000000000000000000000000000000815260040161274d90614390565b60405180910390fd5b6000600a601c9054906101000a900463ffffffff164261277691906143b0565b905060008163ffffffff161180156127bb57506000600a60009054906101000a90046dffffffffffffffffffffffffffff166dffffffffffffffffffffffffffff1614155b80156127f457506000600a600e9054906101000a90046dffffffffffffffffffffffffffff166dffffffffffffffffffffffffffff1614155b1561291a578063ffffffff16600a60009054906101000a90046dffffffffffffffffffffffffffff16670de0b6b3a7640000600a600e9054906101000a90046dffffffffffffffffffffffffffff1661284d91906143e8565b6128579190614425565b61286191906143e8565b6dffffffffffffffffffffffffffff16600b60008282546128829190614456565b925050819055508063ffffffff16600a600e9054906101000a90046dffffffffffffffffffffffffffff16670de0b6b3a7640000600a60009054906101000a90046dffffffffffffffffffffffffffff166128dd91906143e8565b6128e79190614425565b6128f191906143e8565b6dffffffffffffffffffffffffffff16600c60008282546129129190614456565b925050819055505b82600a60006101000a8154816dffffffffffffffffffffffffffff02191690836dffffffffffffffffffffffffffff16021790555081600a600e6101000a8154816dffffffffffffffffffffffffffff02191690836dffffffffffffffffffffffffffff16021790555042600a601c6101000a81548163ffffffff021916908363ffffffff1602179055507f1c411e9a96e071241c2f21f7726b17ae89e3cab4c78be50e062b03a9fffbbad1600a60009054906101000a90046dffffffffffffffffffffffffffff16600a600e9054906101000a90046dffffffffffffffffffffffffffff16604051612a0e92919061448a565b60405180910390a1505050565b600033905090565b612a308383836001612d54565b505050565b6000612a4184846124c9565b90507fffffffffffffffffffffffffffffffffffffffffffffffffffffffffffffffff8114612ac35781811015612ab3578281836040517ffb8f41b2000000000000000000000000000000000000000000000000000000008152600401612aaa939291906144b3565b60405180910390fd5b612ac284848484036000612d54565b5b50505050565b600073ffffffffffffffffffffffffffffffffffffffff168373ffffffffffffffffffffffffffffffffffffffff1603612b3b5760006040517f96c6fd1e000000000000000000000000000000000000000000000000000000008152600401612b329190613491565b60405180910390fd5b600073ffffffffffffffffffffffffffffffffffffffff168273ffffffffffffffffffffffffffffffffffffffff1603612bad5760006040517fec442f05000000000000000000000000000000000000000000000000000000008152600401612ba49190613491565b60405180910390fd5b612bb8838383612f2b565b505050565b60006003821115612c245781905060006001600284612bdc9190613f7a565b612be69190614456565b90505b81811015612c1e578091506002818285612c039190613f7a565b612c0d9190614456565b612c179190613f7a565b9050612be9565b50612c32565b60008214612c3157600190505b5b919050565b600073ffffffffffffffffffffffffffffffffffffffff168273ffffffffffffffffffffffffffffffffffffffff1603612ca95760006040517fec442f05000000000000000000000000000000000000000000000000000000008152600401612ca09190613491565b60405180910390fd5b612cb560008383612f2b565b5050565b6000818310612cc85781612cca565b825b905092915050565b600073ffffffffffffffffffffffffffffffffffffffff168273ffffffffffffffffffffffffffffffffffffffff1603612d445760006040517f96c6fd1e000000000000000000000000000000000000000000000000000000008152600401612d3b9190613491565b60405180910390fd5b612d5082600083612f2b565b5050565b600073ffffffffffffffffffffffffffffffffffffffff168473ffffffffffffffffffffffffffffffffffffffff1603612dc65760006040517fe602df05000000000000000000000000000000000000000000000000000000008152600401612dbd9190613491565b60405180910390fd5b600073ffffffffffffffffffffffffffffffffffffffff168373ffffffffffffffffffffffffffffffffffffffff1603612e385760006040517f94280d62000000000000000000000000000000000000000000000000000000008152600401612e2f9190613491565b60405180910390fd5b81600160008673ffffffffffffffffffffffffffffffffffffffff1673ffffffffffffffffffffffffffffffffffffffff16815260200190815260200160002060008573ffffffffffffffffffffffffffffffffffffffff1673ffffffffffffffffffffffffffffffffffffffff168152602001908152602001600020819055508015612f25578273ffffffffffffffffffffffffffffffffffffffff168473ffffffffffffffffffffffffffffffffffffffff167f8c5be1e5ebec7d5bd14f71427d1e84f3dd0314c0f7b2291e5b200ac8c7c3b92584604051612f1c91906134bb565b60405180910390a35b50505050565b600073ffffffffffffffffffffffffffffffffffffffff168373ffffffffffffffffffffffffffffffffffffffff1603612f7d578060026000828254612f719190614456565b92505081905550613050565b60008060008573ffffffffffffffffffffffffffffffffffffffff1673ffffffffffffffffffffffffffffffffffffffff16815260200190815260200160002054905081811015613009578381836040517fe450d38c000000000000000000000000000000000000000000000000000000008152600401613000939291906144b3565b60405180910390fd5b8181036000808673ffffffffffffffffffffffffffffffffffffffff1673ffffffffffffffffffffffffffffffffffffffff16815260200190815260200160002081905550505b600073ffffffffffffffffffffffffffffffffffffffff168273ffffffffffffffffffffffffffffffffffffffff160361309957806002600082825403925050819055506130e6565b806000808473ffffffffffffffffffffffffffffffffffffffff1673ffffffffffffffffffffffffffffffffffffffff168152602001908152602001600020600082825401925050819055505b8173ffffffffffffffffffffffffffffffffffffffff168373ffffffffffffffffffffffffffffffffffffffff167fddf252ad1be2c89b69c2b068fc378daa952ba7f163c4a11628f55a4df523b3ef8360405161314391906134bb565b60405180910390a3505050565b600080fd5b600080fd5b6000819050919050565b61316d8161315a565b811461317857600080fd5b50565b60008135905061318a81613164565b92915050565b600073ffffffffffffffffffffffffffffffffffffffff82169050919050565b60006131bb82613190565b9050919050565b6131cb816131b0565b81146131d657600080fd5b50565b6000813590506131e8816131c2565b92915050565b600080fd5b600080fd5b600080fd5b60008083601f840112613213576132126131ee565b5b8235905067ffffffffffffffff8111156132305761322f6131f3565b5b60208301915083600182028301111561324c5761324b6131f8565b5b9250929050565b60008060008060006080868803121561326f5761326e613150565b5b600061327d8882890161317b565b955050602061328e8882890161317b565b945050604061329f888289016131d9565b935050606086013567ffffffffffffffff8111156132c0576132bf613155565b5b6132cc888289016131fd565b92509250509295509295909350565b600081519050919050565b600082825260208201905092915050565b60005b838110156133155780820151818401526020810190506132fa565b60008484015250505050565b6000601f19601f8301169050919050565b600061333d826132db565b61334781856132e6565b93506133578185602086016132f7565b61336081613321565b840191505092915050565b600060208201905081810360008301526133858184613332565b905092915050565b60006dffffffffffffffffffffffffffff82169050919050565b6133b08161338d565b82525050565b600063ffffffff82169050919050565b6133cf816133b6565b82525050565b60006060820190506133ea60008301866133a7565b6133f760208301856133a7565b61340460408301846133c6565b949350505050565b6000806040838503121561342357613422613150565b5b6000613431858286016131d9565b92505060206134428582860161317b565b9150509250929050565b60008115159050919050565b6134618161344c565b82525050565b600060208201905061347c6000830184613458565b92915050565b61348b816131b0565b82525050565b60006020820190506134a66000830184613482565b92915050565b6134b58161315a565b82525050565b60006020820190506134d060008301846134ac565b92915050565b6000806000606084860312156134ef576134ee613150565b5b60006134fd868287016131d9565b935050602061350e868287016131d9565b925050604061351f8682870161317b565b9150509250925092565b6000819050919050565b61353c81613529565b82525050565b60006020820190506135576000830184613533565b92915050565b600060ff82169050919050565b6135738161355d565b82525050565b600060208201905061358e600083018461356a565b92915050565b600080604083850312156135ab576135aa613150565b5b60006135b9858286016131d9565b92505060206135ca858286016131d9565b9150509250929050565b6000806000806000608086880312156135f0576135ef613150565b5b60006135fe888289016131d9565b955050602061360f8882890161317b565b94505060406136208882890161317b565b935050606086013567ffffffffffffffff81111561364157613640613155565b5b61364d888289016131fd565b92509250509295509295909350565b60006020828403121561367257613671613150565b5b6000613680848285016131d9565b91505092915050565b600060408201905061369e60008301856134ac565b6136ab60208301846134ac565b9392505050565b6136bb8161355d565b81146136c657600080fd5b50565b6000813590506136d8816136b2565b92915050565b6136e781613529565b81146136f257600080fd5b50565b600081359050613704816136de565b92915050565b600080600080600080600060e0888a03121561372957613728613150565b5b60006137378a828b016131d9565b97505060206137488a828b016131d9565b96505060406137598a828b0161317b565b955050606061376a8a828b0161317b565b945050608061377b8a828b016136c9565b93505060a061378c8a828b016136f5565b92505060c061379d8a828b016136f5565b91505092959891949750929550565b7f5265656e7472616e637947756172643a207265656e7472616e742063616c6c00600082015250565b60006137e2601f836132e6565b91506137ed826137ac565b602082019050919050565b60006020820190508181036000830152613811816137d5565b9050919050565b7f556e697377617056323a20494e53554646494349454e545f4f55545055545f4160008201527f4d4f554e54000000000000000000000000000000000000000000000000000000602082015250565b60006138746025836132e6565b915061387f82613818565b604082019050919050565b600060208201905081810360008301526138a381613867565b9050919050565b7f556e697377617056323a20494e53554646494349454e545f4c4951554944495460008201527f5900000000000000000000000000000000000000000000000000000000000000602082015250565b60006139066021836132e6565b9150613911826138aa565b604082019050919050565b60006020820190508181036000830152613935816138f9565b9050919050565b7f556e697377617056323a20494e56414c49445f544f0000000000000000000000600082015250565b60006139726015836132e6565b915061397d8261393c565b602082019050919050565b600060208201905081810360008301526139a181613965565b9050919050565b60006040820190506139bd6000830185613482565b6139ca60208301846134ac565b9392505050565b6139da8161344c565b81146139e557600080fd5b50565b6000815190506139f7816139d1565b92915050565b600060208284031215613a1357613a12613150565b5b6000613a21848285016139e8565b91505092915050565b600082825260208201905092915050565b82818337600083830152505050565b6000613a568385613a2a565b9350613a63838584613a3b565b613a6c83613321565b840190509392505050565b6000608082019050613a8c6000830188613482565b613a9960208301876134ac565b613aa660408301866134ac565b8181036060830152613ab9818486613a4a565b90509695505050505050565b600081519050613ad481613164565b92915050565b600060208284031215613af057613aef613150565b5b6000613afe84828501613ac5565b91505092915050565b7f4e487b7100000000000000000000000000000000000000000000000000000000600052601160045260246000fd5b6000613b418261315a565b9150613b4c8361315a565b9250828203905081811115613b6457613b63613b07565b5b92915050565b7f556e697377617056323a20494e53554646494349454e545f494e5055545f414d60008201527f4f554e5400000000000000000000000000000000000000000000000000000000602082015250565b6000613bc66024836132e6565b9150613bd182613b6a565b604082019050919050565b60006020820190508181036000830152613bf581613bb9565b9050919050565b6000613c078261315a565b9150613c128361315a565b9250828202613c208161315a565b91508282048414831517613c3757613c36613b07565b5b5092915050565b7f556e697377617056323a204b0000000000000000000000000000000000000000600082015250565b6000613c74600c836132e6565b9150613c7f82613c3e565b602082019050919050565b60006020820190508181036000830152613ca381613c67565b9050919050565b6000608082019050613cbf60008301876134ac565b613ccc60208301866134ac565b613cd960408301856134ac565b613ce660608301846134ac565b95945050505050565b7f4e487b7100000000000000000000000000000000000000000000000000000000600052602260045260246000fd5b60006002820490506001821680613d3657607f821691505b602082108103613d4957613d48613cef565b5b50919050565b7f556e697377617056323a20464f5242494444454e000000000000000000000000600082015250565b6000613d856014836132e6565b9150613d9082613d4f565b602082019050919050565b60006020820190508181036000830152613db481613d78565b9050919050565b7f556e697377617056323a204c4f434b4544000000000000000000000000000000600082015250565b6000613df16011836132e6565b9150613dfc82613dbb565b602082019050919050565b60006020820190508181036000830152613e2081613de4565b9050919050565b7f556e697377617056323a20494e53554646494349454e545f464c4153485f504160008201527f594d454e545f3000000000000000000000000000000000000000000000000000602082015250565b6000613e836027836132e6565b9150613e8e82613e27565b604082019050919050565b60006020820190508181036000830152613eb281613e76565b9050919050565b7f556e697377617056323a20494e53554646494349454e545f464c4153485f504160008201527f594d454e545f3100000000000000000000000000000000000000000000000000602082015250565b6000613f156027836132e6565b9150613f2082613eb9565b604082019050919050565b60006020820190508181036000830152613f4481613f08565b9050919050565b7f4e487b7100000000000000000000000000000000000000000000000000000000600052601260045260246000fd5b6000613f858261315a565b9150613f908361315a565b925082613fa057613f9f613f4b565b5b828204905092915050565b7f556e697377617056323a20494e53554646494349454e545f4c4951554944495460008201527f595f4d494e544544000000000000000000000000000000000000000000000000602082015250565b60006140076028836132e6565b915061401282613fab565b604082019050919050565b6000602082019050818103600083015261403681613ffa565b9050919050565b7f556e697377617056323a20494e53554646494349454e545f4c4951554944495460008201527f595f4255524e4544000000000000000000000000000000000000000000000000602082015250565b60006140996028836132e6565b91506140a48261403d565b604082019050919050565b600060208201905081810360008301526140c88161408c565b9050919050565b7f556e697377617056323a20455850495245440000000000000000000000000000600082015250565b60006141056012836132e6565b9150614110826140cf565b602082019050919050565b60006020820190508181036000830152614134816140f8565b9050919050565b60006141468261315a565b91507fffffffffffffffffffffffffffffffffffffffffffffffffffffffffffffffff820361417857614177613b07565b5b600182019050919050565b600060c0820190506141986000830189613533565b6141a56020830188613482565b6141b26040830187613482565b6141bf60608301866134ac565b6141cc60808301856134ac565b6141d960a08301846134ac565b979650505050505050565b600081905092915050565b7f1901000000000000000000000000000000000000000000000000000000000000600082015250565b60006142256002836141e4565b9150614230826141ef565b600282019050919050565b6000819050919050565b61425661425182613529565b61423b565b82525050565b600061426782614218565b91506142738285614245565b6020820191506142838284614245565b6020820191508190509392505050565b60006080820190506142a86000830187613533565b6142b5602083018661356a565b6142c26040830185613533565b6142cf6060830184613533565b95945050505050565b7f556e697377617056323a20494e56414c49445f5349474e415455524500000000600082015250565b600061430e601c836132e6565b9150614319826142d8565b602082019050919050565b6000602082019050818103600083015261433d81614301565b9050919050565b7f556e697377617056323a204f564552464c4f5700000000000000000000000000600082015250565b600061437a6013836132e6565b915061438582614344565b602082019050919050565b600060208201905081810360008301526143a98161436d565b9050919050565b60006143bb826133b6565b91506143c6836133b6565b9250828203905063ffffffff8111156143e2576143e1613b07565b5b92915050565b60006143f38261338d565b91506143fe8361338d565b925082820261440c8161338d565b915080821461441e5761441d613b07565b5b5092915050565b60006144308261338d565b915061443b8361338d565b92508261444b5761444a613f4b565b5b828204905092915050565b60006144618261315a565b915061446c8361315a565b925082820190508082111561448457614483613b07565b5b92915050565b600060408201905061449f60008301856133a7565b6144ac60208301846133a7565b9392505050565b60006060820190506144c86000830186613482565b6144d560208301856134ac565b6144e260408301846134ac565b94935050505056fea26469706673582212202bb8bbeee7a8c1d5b78acf721bc914b37f60eca657fef322379de7fa095de16364736f6c634300081b0033a264697066735822122016f06065c7e5c4580e81f40675b74fd5a61752e63bf79fb6c08953fe6c0fa80b64736f6c634300081b0033",
  "linkReferences": {},
  "deployedLinkReferences": {}
}