{"contracts/core/MyUniswapV2Router.sol":{"MyUniswapV2Router":{"abi":[{"inputs":[{"internalType":"address","name":"_factory","type":"address"},{"internalType":"address","name":"_WETH","type":"address"}],"stateMutability":"nonpayable","type":"constructor"},{"inputs":[],"name":"WETH","outputs":[{"internalType":"address","name":"","type":"address"}],"stateMutability":"view","type":"function"},{"inputs":[{"internalType":"address","name":"tokenA","type":"address"},{"internalType":"address","name":"tokenB","type":"address"},{"internalType":"uint256","name":"amountADesired","type":"uint256"},{"internalType":"uint256","name":"amountBDesired","type":"uint256"},{"internalType":"uint256","name":"amountAMin","type":"uint256"},{"internalType":"uint256","name":"amountBMin","type":"uint256"},{"internalType":"address","name":"to","type":"address"},{"internalType":"uint256","name":"deadline","type":"uint256"}],"name":"addLiquidity","outputs":[{"internalType":"uint256","name":"amountA","type":"uint256"},{"internalType":"uint256","name":"amountB","type":"uint256"},{"internalType":"uint256","name":"liquidity","type":"uint256"}],"stateMutability":"nonpayable","type":"function"},{"inputs":[{"internalType":"address","name":"token","type":"address"},{"internalType":"uint256","name":"amountTokenDesired","type":"uint256"},{"internalType":"uint256","name":"amountTokenMin","type":"uint256"},{"internalType":"uint256","name":"amountETHMin","type":"uint256"},{"internalType":"address","name":"to","type":"address"},{"internalType":"uint256","name":"deadline","type":"uint256"}],"name":"addLiquidityETH","outputs":[{"internalType":"uint256","name":"amountToken","type":"uint256"},{"internalType":"uint256","name":"amountETH","type":"uint256"},{"internalType":"uint256","name":"liquidity","type":"uint256"}],"stateMutability":"payable","type":"function"},{"inputs":[],"name":"factory","outputs":[{"internalType":"address","name":"","type":"address"}],"stateMutability":"view","type":"function"},{"inputs":[{"internalType":"address","name":"tokenA","type":"address"},{"internalType":"address","name":"tokenB","type":"address"},{"internalType":"uint256","name":"liquidity","type":"uint256"},{"internalType":"uint256","name":"amountAMin","type":"uint256"},{"internalType":"uint256","name":"amountBMin","type":"uint256"},{"internalType":"address","name":"to","type":"address"},{"internalType":"uint256","name":"deadline","type":"uint256"}],"name":"removeLiquidity","outputs":[{"internalType":"uint256","name":"amountA","type":"uint256"},{"internalType":"uint256","name":"amountB","type":"uint256"}],"stateMutability":"nonpayable","type":"function"},{"inputs":[{"internalType":"address","name":"token","type":"address"},{"internalType":"uint256","name":"liquidity","type":"uint256"},{"internalType":"uint256","name":"amountTokenMin","type":"uint256"},{"internalType":"uint256","name":"amountETHMin","type":"uint256"},{"internalType":"address","name":"to","type":"address"},{"internalType":"uint256","name":"deadline","type":"uint256"}],"name":"removeLiquidityETH","outputs":[{"internalType":"uint256","name":"amountToken","type":"uint256"},{"internalType":"uint256","name":"amountETH","type":"uint256"}],"stateMutability":"nonpayable","type":"function"},{"inputs":[{"internalType":"uint256","name":"amountOut","type":"uint256"},{"internalType":"address[]","name":"path","type":"address[]"},{"internalType":"address","name":"to","type":"address"},{"internalType":"uint256","name":"deadline","type":"uint256"}],"name":"swapETHForExactTokens","outputs":[{"internalType":"uint256[]","name":"amounts","type":"uint256[]"}],"stateMutability":"payable","type":"function"},{"inputs":[{"internalType":"uint256","name":"amountIn","type":"uint256"},{"internalType":"uint256","name":"amountOutMin","type":"uint256"},{"internalType":"address[]","name":"path","type":"address[]"},{"internalType":"address","name":"to","type":"address"},{"internalType":"uint256","name":"deadline","type":"uint256"}],"name":"swapExactTokensForTokens","outputs":[{"internalType":"uint256[]","name":"amounts","type":"uint256[]"}],"stateMutability":"nonpayable","type":"function"},{"stateMutability":"payable","type":"receive"}],"evm":{"bytecode":{"linkReferences":{},"object":"60c060405234801561001057600080fd5b50604051617ac8380380617ac883398181016040528101906100329190610104565b8173ffffffffffffffffffffffffffffffffffffffff1660808173ffffffffffffffffffffffffffffffffffffffff16815250508073ffffffffffffffffffffffffffffffffffffffff1660a08173ffffffffffffffffffffffffffffffffffffffff16815250505050610144565b600080fd5b600073ffffffffffffffffffffffffffffffffffffffff82169050919050565b60006100d1826100a6565b9050919050565b6100e1816100c6565b81146100ec57600080fd5b50565b6000815190506100fe816100d8565b92915050565b6000806040838503121561011b5761011a6100a1565b5b6000610129858286016100ef565b925050602061013a858286016100ef565b9150509250929050565b60805160a0516178bf610209600039600081816086015281816102e4015281816103960152818161072701528181610dda01528181610ecc01528181610f54015281816110070152818161108801528181611254015281816113d601526114720152600081816104bd015281816105da01528181610794015281816109ca01528181610a3901528181610b0b01528181610d9d01528181610e8f0152818161130d015281816114b1015281816119b601528181611a0a0152611b1201526178bf6000f3fe60806040526004361061007f5760003560e01c8063c45a01551161004e578063c45a0155146101cb578063e8e33700146101f6578063f305d71914610235578063fb3bdb4114610267576100e2565b806302751cec146100e757806338ed173914610125578063ad5c464814610162578063baa2abde1461018d576100e2565b366100e2577f000000000000000000000000000000000000000000000000000000000000000073ffffffffffffffffffffffffffffffffffffffff163373ffffffffffffffffffffffffffffffffffffffff16146100e0576100df6122fc565b5b005b600080fd5b3480156100f357600080fd5b5061010e600480360381019061010991906123c9565b610297565b60405161011c929190612465565b60405180910390f35b34801561013157600080fd5b5061014c600480360381019061014791906124f3565b610472565b604051610159919061264b565b60405180910390f35b34801561016e57600080fd5b50610177610725565b604051610184919061267c565b60405180910390f35b34801561019957600080fd5b506101b460048036038101906101af9190612697565b610749565b6040516101c2929190612465565b60405180910390f35b3480156101d757600080fd5b506101e06109c8565b6040516101ed919061267c565b60405180910390f35b34801561020257600080fd5b5061021d60048036038101906102189190612739565b6109ec565b60405161022c939291906127ef565b60405180910390f35b61024f600480360381019061024a91906123c9565b610d50565b60405161025e939291906127ef565b60405180910390f35b610281600480360381019061027c9190612826565b61120c565b60405161028e919061264b565b60405180910390f35b60008082428110156102de576040517f08c379a00000000000000000000000000000000000000000000000000000000081526004016102d59061290b565b60405180910390fd5b61030d897f00000000000000000000000000000000000000000000000000000000000000008a8a8a308a610749565b80935081945050508873ffffffffffffffffffffffffffffffffffffffff1663a9059cbb86856040518363ffffffff1660e01b815260040161035092919061292b565b6020604051808303816000875af115801561036f573d6000803e3d6000fd5b505050506040513d601f19601f82011682018060405250810190610393919061298c565b507f000000000000000000000000000000000000000000000000000000000000000073ffffffffffffffffffffffffffffffffffffffff16632e1a7d4d836040518263ffffffff1660e01b81526004016103ed91906129b9565b600060405180830381600087803b15801561040757600080fd5b505af115801561041b573d6000803e3d6000fd5b505050508473ffffffffffffffffffffffffffffffffffffffff166108fc839081150290604051600060405180830381858888f19350505050158015610465573d6000803e3d6000fd5b5050965096945050505050565b606081428110156104b8576040517f08c379a00000000000000000000000000000000000000000000000000000000081526004016104af9061290b565b60405180910390fd5b6105247f000000000000000000000000000000000000000000000000000000000000000089888880806020026020016040519081016040528093929190818152602001838360200280828437600081840152601f19601f8201169050808301925050505050505061168b565b91508682600184516105369190612a03565b8151811061054757610546612a37565b5b60200260200101511015610590576040517f08c379a000000000000000000000000000000000000000000000000000000000815260040161058790612ad8565b60405180910390fd5b858560008181106105a4576105a3612a37565b5b90506020020160208101906105b99190612af8565b73ffffffffffffffffffffffffffffffffffffffff166323b872dd336106507f00000000000000000000000000000000000000000000000000000000000000008a8a600081811061060d5761060c612a37565b5b90506020020160208101906106229190612af8565b8b8b600181811061063657610635612a37565b5b905060200201602081019061064b9190612af8565b611810565b8560008151811061066457610663612a37565b5b60200260200101516040518463ffffffff1660e01b815260040161068a93929190612b25565b6020604051808303816000875af11580156106a9573d6000803e3d6000fd5b505050506040513d601f19601f820116820180604052508101906106cd919061298c565b5061071a82878780806020026020016040519081016040528093929190818152602001838360200280828437600081840152601f19601f82011690508083019250505050505050866118b4565b509695505050505050565b7f000000000000000000000000000000000000000000000000000000000000000081565b6000808242811015610790576040517f08c379a00000000000000000000000000000000000000000000000000000000081526004016107879061290b565b60405180910390fd5b60007f000000000000000000000000000000000000000000000000000000000000000073ffffffffffffffffffffffffffffffffffffffff1663e6a439058c8c6040518363ffffffff1660e01b81526004016107ed929190612b5c565b602060405180830381865afa15801561080a573d6000803e3d6000fd5b505050506040513d601f19601f8201168201806040525081019061082e9190612b9a565b90508073ffffffffffffffffffffffffffffffffffffffff166323b872dd33838c6040518463ffffffff1660e01b815260040161086d93929190612b25565b6020604051808303816000875af115801561088c573d6000803e3d6000fd5b505050506040513d601f19601f820116820180604052508101906108b0919061298c565b508073ffffffffffffffffffffffffffffffffffffffff166389afcb44876040518263ffffffff1660e01b81526004016108ea919061267c565b60408051808303816000875af1158015610908573d6000803e3d6000fd5b505050506040513d601f19601f8201168201806040525081019061092c9190612bdc565b809450819550505087841015610977576040517f08c379a000000000000000000000000000000000000000000000000000000000815260040161096e90612c8e565b60405180910390fd5b868310156109ba576040517f08c379a00000000000000000000000000000000000000000000000000000000081526004016109b190612d20565b60405180910390fd5b505097509795505050505050565b7f000000000000000000000000000000000000000000000000000000000000000081565b60008060008342811015610a35576040517f08c379a0000000000000000000000000000000000000000000000000000000008152600401610a2c9061290b565b60405180910390fd5b60007f000000000000000000000000000000000000000000000000000000000000000073ffffffffffffffffffffffffffffffffffffffff1663e6a439058e8e6040518363ffffffff1660e01b8152600401610a92929190612b5c565b602060405180830381865afa158015610aaf573d6000803e3d6000fd5b505050506040513d601f19601f82011682018060405250810190610ad39190612b9a565b9050600073ffffffffffffffffffffffffffffffffffffffff168173ffffffffffffffffffffffffffffffffffffffff1603610baa577f000000000000000000000000000000000000000000000000000000000000000073ffffffffffffffffffffffffffffffffffffffff1663c9c653968e8e6040518363ffffffff1660e01b8152600401610b64929190612b5c565b6020604051808303816000875af1158015610b83573d6000803e3d6000fd5b505050506040513d601f19601f82011682018060405250810190610ba79190612b9a565b90505b610bb88d8d8d8d8d8d611b07565b80955081965050508c73ffffffffffffffffffffffffffffffffffffffff166323b872dd3383886040518463ffffffff1660e01b8152600401610bfd93929190612b25565b6020604051808303816000875af1158015610c1c573d6000803e3d6000fd5b505050506040513d601f19601f82011682018060405250810190610c40919061298c565b508b73ffffffffffffffffffffffffffffffffffffffff166323b872dd3383876040518463ffffffff1660e01b8152600401610c7e93929190612b25565b6020604051808303816000875af1158015610c9d573d6000803e3d6000fd5b505050506040513d601f19601f82011682018060405250810190610cc1919061298c565b508073ffffffffffffffffffffffffffffffffffffffff16636a627842886040518263ffffffff1660e01b8152600401610cfb919061267c565b6020604051808303816000875af1158015610d1a573d6000803e3d6000fd5b505050506040513d601f19601f82011682018060405250810190610d3e9190612d40565b92505050985098509895505050505050565b60008060008342811015610d99576040517f08c379a0000000000000000000000000000000000000000000000000000000008152600401610d909061290b565b60405180910390fd5b60007f000000000000000000000000000000000000000000000000000000000000000073ffffffffffffffffffffffffffffffffffffffff1663e6a439058c7f00000000000000000000000000000000000000000000000000000000000000006040518363ffffffff1660e01b8152600401610e16929190612b5c565b602060405180830381865afa158015610e33573d6000803e3d6000fd5b505050506040513d601f19601f82011682018060405250810190610e579190612b9a565b9050600073ffffffffffffffffffffffffffffffffffffffff168173ffffffffffffffffffffffffffffffffffffffff1603610f4e577f000000000000000000000000000000000000000000000000000000000000000073ffffffffffffffffffffffffffffffffffffffff1663c9c653968c7f00000000000000000000000000000000000000000000000000000000000000006040518363ffffffff1660e01b8152600401610f08929190612b5c565b6020604051808303816000875af1158015610f27573d6000803e3d6000fd5b505050506040513d601f19601f82011682018060405250810190610f4b9190612b9a565b90505b610f7c8b7f00000000000000000000000000000000000000000000000000000000000000008c348d8d611b07565b80955081965050508a73ffffffffffffffffffffffffffffffffffffffff166323b872dd3383886040518463ffffffff1660e01b8152600401610fc193929190612b25565b6020604051808303816000875af1158015610fe0573d6000803e3d6000fd5b505050506040513d601f19601f82011682018060405250810190611004919061298c565b507f000000000000000000000000000000000000000000000000000000000000000073ffffffffffffffffffffffffffffffffffffffff1663d0e30db0856040518263ffffffff1660e01b81526004016000604051808303818588803b15801561106d57600080fd5b505af1158015611081573d6000803e3d6000fd5b50505050507f000000000000000000000000000000000000000000000000000000000000000073ffffffffffffffffffffffffffffffffffffffff1663a9059cbb82866040518363ffffffff1660e01b81526004016110e192919061292b565b6020604051808303816000875af1158015611100573d6000803e3d6000fd5b505050506040513d601f19601f82011682018060405250810190611124919061298c565b508073ffffffffffffffffffffffffffffffffffffffff16636a627842886040518263ffffffff1660e01b815260040161115e919061267c565b6020604051808303816000875af115801561117d573d6000803e3d6000fd5b505050506040513d601f19601f820116820180604052508101906111a19190612d40565b9250833411156111fe573373ffffffffffffffffffffffffffffffffffffffff166108fc85346111d19190612a03565b9081150290604051600060405180830381858888f193505050501580156111fc573d6000803e3d6000fd5b505b505096509650969350505050565b60608142811015611252576040517f08c379a00000000000000000000000000000000000000000000000000000000081526004016112499061290b565b60405180910390fd5b7f000000000000000000000000000000000000000000000000000000000000000073ffffffffffffffffffffffffffffffffffffffff168686600081811061129d5761129c612a37565b5b90506020020160208101906112b29190612af8565b73ffffffffffffffffffffffffffffffffffffffff1614611308576040517f08c379a00000000000000000000000000000000000000000000000000000000081526004016112ff90612db9565b60405180910390fd5b6113747f000000000000000000000000000000000000000000000000000000000000000088888880806020026020016040519081016040528093929190818152602001838360200280828437600081840152601f19601f82011690508083019250505050505050611c78565b9150348260008151811061138b5761138a612a37565b5b602002602001015111156113d4576040517f08c379a00000000000000000000000000000000000000000000000000000000081526004016113cb90612e4b565b60405180910390fd5b7f000000000000000000000000000000000000000000000000000000000000000073ffffffffffffffffffffffffffffffffffffffff1663d0e30db08360008151811061142457611423612a37565b5b60200260200101516040518263ffffffff1660e01b81526004016000604051808303818588803b15801561145757600080fd5b505af115801561146b573d6000803e3d6000fd5b50505050507f000000000000000000000000000000000000000000000000000000000000000073ffffffffffffffffffffffffffffffffffffffff1663a9059cbb6115277f0000000000000000000000000000000000000000000000000000000000000000898960008181106114e4576114e3612a37565b5b90506020020160208101906114f99190612af8565b8a8a600181811061150d5761150c612a37565b5b90506020020160208101906115229190612af8565b611810565b8460008151811061153b5761153a612a37565b5b60200260200101516040518363ffffffff1660e01b815260040161156092919061292b565b6020604051808303816000875af115801561157f573d6000803e3d6000fd5b505050506040513d601f19601f820116820180604052508101906115a3919061298c565b506115f082878780806020026020016040519081016040528093929190818152602001838360200280828437600081840152601f19601f82011690508083019250505050505050866118b4565b8160008151811061160457611603612a37565b5b6020026020010151341115611681573373ffffffffffffffffffffffffffffffffffffffff166108fc8360008151811061164157611640612a37565b5b6020026020010151346116549190612a03565b9081150290604051600060405180830381858888f1935050505015801561167f573d6000803e3d6000fd5b505b5095945050505050565b60606002825110156116d2576040517f08c379a00000000000000000000000000000000000000000000000000000000081526004016116c990612eb7565b60405180910390fd5b815167ffffffffffffffff8111156116ed576116ec612ed7565b5b60405190808252806020026020018201604052801561171b5781602001602082028036833780820191505090505b509050828160008151811061173357611732612a37565b5b60200260200101818152505060005b600183516117509190612a03565b811015611808576000806117a58786858151811061177157611770612a37565b5b6020026020010151876001876117879190612f06565b8151811061179857611797612a37565b5b6020026020010151611e13565b915091506117ce8484815181106117bf576117be612a37565b5b60200260200101518383611f36565b846001856117dc9190612f06565b815181106117ed576117ec612a37565b5b60200260200101818152505050508080600101915050611742565b509392505050565b600080600061181f8585612020565b91509150600060405180602001611835906122ef565b6020820181038252601f19601f82011660405250805190602001209050868383604051602001611866929190612f82565b604051602081830303815290604052805190602001208260405160200161188f93929190613030565b6040516020818303038152906040528051906020012060001c93505050509392505050565b60005b600183516118c59190612a03565b811015611b01576000808483815181106118e2576118e1612a37565b5b6020026020010151856001856118f89190612f06565b8151811061190957611908612a37565b5b60200260200101519150915060006119218383612020565b5090506000876001866119349190612f06565b8151811061194557611944612a37565b5b602002602001015190506000808373ffffffffffffffffffffffffffffffffffffffff168673ffffffffffffffffffffffffffffffffffffffff161461198d57826000611991565b6000835b91509150600060028a516119a59190612a03565b88106119b15788611a03565b611a027f0000000000000000000000000000000000000000000000000000000000000000878c60028c6119e49190612f06565b815181106119f5576119f4612a37565b5b6020026020010151611810565b5b9050611a307f00000000000000000000000000000000000000000000000000000000000000008888611810565b73ffffffffffffffffffffffffffffffffffffffff1663022c0d9f848484600067ffffffffffffffff811115611a6957611a68612ed7565b5b6040519080825280601f01601f191660200182016040528015611a9b5781602001600182028036833780820191505090505b506040518563ffffffff1660e01b8152600401611abb9493929190613108565b600060405180830381600087803b158015611ad557600080fd5b505af1158015611ae9573d6000803e3d6000fd5b505050505050505050505080806001019150506118b7565b50505050565b600080600080611b387f00000000000000000000000000000000000000000000000000000000000000008b8b611e13565b91509150600082148015611b4c5750600081145b15611b605787878094508195505050611c6b565b6000611b6d89848461214c565b9050878111611bc85785811015611bb9576040517f08c379a0000000000000000000000000000000000000000000000000000000008152600401611bb090612d20565b60405180910390fd5b88818095508196505050611c69565b6000611bd589848661214c565b905089811115611c1a576040517f08c379a0000000000000000000000000000000000000000000000000000000008152600401611c1190612e4b565b60405180910390fd5b87811015611c5d576040517f08c379a0000000000000000000000000000000000000000000000000000000008152600401611c5490612c8e565b60405180910390fd5b80898096508197505050505b505b5050965096945050505050565b6060600282511015611cbf576040517f08c379a0000000000000000000000000000000000000000000000000000000008152600401611cb690612eb7565b60405180910390fd5b815167ffffffffffffffff811115611cda57611cd9612ed7565b5b604051908082528060200260200182016040528015611d085781602001602082028036833780820191505090505b509050828160018351611d1b9190612a03565b81518110611d2c57611d2b612a37565b5b602002602001018181525050600060018351611d489190612a03565b90505b6000811115611e0b57600080611da28786600186611d699190612a03565b81518110611d7a57611d79612a37565b5b6020026020010151878681518110611d9557611d94612a37565b5b6020026020010151611e13565b91509150611dcb848481518110611dbc57611dbb612a37565b5b602002602001015183836121ff565b84600185611dd99190612a03565b81518110611dea57611de9612a37565b5b60200260200101818152505050508080611e0390613154565b915050611d4b565b509392505050565b6000806000611e228585612020565b509050600080611e33888888611810565b73ffffffffffffffffffffffffffffffffffffffff16630902f1ac6040518163ffffffff1660e01b8152600401606060405180830381865afa158015611e7d573d6000803e3d6000fd5b505050506040513d601f19601f82011682018060405250810190611ea191906131ff565b50915091508273ffffffffffffffffffffffffffffffffffffffff168773ffffffffffffffffffffffffffffffffffffffff1614611f0057806dffffffffffffffffffffffffffff16826dffffffffffffffffffffffffffff16611f23565b816dffffffffffffffffffffffffffff16816dffffffffffffffffffffffffffff165b8095508196505050505050935093915050565b6000808411611f7a576040517f08c379a0000000000000000000000000000000000000000000000000000000008152600401611f71906132c4565b60405180910390fd5b600083118015611f8a5750600082115b611fc9576040517f08c379a0000000000000000000000000000000000000000000000000000000008152600401611fc090613356565b60405180910390fd5b60006103e585611fd99190613376565b905060008382611fe99190613376565b90506000826103e887611ffc9190613376565b6120069190612f06565b9050808261201491906133e7565b93505050509392505050565b6000808273ffffffffffffffffffffffffffffffffffffffff168473ffffffffffffffffffffffffffffffffffffffff1603612091576040517f08c379a00000000000000000000000000000000000000000000000000000000081526004016120889061348a565b60405180910390fd5b8273ffffffffffffffffffffffffffffffffffffffff168473ffffffffffffffffffffffffffffffffffffffff16106120cb5782846120ce565b83835b8092508193505050600073ffffffffffffffffffffffffffffffffffffffff168273ffffffffffffffffffffffffffffffffffffffff1603612145576040517f08c379a000000000000000000000000000000000000000000000000000000000815260040161213c906134f6565b60405180910390fd5b9250929050565b6000808411612190576040517f08c379a000000000000000000000000000000000000000000000000000000000815260040161218790613588565b60405180910390fd5b6000831180156121a05750600082115b6121df576040517f08c379a00000000000000000000000000000000000000000000000000000000081526004016121d690613356565b60405180910390fd5b8282856121ec9190613376565b6121f691906133e7565b90509392505050565b6000808411612243576040517f08c379a000000000000000000000000000000000000000000000000000000000815260040161223a9061361a565b60405180910390fd5b6000831180156122535750600082115b612292576040517f08c379a000000000000000000000000000000000000000000000000000000000815260040161228990613356565b60405180910390fd5b60006103e885856122a39190613376565b6122ad9190613376565b905060006103e586856122c09190612a03565b6122ca9190613376565b9050600181836122da91906133e7565b6122e49190612f06565b925050509392505050565b61424f8061363b83390190565b7f4e487b7100000000000000000000000000000000000000000000000000000000600052600160045260246000fd5b600080fd5b600080fd5b600073ffffffffffffffffffffffffffffffffffffffff82169050919050565b600061236082612335565b9050919050565b61237081612355565b811461237b57600080fd5b50565b60008135905061238d81612367565b92915050565b6000819050919050565b6123a681612393565b81146123b157600080fd5b50565b6000813590506123c38161239d565b92915050565b60008060008060008060c087890312156123e6576123e561232b565b5b60006123f489828a0161237e565b965050602061240589828a016123b4565b955050604061241689828a016123b4565b945050606061242789828a016123b4565b935050608061243889828a0161237e565b92505060a061244989828a016123b4565b9150509295509295509295565b61245f81612393565b82525050565b600060408201905061247a6000830185612456565b6124876020830184612456565b9392505050565b600080fd5b600080fd5b600080fd5b60008083601f8401126124b3576124b261248e565b5b8235905067ffffffffffffffff8111156124d0576124cf612493565b5b6020830191508360208202830111156124ec576124eb612498565b5b9250929050565b60008060008060008060a087890312156125105761250f61232b565b5b600061251e89828a016123b4565b965050602061252f89828a016123b4565b955050604087013567ffffffffffffffff8111156125505761254f612330565b5b61255c89828a0161249d565b9450945050606061256f89828a0161237e565b925050608061258089828a016123b4565b9150509295509295509295565b600081519050919050565b600082825260208201905092915050565b6000819050602082019050919050565b6125c281612393565b82525050565b60006125d483836125b9565b60208301905092915050565b6000602082019050919050565b60006125f88261258d565b6126028185612598565b935061260d836125a9565b8060005b8381101561263e57815161262588826125c8565b9750612630836125e0565b925050600181019050612611565b5085935050505092915050565b6000602082019050818103600083015261266581846125ed565b905092915050565b61267681612355565b82525050565b6000602082019050612691600083018461266d565b92915050565b600080600080600080600060e0888a0312156126b6576126b561232b565b5b60006126c48a828b0161237e565b97505060206126d58a828b0161237e565b96505060406126e68a828b016123b4565b95505060606126f78a828b016123b4565b94505060806127088a828b016123b4565b93505060a06127198a828b0161237e565b92505060c061272a8a828b016123b4565b91505092959891949750929550565b600080600080600080600080610100898b03121561275a5761275961232b565b5b60006127688b828c0161237e565b98505060206127798b828c0161237e565b975050604061278a8b828c016123b4565b965050606061279b8b828c016123b4565b95505060806127ac8b828c016123b4565b94505060a06127bd8b828c016123b4565b93505060c06127ce8b828c0161237e565b92505060e06127df8b828c016123b4565b9150509295985092959890939650565b60006060820190506128046000830186612456565b6128116020830185612456565b61281e6040830184612456565b949350505050565b6000806000806000608086880312156128425761284161232b565b5b6000612850888289016123b4565b955050602086013567ffffffffffffffff81111561287157612870612330565b5b61287d8882890161249d565b945094505060406128908882890161237e565b92505060606128a1888289016123b4565b9150509295509295909350565b600082825260208201905092915050565b7f4d79556e69737761705632526f757465723a2045585049524544000000000000600082015250565b60006128f5601a836128ae565b9150612900826128bf565b602082019050919050565b60006020820190508181036000830152612924816128e8565b9050919050565b6000604082019050612940600083018561266d565b61294d6020830184612456565b9392505050565b60008115159050919050565b61296981612954565b811461297457600080fd5b50565b60008151905061298681612960565b92915050565b6000602082840312156129a2576129a161232b565b5b60006129b084828501612977565b91505092915050565b60006020820190506129ce6000830184612456565b92915050565b7f4e487b7100000000000000000000000000000000000000000000000000000000600052601160045260246000fd5b6000612a0e82612393565b9150612a1983612393565b9250828203905081811115612a3157612a306129d4565b5b92915050565b7f4e487b7100000000000000000000000000000000000000000000000000000000600052603260045260246000fd5b7f4d79556e69737761705632526f757465723a20494e53554646494349454e545f60008201527f4f55545055545f414d4f554e5400000000000000000000000000000000000000602082015250565b6000612ac2602d836128ae565b9150612acd82612a66565b604082019050919050565b60006020820190508181036000830152612af181612ab5565b9050919050565b600060208284031215612b0e57612b0d61232b565b5b6000612b1c8482850161237e565b91505092915050565b6000606082019050612b3a600083018661266d565b612b47602083018561266d565b612b546040830184612456565b949350505050565b6000604082019050612b71600083018561266d565b612b7e602083018461266d565b9392505050565b600081519050612b9481612367565b92915050565b600060208284031215612bb057612baf61232b565b5b6000612bbe84828501612b85565b91505092915050565b600081519050612bd68161239d565b92915050565b60008060408385031215612bf357612bf261232b565b5b6000612c0185828601612bc7565b9250506020612c1285828601612bc7565b9150509250929050565b7f4d79556e69737761705632526f757465723a20494e53554646494349454e545f60008201527f415f414d4f554e54000000000000000000000000000000000000000000000000602082015250565b6000612c786028836128ae565b9150612c8382612c1c565b604082019050919050565b60006020820190508181036000830152612ca781612c6b565b9050919050565b7f4d79556e69737761705632526f757465723a20494e53554646494349454e545f60008201527f425f414d4f554e54000000000000000000000000000000000000000000000000602082015250565b6000612d0a6028836128ae565b9150612d1582612cae565b604082019050919050565b60006020820190508181036000830152612d3981612cfd565b9050919050565b600060208284031215612d5657612d5561232b565b5b6000612d6484828501612bc7565b91505092915050565b7f4d79556e69737761705632526f757465723a20494e56414c49445f5041544800600082015250565b6000612da3601f836128ae565b9150612dae82612d6d565b602082019050919050565b60006020820190508181036000830152612dd281612d96565b9050919050565b7f4d79556e69737761705632526f757465723a204558434553534956455f494e5060008201527f55545f414d4f554e540000000000000000000000000000000000000000000000602082015250565b6000612e356029836128ae565b9150612e4082612dd9565b604082019050919050565b60006020820190508181036000830152612e6481612e28565b9050919050565b7f4d79556e697377617056324c6962726172793a20494e56414c49445f50415448600082015250565b6000612ea16020836128ae565b9150612eac82612e6b565b602082019050919050565b60006020820190508181036000830152612ed081612e94565b9050919050565b7f4e487b7100000000000000000000000000000000000000000000000000000000600052604160045260246000fd5b6000612f1182612393565b9150612f1c83612393565b9250828201905080821115612f3457612f336129d4565b5b92915050565b60008160601b9050919050565b6000612f5282612f3a565b9050919050565b6000612f6482612f47565b9050919050565b612f7c612f7782612355565b612f59565b82525050565b6000612f8e8285612f6b565b601482019150612f9e8284612f6b565b6014820191508190509392505050565b600081905092915050565b7fff00000000000000000000000000000000000000000000000000000000000000600082015250565b6000612fef600183612fae565b9150612ffa82612fb9565b600182019050919050565b6000819050919050565b6000819050919050565b61302a61302582613005565b61300f565b82525050565b600061303b82612fe2565b91506130478286612f6b565b6014820191506130578285613019565b6020820191506130678284613019565b602082019150819050949350505050565b600081519050919050565b600082825260208201905092915050565b60005b838110156130b2578082015181840152602081019050613097565b60008484015250505050565b6000601f19601f8301169050919050565b60006130da82613078565b6130e48185613083565b93506130f4818560208601613094565b6130fd816130be565b840191505092915050565b600060808201905061311d6000830187612456565b61312a6020830186612456565b613137604083018561266d565b818103606083015261314981846130cf565b905095945050505050565b600061315f82612393565b915060008203613172576131716129d4565b5b600182039050919050565b60006dffffffffffffffffffffffffffff82169050919050565b6131a08161317d565b81146131ab57600080fd5b50565b6000815190506131bd81613197565b92915050565b600063ffffffff82169050919050565b6131dc816131c3565b81146131e757600080fd5b50565b6000815190506131f9816131d3565b92915050565b6000806000606084860312156132185761321761232b565b5b6000613226868287016131ae565b9350506020613237868287016131ae565b9250506040613248868287016131ea565b9150509250925092565b7f4d79556e697377617056324c6962726172793a20494e53554646494349454e5460008201527f5f494e5055545f414d4f554e5400000000000000000000000000000000000000602082015250565b60006132ae602d836128ae565b91506132b982613252565b604082019050919050565b600060208201905081810360008301526132dd816132a1565b9050919050565b7f4d79556e697377617056324c6962726172793a20494e53554646494349454e5460008201527f5f4c495155494449545900000000000000000000000000000000000000000000602082015250565b6000613340602a836128ae565b915061334b826132e4565b604082019050919050565b6000602082019050818103600083015261336f81613333565b9050919050565b600061338182612393565b915061338c83612393565b925082820261339a81612393565b915082820484148315176133b1576133b06129d4565b5b5092915050565b7f4e487b7100000000000000000000000000000000000000000000000000000000600052601260045260246000fd5b60006133f282612393565b91506133fd83612393565b92508261340d5761340c6133b8565b5b828204905092915050565b7f4d79556e697377617056324c6962726172793a204944454e544943414c5f414460008201527f4452455353455300000000000000000000000000000000000000000000000000602082015250565b60006134746027836128ae565b915061347f82613418565b604082019050919050565b600060208201905081810360008301526134a381613467565b9050919050565b7f4d79556e697377617056324c6962726172793a205a45524f5f41444452455353600082015250565b60006134e06020836128ae565b91506134eb826134aa565b602082019050919050565b6000602082019050818103600083015261350f816134d3565b9050919050565b7f4d79556e697377617056324c6962726172793a20494e53554646494349454e5460008201527f5f414d4f554e5400000000000000000000000000000000000000000000000000602082015250565b60006135726027836128ae565b915061357d82613516565b604082019050919050565b600060208201905081810360008301526135a181613565565b9050919050565b7f4d79556e697377617056324c6962726172793a20494e53554646494349454e5460008201527f5f4f55545055545f414d4f554e54000000000000000000000000000000000000602082015250565b6000613604602e836128ae565b915061360f826135a8565b604082019050919050565b60006020820190508181036000830152613633816135f7565b905091905056fe6080604052600160065534801561001557600080fd5b506040518060400160405280600a81526020017f556e6973776170205632000000000000000000000000000000000000000000008152506040518060400160405280600681526020017f554e492d5632000000000000000000000000000000000000000000000000000081525081600390816100919190610342565b5080600490816100a19190610342565b50505033600760006101000a81548173ffffffffffffffffffffffffffffffffffffffff021916908373ffffffffffffffffffffffffffffffffffffffff1602179055506001600581905550610414565b600081519050919050565b7f4e487b7100000000000000000000000000000000000000000000000000000000600052604160045260246000fd5b7f4e487b7100000000000000000000000000000000000000000000000000000000600052602260045260246000fd5b6000600282049050600182168061017357607f821691505b6020821081036101865761018561012c565b5b50919050565b60008190508160005260206000209050919050565b60006020601f8301049050919050565b600082821b905092915050565b6000600883026101ee7fffffffffffffffffffffffffffffffffffffffffffffffffffffffffffffffff826101b1565b6101f886836101b1565b95508019841693508086168417925050509392505050565b6000819050919050565b6000819050919050565b600061023f61023a61023584610210565b61021a565b610210565b9050919050565b6000819050919050565b61025983610224565b61026d61026582610246565b8484546101be565b825550505050565b600090565b610282610275565b61028d818484610250565b505050565b5b818110156102b1576102a660008261027a565b600181019050610293565b5050565b601f8211156102f6576102c78161018c565b6102d0846101a1565b810160208510156102df578190505b6102f36102eb856101a1565b830182610292565b50505b505050565b600082821c905092915050565b6000610319600019846008026102fb565b1980831691505092915050565b60006103328383610308565b9150826002028217905092915050565b61034b826100f2565b67ffffffffffffffff811115610364576103636100fd565b5b61036e825461015b565b6103798282856102b5565b600060209050601f8311600181146103ac576000841561039a578287015190505b6103a48582610326565b86555061040c565b601f1984166103ba8661018c565b60005b828110156103e2578489015182556001820191506020850194506020810190506103bd565b868310156103ff57848901516103fb601f891682610308565b8355505b6001600288020188555050505b505050505050565b613e2c806104236000396000f3fe608060405234801561001057600080fd5b506004361061014d5760003560e01c80635a3d5493116100c3578063a9059cbb1161007c578063a9059cbb146103a7578063bc25cf77146103d7578063c45a0155146103f3578063d21220a714610411578063dd62ed3e1461042f578063fff6cae91461045f5761014d565b80635a3d5493146102bc5780636a627842146102da57806370a082311461030a5780637464fc3d1461033a57806389afcb441461035857806395d89b41146103895761014d565b806318160ddd1161011557806318160ddd146101fa57806323b872dd14610218578063313ce56714610248578063485cc95514610266578063490e6cbc146102825780635909c0d51461029e5761014d565b8063022c0d9f1461015257806306fdde031461016e5780630902f1ac1461018c578063095ea7b3146101ac5780630dfe1681146101dc575b600080fd5b61016c60048036038101906101679190612f02565b610469565b005b610176610b02565b604051610183919061301a565b60405180910390f35b610194610b94565b6040516101a393929190613084565b60405180910390f35b6101c660048036038101906101c191906130bb565b610bf1565b6040516101d39190613116565b60405180910390f35b6101e4610c14565b6040516101f19190613140565b60405180910390f35b610202610c3a565b60405161020f919061316a565b60405180910390f35b610232600480360381019061022d9190613185565b610c44565b60405161023f9190613116565b60405180910390f35b610250610c73565b60405161025d91906131f4565b60405180910390f35b610280600480360381019061027b919061320f565b610c7c565b005b61029c6004803603810190610297919061324f565b610d92565b005b6102a6611320565b6040516102b3919061316a565b60405180910390f35b6102c4611326565b6040516102d1919061316a565b60405180910390f35b6102f460048036038101906102ef91906132d7565b61132c565b604051610301919061316a565b60405180910390f35b610324600480360381019061031f91906132d7565b61172f565b604051610331919061316a565b60405180910390f35b610342611777565b60405161034f919061316a565b60405180910390f35b610372600480360381019061036d91906132d7565b61177d565b604051610380929190613304565b60405180910390f35b610391611d71565b60405161039e919061301a565b60405180910390f35b6103c160048036038101906103bc91906130bb565b611e03565b6040516103ce9190613116565b60405180910390f35b6103f160048036038101906103ec91906132d7565b611e26565b005b6103fb61212c565b6040516104089190613140565b60405180910390f35b610419612152565b6040516104269190613140565b60405180910390f35b6104496004803603810190610444919061320f565b612178565b604051610456919061316a565b60405180910390f35b6104676121ff565b005b6002600554036104ae576040517f08c379a00000000000000000000000000000000000000000000000000000000081526004016104a590613379565b60405180910390fd5b600260058190555060008511806104c55750600084115b610504576040517f08c379a00000000000000000000000000000000000000000000000000000000081526004016104fb9061340b565b60405180910390fd5b60008061050f610b94565b506dffffffffffffffffffffffffffff1691506dffffffffffffffffffffffffffff169150818710801561054257508086105b610581576040517f08c379a00000000000000000000000000000000000000000000000000000000081526004016105789061349d565b60405180910390fd5b6000806000600860009054906101000a900473ffffffffffffffffffffffffffffffffffffffff1690506000600960009054906101000a900473ffffffffffffffffffffffffffffffffffffffff1690508173ffffffffffffffffffffffffffffffffffffffff168973ffffffffffffffffffffffffffffffffffffffff161415801561063a57508073ffffffffffffffffffffffffffffffffffffffff168973ffffffffffffffffffffffffffffffffffffffff1614155b610679576040517f08c379a000000000000000000000000000000000000000000000000000000000815260040161067090613509565b60405180910390fd5b60008b1115610702578173ffffffffffffffffffffffffffffffffffffffff1663a9059cbb8a8d6040518363ffffffff1660e01b81526004016106bd929190613529565b6020604051808303816000875af11580156106dc573d6000803e3d6000fd5b505050506040513d601f19601f82011682018060405250810190610700919061357e565b505b60008a111561078b578073ffffffffffffffffffffffffffffffffffffffff1663a9059cbb8a8c6040518363ffffffff1660e01b8152600401610746929190613529565b6020604051808303816000875af1158015610765573d6000803e3d6000fd5b505050506040513d601f19601f82011682018060405250810190610789919061357e565b505b600088889050111561080b578873ffffffffffffffffffffffffffffffffffffffff166310d1e85c338d8d8c8c6040518663ffffffff1660e01b81526004016107d89594939291906135f8565b600060405180830381600087803b1580156107f257600080fd5b505af1158015610806573d6000803e3d6000fd5b505050505b8173ffffffffffffffffffffffffffffffffffffffff166370a08231306040518263ffffffff1660e01b81526004016108449190613140565b602060405180830381865afa158015610861573d6000803e3d6000fd5b505050506040513d601f19601f82011682018060405250810190610885919061365b565b93508073ffffffffffffffffffffffffffffffffffffffff166370a08231306040518263ffffffff1660e01b81526004016108c09190613140565b602060405180830381865afa1580156108dd573d6000803e3d6000fd5b505050506040513d601f19601f82011682018060405250810190610901919061365b565b925050506000898561091391906136b7565b8311610920576000610938565b898561092c91906136b7565b8361093791906136b7565b5b90506000898561094891906136b7565b831161095557600061096d565b898561096191906136b7565b8361096c91906136b7565b5b9050600082118061097e5750600081115b6109bd576040517f08c379a00000000000000000000000000000000000000000000000000000000081526004016109b49061375d565b60405180910390fd5b60006003836109cc919061377d565b6103e8866109da919061377d565b6109e491906136b7565b905060006003836109f5919061377d565b6103e886610a03919061377d565b610a0d91906136b7565b9050620f42408789610a1f919061377d565b610a29919061377d565b8183610a35919061377d565b1015610a76576040517f08c379a0000000000000000000000000000000000000000000000000000000008152600401610a6d9061380b565b60405180910390fd5b5050610a828484612396565b8873ffffffffffffffffffffffffffffffffffffffff163373ffffffffffffffffffffffffffffffffffffffff167fd78ad95fa46c994b6551d0da85fc275fe613ce37657fb8d5e3d130840159d82284848f8f604051610ae5949392919061382b565b60405180910390a350505050505060016005819055505050505050565b606060038054610b119061389f565b80601f0160208091040260200160405190810160405280929190818152602001828054610b3d9061389f565b8015610b8a5780601f10610b5f57610100808354040283529160200191610b8a565b820191906000526020600020905b815481529060010190602001808311610b6d57829003601f168201915b5050505050905090565b6000806000600a60009054906101000a90046dffffffffffffffffffffffffffff169250600a600e9054906101000a90046dffffffffffffffffffffffffffff169150600a601c9054906101000a900463ffffffff169050909192565b600080610bfc6126ca565b9050610c098185856126d2565b600191505092915050565b600860009054906101000a900473ffffffffffffffffffffffffffffffffffffffff1681565b6000600254905090565b600080610c4f6126ca565b9050610c5c8582856126e4565b610c67858585612778565b60019150509392505050565b60006012905090565b600760009054906101000a900473ffffffffffffffffffffffffffffffffffffffff1673ffffffffffffffffffffffffffffffffffffffff163373ffffffffffffffffffffffffffffffffffffffff1614610d0c576040517f08c379a0000000000000000000000000000000000000000000000000000000008152600401610d039061391c565b60405180910390fd5b81600860006101000a81548173ffffffffffffffffffffffffffffffffffffffff021916908373ffffffffffffffffffffffffffffffffffffffff16021790555080600960006101000a81548173ffffffffffffffffffffffffffffffffffffffff021916908373ffffffffffffffffffffffffffffffffffffffff1602179055505050565b600160065414610dd7576040517f08c379a0000000000000000000000000000000000000000000000000000000008152600401610dce90613988565b60405180910390fd5b6000600681905550600260055403610e24576040517f08c379a0000000000000000000000000000000000000000000000000000000008152600401610e1b90613379565b60405180910390fd5b60026005819055506000600860009054906101000a900473ffffffffffffffffffffffffffffffffffffffff1673ffffffffffffffffffffffffffffffffffffffff166370a08231306040518263ffffffff1660e01b8152600401610e899190613140565b602060405180830381865afa158015610ea6573d6000803e3d6000fd5b505050506040513d601f19601f82011682018060405250810190610eca919061365b565b90506000600960009054906101000a900473ffffffffffffffffffffffffffffffffffffffff1673ffffffffffffffffffffffffffffffffffffffff166370a08231306040518263ffffffff1660e01b8152600401610f299190613140565b602060405180830381865afa158015610f46573d6000803e3d6000fd5b505050506040513d601f19601f82011682018060405250810190610f6a919061365b565b9050600086111561101757600860009054906101000a900473ffffffffffffffffffffffffffffffffffffffff1673ffffffffffffffffffffffffffffffffffffffff1663a9059cbb88886040518363ffffffff1660e01b8152600401610fd2929190613529565b6020604051808303816000875af1158015610ff1573d6000803e3d6000fd5b505050506040513d601f19601f82011682018060405250810190611015919061357e565b505b60008511156110c257600960009054906101000a900473ffffffffffffffffffffffffffffffffffffffff1673ffffffffffffffffffffffffffffffffffffffff1663a9059cbb88876040518363ffffffff1660e01b815260040161107d929190613529565b6020604051808303816000875af115801561109c573d6000803e3d6000fd5b505050506040513d601f19601f820116820180604052508101906110c0919061357e565b505b8673ffffffffffffffffffffffffffffffffffffffff166310d1e85c33888888886040518663ffffffff1660e01b81526004016111039594939291906135f8565b600060405180830381600087803b15801561111d57600080fd5b505af1158015611131573d6000803e3d6000fd5b505050506000600860009054906101000a900473ffffffffffffffffffffffffffffffffffffffff1673ffffffffffffffffffffffffffffffffffffffff166370a08231306040518263ffffffff1660e01b81526004016111929190613140565b602060405180830381865afa1580156111af573d6000803e3d6000fd5b505050506040513d601f19601f820116820180604052508101906111d3919061365b565b90506000600960009054906101000a900473ffffffffffffffffffffffffffffffffffffffff1673ffffffffffffffffffffffffffffffffffffffff166370a08231306040518263ffffffff1660e01b81526004016112329190613140565b602060405180830381865afa15801561124f573d6000803e3d6000fd5b505050506040513d601f19601f82011682018060405250810190611273919061365b565b9050838210156112b8576040517f08c379a00000000000000000000000000000000000000000000000000000000081526004016112af90613a1a565b60405180910390fd5b828110156112fb576040517f08c379a00000000000000000000000000000000000000000000000000000000081526004016112f290613aac565b60405180910390fd5b6113058282612396565b50505050600160058190555060016006819055505050505050565b600b5481565b600c5481565b6000600160065414611373576040517f08c379a000000000000000000000000000000000000000000000000000000000815260040161136a90613988565b60405180910390fd5b60006006819055506002600554036113c0576040517f08c379a00000000000000000000000000000000000000000000000000000000081526004016113b790613379565b60405180910390fd5b60026005819055506000806113d3610b94565b50915091506000600860009054906101000a900473ffffffffffffffffffffffffffffffffffffffff1673ffffffffffffffffffffffffffffffffffffffff166370a08231306040518263ffffffff1660e01b81526004016114359190613140565b602060405180830381865afa158015611452573d6000803e3d6000fd5b505050506040513d601f19601f82011682018060405250810190611476919061365b565b90506000600960009054906101000a900473ffffffffffffffffffffffffffffffffffffffff1673ffffffffffffffffffffffffffffffffffffffff166370a08231306040518263ffffffff1660e01b81526004016114d59190613140565b602060405180830381865afa1580156114f2573d6000803e3d6000fd5b505050506040513d601f19601f82011682018060405250810190611516919061365b565b90506000846dffffffffffffffffffffffffffff168361153691906136b7565b90506000846dffffffffffffffffffffffffffff168361155691906136b7565b90506000611562610c3a565b0361159c576103e861157e8284611579919061377d565b61286c565b61158891906136b7565b965061159760006103e86128e6565b611603565b611600866dffffffffffffffffffffffffffff166115b8610c3a565b846115c3919061377d565b6115cd9190613afb565b866dffffffffffffffffffffffffffff166115e6610c3a565b846115f1919061377d565b6115fb9190613afb565b612968565b96505b60008711611646576040517f08c379a000000000000000000000000000000000000000000000000000000000815260040161163d90613b9e565b60405180910390fd5b61165088886128e6565b61165a8484612396565b600a600e9054906101000a90046dffffffffffffffffffffffffffff166dffffffffffffffffffffffffffff16600a60009054906101000a90046dffffffffffffffffffffffffffff166dffffffffffffffffffffffffffff166116be919061377d565b600d819055503373ffffffffffffffffffffffffffffffffffffffff167f4c209b5fc8ad50758f13e2e1088ba56a560dff690a1c6fef26394f4c03821c4f838360405161170c929190613304565b60405180910390a250505050505060016005819055506001600681905550919050565b60008060008373ffffffffffffffffffffffffffffffffffffffff1673ffffffffffffffffffffffffffffffffffffffff168152602001908152602001600020549050919050565b600d5481565b6000806001600654146117c5576040517f08c379a00000000000000000000000000000000000000000000000000000000081526004016117bc90613988565b60405180910390fd5b6000600681905550600260055403611812576040517f08c379a000000000000000000000000000000000000000000000000000000000815260040161180990613379565b60405180910390fd5b60026005819055506000600860009054906101000a900473ffffffffffffffffffffffffffffffffffffffff1673ffffffffffffffffffffffffffffffffffffffff166370a08231306040518263ffffffff1660e01b81526004016118779190613140565b602060405180830381865afa158015611894573d6000803e3d6000fd5b505050506040513d601f19601f820116820180604052508101906118b8919061365b565b90506000600960009054906101000a900473ffffffffffffffffffffffffffffffffffffffff1673ffffffffffffffffffffffffffffffffffffffff166370a08231306040518263ffffffff1660e01b81526004016119179190613140565b602060405180830381865afa158015611934573d6000803e3d6000fd5b505050506040513d601f19601f82011682018060405250810190611958919061365b565b905060006119653061172f565b905061196f610c3a565b838261197b919061377d565b6119859190613afb565b945061198f610c3a565b828261199b919061377d565b6119a59190613afb565b93506000851180156119b75750600084115b6119f6576040517f08c379a00000000000000000000000000000000000000000000000000000000081526004016119ed90613c30565b60405180910390fd5b611a003082612981565b600860009054906101000a900473ffffffffffffffffffffffffffffffffffffffff1673ffffffffffffffffffffffffffffffffffffffff1663a9059cbb87876040518363ffffffff1660e01b8152600401611a5d929190613529565b6020604051808303816000875af1158015611a7c573d6000803e3d6000fd5b505050506040513d601f19601f82011682018060405250810190611aa0919061357e565b50600960009054906101000a900473ffffffffffffffffffffffffffffffffffffffff1673ffffffffffffffffffffffffffffffffffffffff1663a9059cbb87866040518363ffffffff1660e01b8152600401611afe929190613529565b6020604051808303816000875af1158015611b1d573d6000803e3d6000fd5b505050506040513d601f19601f82011682018060405250810190611b41919061357e565b50600860009054906101000a900473ffffffffffffffffffffffffffffffffffffffff1673ffffffffffffffffffffffffffffffffffffffff166370a08231306040518263ffffffff1660e01b8152600401611b9d9190613140565b602060405180830381865afa158015611bba573d6000803e3d6000fd5b505050506040513d601f19601f82011682018060405250810190611bde919061365b565b9250600960009054906101000a900473ffffffffffffffffffffffffffffffffffffffff1673ffffffffffffffffffffffffffffffffffffffff166370a08231306040518263ffffffff1660e01b8152600401611c3b9190613140565b602060405180830381865afa158015611c58573d6000803e3d6000fd5b505050506040513d601f19601f82011682018060405250810190611c7c919061365b565b9150611c888383612396565b600a600e9054906101000a90046dffffffffffffffffffffffffffff166dffffffffffffffffffffffffffff16600a60009054906101000a90046dffffffffffffffffffffffffffff166dffffffffffffffffffffffffffff16611cec919061377d565b600d819055508573ffffffffffffffffffffffffffffffffffffffff163373ffffffffffffffffffffffffffffffffffffffff167fdccd412f0b1252819cb1fd330b93224ca42612892bb3f4f789976e6d819364968787604051611d51929190613304565b60405180910390a350505060016005819055506001600681905550915091565b606060048054611d809061389f565b80601f0160208091040260200160405190810160405280929190818152602001828054611dac9061389f565b8015611df95780601f10611dce57610100808354040283529160200191611df9565b820191906000526020600020905b815481529060010190602001808311611ddc57829003601f168201915b5050505050905090565b600080611e0e6126ca565b9050611e1b818585612778565b600191505092915050565b600160065414611e6b576040517f08c379a0000000000000000000000000000000000000000000000000000000008152600401611e6290613988565b60405180910390fd5b60006006819055506000600860009054906101000a900473ffffffffffffffffffffffffffffffffffffffff1690506000600960009054906101000a900473ffffffffffffffffffffffffffffffffffffffff1690508173ffffffffffffffffffffffffffffffffffffffff1663a9059cbb84600a60009054906101000a90046dffffffffffffffffffffffffffff166dffffffffffffffffffffffffffff168573ffffffffffffffffffffffffffffffffffffffff166370a08231306040518263ffffffff1660e01b8152600401611f449190613140565b602060405180830381865afa158015611f61573d6000803e3d6000fd5b505050506040513d601f19601f82011682018060405250810190611f85919061365b565b611f8f91906136b7565b6040518363ffffffff1660e01b8152600401611fac929190613529565b6020604051808303816000875af1158015611fcb573d6000803e3d6000fd5b505050506040513d601f19601f82011682018060405250810190611fef919061357e565b508073ffffffffffffffffffffffffffffffffffffffff1663a9059cbb84600a600e9054906101000a90046dffffffffffffffffffffffffffff166dffffffffffffffffffffffffffff168473ffffffffffffffffffffffffffffffffffffffff166370a08231306040518263ffffffff1660e01b81526004016120739190613140565b602060405180830381865afa158015612090573d6000803e3d6000fd5b505050506040513d601f19601f820116820180604052508101906120b4919061365b565b6120be91906136b7565b6040518363ffffffff1660e01b81526004016120db929190613529565b6020604051808303816000875af11580156120fa573d6000803e3d6000fd5b505050506040513d601f19601f8201168201806040525081019061211e919061357e565b505050600160068190555050565b600760009054906101000a900473ffffffffffffffffffffffffffffffffffffffff1681565b600960009054906101000a900473ffffffffffffffffffffffffffffffffffffffff1681565b6000600160008473ffffffffffffffffffffffffffffffffffffffff1673ffffffffffffffffffffffffffffffffffffffff16815260200190815260200160002060008373ffffffffffffffffffffffffffffffffffffffff1673ffffffffffffffffffffffffffffffffffffffff16815260200190815260200160002054905092915050565b600160065414612244576040517f08c379a000000000000000000000000000000000000000000000000000000000815260040161223b90613988565b60405180910390fd5b600060068190555061238c600860009054906101000a900473ffffffffffffffffffffffffffffffffffffffff1673ffffffffffffffffffffffffffffffffffffffff166370a08231306040518263ffffffff1660e01b81526004016122aa9190613140565b602060405180830381865afa1580156122c7573d6000803e3d6000fd5b505050506040513d601f19601f820116820180604052508101906122eb919061365b565b600960009054906101000a900473ffffffffffffffffffffffffffffffffffffffff1673ffffffffffffffffffffffffffffffffffffffff166370a08231306040518263ffffffff1660e01b81526004016123469190613140565b602060405180830381865afa158015612363573d6000803e3d6000fd5b505050506040513d601f19601f82011682018060405250810190612387919061365b565b612396565b6001600681905550565b6dffffffffffffffffffffffffffff801682111580156123c657506dffffffffffffffffffffffffffff80168111155b612405576040517f08c379a00000000000000000000000000000000000000000000000000000000081526004016123fc90613c9c565b60405180910390fd5b6000600a601c9054906101000a900463ffffffff16426124259190613cbc565b905060008163ffffffff1611801561246a57506000600a60009054906101000a90046dffffffffffffffffffffffffffff166dffffffffffffffffffffffffffff1614155b80156124a357506000600a600e9054906101000a90046dffffffffffffffffffffffffffff166dffffffffffffffffffffffffffff1614155b156125c9578063ffffffff16600a60009054906101000a90046dffffffffffffffffffffffffffff16670de0b6b3a7640000600a600e9054906101000a90046dffffffffffffffffffffffffffff166124fc9190613cf4565b6125069190613d31565b6125109190613cf4565b6dffffffffffffffffffffffffffff16600b60008282546125319190613d62565b925050819055508063ffffffff16600a600e9054906101000a90046dffffffffffffffffffffffffffff16670de0b6b3a7640000600a60009054906101000a90046dffffffffffffffffffffffffffff1661258c9190613cf4565b6125969190613d31565b6125a09190613cf4565b6dffffffffffffffffffffffffffff16600c60008282546125c19190613d62565b925050819055505b82600a60006101000a8154816dffffffffffffffffffffffffffff02191690836dffffffffffffffffffffffffffff16021790555081600a600e6101000a8154816dffffffffffffffffffffffffffff02191690836dffffffffffffffffffffffffffff16021790555042600a601c6101000a81548163ffffffff021916908363ffffffff1602179055507f1c411e9a96e071241c2f21f7726b17ae89e3cab4c78be50e062b03a9fffbbad1600a60009054906101000a90046dffffffffffffffffffffffffffff16600a600e9054906101000a90046dffffffffffffffffffffffffffff166040516126bd929190613d96565b60405180910390a1505050565b600033905090565b6126df8383836001612a03565b505050565b60006126f08484612178565b90507fffffffffffffffffffffffffffffffffffffffffffffffffffffffffffffffff81146127725781811015612762578281836040517ffb8f41b200000000000000000000000000000000000000000000000000000000815260040161275993929190613dbf565b60405180910390fd5b61277184848484036000612a03565b5b50505050565b600073ffffffffffffffffffffffffffffffffffffffff168373ffffffffffffffffffffffffffffffffffffffff16036127ea5760006040517f96c6fd1e0000000000000000000000000000000000000000000000000000000081526004016127e19190613140565b60405180910390fd5b600073ffffffffffffffffffffffffffffffffffffffff168273ffffffffffffffffffffffffffffffffffffffff160361285c5760006040517fec442f050000000000000000000000000000000000000000000000000000000081526004016128539190613140565b60405180910390fd5b612867838383612bda565b505050565b600060038211156128d3578190506000600160028461288b9190613afb565b6128959190613d62565b90505b818110156128cd5780915060028182856128b29190613afb565b6128bc9190613d62565b6128c69190613afb565b9050612898565b506128e1565b600082146128e057600190505b5b919050565b600073ffffffffffffffffffffffffffffffffffffffff168273ffffffffffffffffffffffffffffffffffffffff16036129585760006040517fec442f0500000000000000000000000000000000000000000000000000000000815260040161294f9190613140565b60405180910390fd5b61296460008383612bda565b5050565b60008183106129775781612979565b825b905092915050565b600073ffffffffffffffffffffffffffffffffffffffff168273ffffffffffffffffffffffffffffffffffffffff16036129f35760006040517f96c6fd1e0000000000000000000000000000000000000000000000000000000081526004016129ea9190613140565b60405180910390fd5b6129ff82600083612bda565b5050565b600073ffffffffffffffffffffffffffffffffffffffff168473ffffffffffffffffffffffffffffffffffffffff1603612a755760006040517fe602df05000000000000000000000000000000000000000000000000000000008152600401612a6c9190613140565b60405180910390fd5b600073ffffffffffffffffffffffffffffffffffffffff168373ffffffffffffffffffffffffffffffffffffffff1603612ae75760006040517f94280d62000000000000000000000000000000000000000000000000000000008152600401612ade9190613140565b60405180910390fd5b81600160008673ffffffffffffffffffffffffffffffffffffffff1673ffffffffffffffffffffffffffffffffffffffff16815260200190815260200160002060008573ffffffffffffffffffffffffffffffffffffffff1673ffffffffffffffffffffffffffffffffffffffff168152602001908152602001600020819055508015612bd4578273ffffffffffffffffffffffffffffffffffffffff168473ffffffffffffffffffffffffffffffffffffffff167f8c5be1e5ebec7d5bd14f71427d1e84f3dd0314c0f7b2291e5b200ac8c7c3b92584604051612bcb919061316a565b60405180910390a35b50505050565b600073ffffffffffffffffffffffffffffffffffffffff168373ffffffffffffffffffffffffffffffffffffffff1603612c2c578060026000828254612c209190613d62565b92505081905550612cff565b60008060008573ffffffffffffffffffffffffffffffffffffffff1673ffffffffffffffffffffffffffffffffffffffff16815260200190815260200160002054905081811015612cb8578381836040517fe450d38c000000000000000000000000000000000000000000000000000000008152600401612caf93929190613dbf565b60405180910390fd5b8181036000808673ffffffffffffffffffffffffffffffffffffffff1673ffffffffffffffffffffffffffffffffffffffff16815260200190815260200160002081905550505b600073ffffffffffffffffffffffffffffffffffffffff168273ffffffffffffffffffffffffffffffffffffffff1603612d485780600260008282540392505081905550612d95565b806000808473ffffffffffffffffffffffffffffffffffffffff1673ffffffffffffffffffffffffffffffffffffffff168152602001908152602001600020600082825401925050819055505b8173ffffffffffffffffffffffffffffffffffffffff168373ffffffffffffffffffffffffffffffffffffffff167fddf252ad1be2c89b69c2b068fc378daa952ba7f163c4a11628f55a4df523b3ef83604051612df2919061316a565b60405180910390a3505050565b600080fd5b600080fd5b6000819050919050565b612e1c81612e09565b8114612e2757600080fd5b50565b600081359050612e3981612e13565b92915050565b600073ffffffffffffffffffffffffffffffffffffffff82169050919050565b6000612e6a82612e3f565b9050919050565b612e7a81612e5f565b8114612e8557600080fd5b50565b600081359050612e9781612e71565b92915050565b600080fd5b600080fd5b600080fd5b60008083601f840112612ec257612ec1612e9d565b5b8235905067ffffffffffffffff811115612edf57612ede612ea2565b5b602083019150836001820283011115612efb57612efa612ea7565b5b9250929050565b600080600080600060808688031215612f1e57612f1d612dff565b5b6000612f2c88828901612e2a565b9550506020612f3d88828901612e2a565b9450506040612f4e88828901612e88565b935050606086013567ffffffffffffffff811115612f6f57612f6e612e04565b5b612f7b88828901612eac565b92509250509295509295909350565b600081519050919050565b600082825260208201905092915050565b60005b83811015612fc4578082015181840152602081019050612fa9565b60008484015250505050565b6000601f19601f8301169050919050565b6000612fec82612f8a565b612ff68185612f95565b9350613006818560208601612fa6565b61300f81612fd0565b840191505092915050565b600060208201905081810360008301526130348184612fe1565b905092915050565b60006dffffffffffffffffffffffffffff82169050919050565b61305f8161303c565b82525050565b600063ffffffff82169050919050565b61307e81613065565b82525050565b60006060820190506130996000830186613056565b6130a66020830185613056565b6130b36040830184613075565b949350505050565b600080604083850312156130d2576130d1612dff565b5b60006130e085828601612e88565b92505060206130f185828601612e2a565b9150509250929050565b60008115159050919050565b613110816130fb565b82525050565b600060208201905061312b6000830184613107565b92915050565b61313a81612e5f565b82525050565b60006020820190506131556000830184613131565b92915050565b61316481612e09565b82525050565b600060208201905061317f600083018461315b565b92915050565b60008060006060848603121561319e5761319d612dff565b5b60006131ac86828701612e88565b93505060206131bd86828701612e88565b92505060406131ce86828701612e2a565b9150509250925092565b600060ff82169050919050565b6131ee816131d8565b82525050565b600060208201905061320960008301846131e5565b92915050565b6000806040838503121561322657613225612dff565b5b600061323485828601612e88565b925050602061324585828601612e88565b9150509250929050565b60008060008060006080868803121561326b5761326a612dff565b5b600061327988828901612e88565b955050602061328a88828901612e2a565b945050604061329b88828901612e2a565b935050606086013567ffffffffffffffff8111156132bc576132bb612e04565b5b6132c888828901612eac565b92509250509295509295909350565b6000602082840312156132ed576132ec612dff565b5b60006132fb84828501612e88565b91505092915050565b6000604082019050613319600083018561315b565b613326602083018461315b565b9392505050565b7f5265656e7472616e637947756172643a207265656e7472616e742063616c6c00600082015250565b6000613363601f83612f95565b915061336e8261332d565b602082019050919050565b6000602082019050818103600083015261339281613356565b9050919050565b7f556e697377617056323a20494e53554646494349454e545f4f55545055545f4160008201527f4d4f554e54000000000000000000000000000000000000000000000000000000602082015250565b60006133f5602583612f95565b915061340082613399565b604082019050919050565b60006020820190508181036000830152613424816133e8565b9050919050565b7f556e697377617056323a20494e53554646494349454e545f4c4951554944495460008201527f5900000000000000000000000000000000000000000000000000000000000000602082015250565b6000613487602183612f95565b91506134928261342b565b604082019050919050565b600060208201905081810360008301526134b68161347a565b9050919050565b7f556e697377617056323a20494e56414c49445f544f0000000000000000000000600082015250565b60006134f3601583612f95565b91506134fe826134bd565b602082019050919050565b60006020820190508181036000830152613522816134e6565b9050919050565b600060408201905061353e6000830185613131565b61354b602083018461315b565b9392505050565b61355b816130fb565b811461356657600080fd5b50565b60008151905061357881613552565b92915050565b60006020828403121561359457613593612dff565b5b60006135a284828501613569565b91505092915050565b600082825260208201905092915050565b82818337600083830152505050565b60006135d783856135ab565b93506135e48385846135bc565b6135ed83612fd0565b840190509392505050565b600060808201905061360d6000830188613131565b61361a602083018761315b565b613627604083018661315b565b818103606083015261363a8184866135cb565b90509695505050505050565b60008151905061365581612e13565b92915050565b60006020828403121561367157613670612dff565b5b600061367f84828501613646565b91505092915050565b7f4e487b7100000000000000000000000000000000000000000000000000000000600052601160045260246000fd5b60006136c282612e09565b91506136cd83612e09565b92508282039050818111156136e5576136e4613688565b5b92915050565b7f556e697377617056323a20494e53554646494349454e545f494e5055545f414d60008201527f4f554e5400000000000000000000000000000000000000000000000000000000602082015250565b6000613747602483612f95565b9150613752826136eb565b604082019050919050565b600060208201905081810360008301526137768161373a565b9050919050565b600061378882612e09565b915061379383612e09565b92508282026137a181612e09565b915082820484148315176137b8576137b7613688565b5b5092915050565b7f556e697377617056323a204b0000000000000000000000000000000000000000600082015250565b60006137f5600c83612f95565b9150613800826137bf565b602082019050919050565b60006020820190508181036000830152613824816137e8565b9050919050565b6000608082019050613840600083018761315b565b61384d602083018661315b565b61385a604083018561315b565b613867606083018461315b565b95945050505050565b7f4e487b7100000000000000000000000000000000000000000000000000000000600052602260045260246000fd5b600060028204905060018216806138b757607f821691505b6020821081036138ca576138c9613870565b5b50919050565b7f556e697377617056323a20464f5242494444454e000000000000000000000000600082015250565b6000613906601483612f95565b9150613911826138d0565b602082019050919050565b60006020820190508181036000830152613935816138f9565b9050919050565b7f556e697377617056323a204c4f434b4544000000000000000000000000000000600082015250565b6000613972601183612f95565b915061397d8261393c565b602082019050919050565b600060208201905081810360008301526139a181613965565b9050919050565b7f556e697377617056323a20494e53554646494349454e545f464c4153485f504160008201527f594d454e545f3000000000000000000000000000000000000000000000000000602082015250565b6000613a04602783612f95565b9150613a0f826139a8565b604082019050919050565b60006020820190508181036000830152613a33816139f7565b9050919050565b7f556e697377617056323a20494e53554646494349454e545f464c4153485f504160008201527f594d454e545f3100000000000000000000000000000000000000000000000000602082015250565b6000613a96602783612f95565b9150613aa182613a3a565b604082019050919050565b60006020820190508181036000830152613ac581613a89565b9050919050565b7f4e487b7100000000000000000000000000000000000000000000000000000000600052601260045260246000fd5b6000613b0682612e09565b9150613b1183612e09565b925082613b2157613b20613acc565b5b828204905092915050565b7f556e697377617056323a20494e53554646494349454e545f4c4951554944495460008201527f595f4d494e544544000000000000000000000000000000000000000000000000602082015250565b6000613b88602883612f95565b9150613b9382613b2c565b604082019050919050565b60006020820190508181036000830152613bb781613b7b565b9050919050565b7f556e697377617056323a20494e53554646494349454e545f4c4951554944495460008201527f595f4255524e4544000000000000000000000000000000000000000000000000602082015250565b6000613c1a602883612f95565b9150613c2582613bbe565b604082019050919050565b60006020820190508181036000830152613c4981613c0d565b9050919050565b7f556e697377617056323a204f564552464c4f5700000000000000000000000000600082015250565b6000613c86601383612f95565b9150613c9182613c50565b602082019050919050565b60006020820190508181036000830152613cb581613c79565b9050919050565b6000613cc782613065565b9150613cd283613065565b9250828203905063ffffffff811115613cee57613ced613688565b5b92915050565b6000613cff8261303c565b9150613d0a8361303c565b9250828202613d188161303c565b9150808214613d2a57613d29613688565b5b5092915050565b6000613d3c8261303c565b9150613d478361303c565b925082613d5757613d56613acc565b5b828204905092915050565b6000613d6d82612e09565b9150613d7883612e09565b9250828201905080821115613d9057613d8f613688565b5b92915050565b6000604082019050613dab6000830185613056565b613db86020830184613056565b9392505050565b6000606082019050613dd46000830186613131565b613de1602083018561315b565b613dee604083018461315b565b94935050505056fea26469706673582212204f4953e66b19f1205e2d530b855bb567fe4180a99056f5ae2376bb19c053d4ec64736f6c634300081b0033a26469706673582212206c0f17675e3fcbb04971feafa0420f20aac4aa57b47b3bfed93a097929634fcb64736f6c634300081b0033","opcodes":"PUSH1 0xC0 PUSH1 0x40 MSTORE CALLVALUE DUP1 ISZERO PUSH2 0x10 JUMPI PUSH1 0x0 DUP1 REVERT JUMPDEST POP PUSH1 0x40 MLOAD PUSH2 0x7AC8 CODESIZE SUB DUP1 PUSH2 0x7AC8 DUP4 CODECOPY DUP2 DUP2 ADD PUSH1 0x40 MSTORE DUP2 ADD SWAP1 PUSH2 0x32 SWAP2 SWAP1 PUSH2 0x104 JUMP JUMPDEST DUP2 PUSH20 0xFFFFFFFFFFFFFFFFFFFFFFFFFFFFFFFFFFFFFFFF AND PUSH1 0x80 DUP2 PUSH20 0xFFFFFFFFFFFFFFFFFFFFFFFFFFFFFFFFFFFFFFFF AND DUP2 MSTORE POP POP DUP1 PUSH20 0xFFFFFFFFFFFFFFFFFFFFFFFFFFFFFFFFFFFFFFFF AND PUSH1 0xA0 DUP2 PUSH20 0xFFFFFFFFFFFFFFFFFFFFFFFFFFFFFFFFFFFFFFFF AND DUP2 MSTORE POP POP POP POP PUSH2 0x144 JUMP JUMPDEST PUSH1 0x0 DUP1 REVERT JUMPDEST PUSH1 0x0 PUSH20 0xFFFFFFFFFFFFFFFFFFFFFFFFFFFFFFFFFFFFFFFF DUP3 AND SWAP1 POP SWAP2 SWAP1 POP JUMP JUMPDEST PUSH1 0x0 PUSH2 0xD1 DUP3 PUSH2 0xA6 JUMP JUMPDEST SWAP1 POP SWAP2 SWAP1 POP JUMP JUMPDEST PUSH2 0xE1 DUP2 PUSH2 0xC6 JUMP JUMPDEST DUP2 EQ PUSH2 0xEC JUMPI PUSH1 0x0 DUP1 REVERT JUMPDEST POP JUMP JUMPDEST PUSH1 0x0 DUP2 MLOAD SWAP1 POP PUSH2 0xFE DUP2 PUSH2 0xD8 JUMP JUMPDEST SWAP3 SWAP2 POP POP JUMP JUMPDEST PUSH1 0x0 DUP1 PUSH1 0x40 DUP4 DUP6 SUB SLT ISZERO PUSH2 0x11B JUMPI PUSH2 0x11A PUSH2 0xA1 JUMP JUMPDEST JUMPDEST PUSH1 0x0 PUSH2 0x129 DUP6 DUP3 DUP7 ADD PUSH2 0xEF JUMP JUMPDEST SWAP3 POP POP PUSH1 0x20 PUSH2 0x13A DUP6 DUP3 DUP7 ADD PUSH2 0xEF JUMP JUMPDEST SWAP2 POP POP SWAP3 POP SWAP3 SWAP1 POP JUMP JUMPDEST PUSH1 0x80 MLOAD PUSH1 0xA0 MLOAD PUSH2 0x78BF PUSH2 0x209 PUSH1 0x0 CODECOPY PUSH1 0x0 DUP2 DUP2 PUSH1 0x86 ADD MSTORE DUP2 DUP2 PUSH2 0x2E4 ADD MSTORE DUP2 DUP2 PUSH2 0x396 ADD MSTORE DUP2 DUP2 PUSH2 0x727 ADD MSTORE DUP2 DUP2 PUSH2 0xDDA ADD MSTORE DUP2 DUP2 PUSH2 0xECC ADD MSTORE DUP2 DUP2 PUSH2 0xF54 ADD MSTORE DUP2 DUP2 PUSH2 0x1007 ADD MSTORE DUP2 DUP2 PUSH2 0x1088 ADD MSTORE DUP2 DUP2 PUSH2 0x1254 ADD MSTORE DUP2 DUP2 PUSH2 0x13D6 ADD MSTORE PUSH2 0x1472 ADD MSTORE PUSH1 0x0 DUP2 DUP2 PUSH2 0x4BD ADD MSTORE DUP2 DUP2 PUSH2 0x5DA ADD MSTORE DUP2 DUP2 PUSH2 0x794 ADD MSTORE DUP2 DUP2 PUSH2 0x9CA ADD MSTORE DUP2 DUP2 PUSH2 0xA39 ADD MSTORE DUP2 DUP2 PUSH2 0xB0B ADD MSTORE DUP2 DUP2 PUSH2 0xD9D ADD MSTORE DUP2 DUP2 PUSH2 0xE8F ADD MSTORE DUP2 DUP2 PUSH2 0x130D ADD MSTORE DUP2 DUP2 PUSH2 0x14B1 ADD MSTORE DUP2 DUP2 PUSH2 0x19B6 ADD MSTORE DUP2 DUP2 PUSH2 0x1A0A ADD MSTORE PUSH2 0x1B12 ADD MSTORE PUSH2 0x78BF PUSH1 0x0 RETURN INVALID PUSH1 0x80 PUSH1 0x40 MSTORE PUSH1 0x4 CALLDATASIZE LT PUSH2 0x7F JUMPI PUSH1 0x0 CALLDATALOAD PUSH1 0xE0 SHR DUP1 PUSH4 0xC45A0155 GT PUSH2 0x4E JUMPI DUP1 PUSH4 0xC45A0155 EQ PUSH2 0x1CB JUMPI DUP1 PUSH4 0xE8E33700 EQ PUSH2 0x1F6 JUMPI DUP1 PUSH4 0xF305D719 EQ PUSH2 0x235 JUMPI DUP1 PUSH4 0xFB3BDB41 EQ PUSH2 0x267 JUMPI PUSH2 0xE2 JUMP JUMPDEST DUP1 PUSH4 0x2751CEC EQ PUSH2 0xE7 JUMPI DUP1 PUSH4 0x38ED1739 EQ PUSH2 0x125 JUMPI DUP1 PUSH4 0xAD5C4648 EQ PUSH2 0x162 JUMPI DUP1 PUSH4 0xBAA2ABDE EQ PUSH2 0x18D JUMPI PUSH2 0xE2 JUMP JUMPDEST CALLDATASIZE PUSH2 0xE2 JUMPI PUSH32 0x0 PUSH20 0xFFFFFFFFFFFFFFFFFFFFFFFFFFFFFFFFFFFFFFFF AND CALLER PUSH20 0xFFFFFFFFFFFFFFFFFFFFFFFFFFFFFFFFFFFFFFFF AND EQ PUSH2 0xE0 JUMPI PUSH2 0xDF PUSH2 0x22FC JUMP JUMPDEST JUMPDEST STOP JUMPDEST PUSH1 0x0 DUP1 REVERT JUMPDEST CALLVALUE DUP1 ISZERO PUSH2 0xF3 JUMPI PUSH1 0x0 DUP1 REVERT JUMPDEST POP PUSH2 0x10E PUSH1 0x4 DUP1 CALLDATASIZE SUB DUP2 ADD SWAP1 PUSH2 0x109 SWAP2 SWAP1 PUSH2 0x23C9 JUMP JUMPDEST PUSH2 0x297 JUMP JUMPDEST PUSH1 0x40 MLOAD PUSH2 0x11C SWAP3 SWAP2 SWAP1 PUSH2 0x2465 JUMP JUMPDEST PUSH1 0x40 MLOAD DUP1 SWAP2 SUB SWAP1 RETURN JUMPDEST CALLVALUE DUP1 ISZERO PUSH2 0x131 JUMPI PUSH1 0x0 DUP1 REVERT JUMPDEST POP PUSH2 0x14C PUSH1 0x4 DUP1 CALLDATASIZE SUB DUP2 ADD SWAP1 PUSH2 0x147 SWAP2 SWAP1 PUSH2 0x24F3 JUMP JUMPDEST PUSH2 0x472 JUMP JUMPDEST PUSH1 0x40 MLOAD PUSH2 0x159 SWAP2 SWAP1 PUSH2 0x264B JUMP JUMPDEST PUSH1 0x40 MLOAD DUP1 SWAP2 SUB SWAP1 RETURN JUMPDEST CALLVALUE DUP1 ISZERO PUSH2 0x16E JUMPI PUSH1 0x0 DUP1 REVERT JUMPDEST POP PUSH2 0x177 PUSH2 0x725 JUMP JUMPDEST PUSH1 0x40 MLOAD PUSH2 0x184 SWAP2 SWAP1 PUSH2 0x267C JUMP JUMPDEST PUSH1 0x40 MLOAD DUP1 SWAP2 SUB SWAP1 RETURN JUMPDEST CALLVALUE DUP1 ISZERO PUSH2 0x199 JUMPI PUSH1 0x0 DUP1 REVERT JUMPDEST POP PUSH2 0x1B4 PUSH1 0x4 DUP1 CALLDATASIZE SUB DUP2 ADD SWAP1 PUSH2 0x1AF SWAP2 SWAP1 PUSH2 0x2697 JUMP JUMPDEST PUSH2 0x749 JUMP JUMPDEST PUSH1 0x40 MLOAD PUSH2 0x1C2 SWAP3 SWAP2 SWAP1 PUSH2 0x2465 JUMP JUMPDEST PUSH1 0x40 MLOAD DUP1 SWAP2 SUB SWAP1 RETURN JUMPDEST CALLVALUE DUP1 ISZERO PUSH2 0x1D7 JUMPI PUSH1 0x0 DUP1 REVERT JUMPDEST POP PUSH2 0x1E0 PUSH2 0x9C8 JUMP JUMPDEST PUSH1 0x40 MLOAD PUSH2 0x1ED SWAP2 SWAP1 PUSH2 0x267C JUMP JUMPDEST PUSH1 0x40 MLOAD DUP1 SWAP2 SUB SWAP1 RETURN JUMPDEST CALLVALUE DUP1 ISZERO PUSH2 0x202 JUMPI PUSH1 0x0 DUP1 REVERT JUMPDEST POP PUSH2 0x21D PUSH1 0x4 DUP1 CALLDATASIZE SUB DUP2 ADD SWAP1 PUSH2 0x218 SWAP2 SWAP1 PUSH2 0x2739 JUMP JUMPDEST PUSH2 0x9EC JUMP JUMPDEST PUSH1 0x40 MLOAD PUSH2 0x22C SWAP4 SWAP3 SWAP2 SWAP1 PUSH2 0x27EF JUMP JUMPDEST PUSH1 0x40 MLOAD DUP1 SWAP2 SUB SWAP1 RETURN JUMPDEST PUSH2 0x24F PUSH1 0x4 DUP1 CALLDATASIZE SUB DUP2 ADD SWAP1 PUSH2 0x24A SWAP2 SWAP1 PUSH2 0x23C9 JUMP JUMPDEST PUSH2 0xD50 JUMP JUMPDEST PUSH1 0x40 MLOAD PUSH2 0x25E SWAP4 SWAP3 SWAP2 SWAP1 PUSH2 0x27EF JUMP JUMPDEST PUSH1 0x40 MLOAD DUP1 SWAP2 SUB SWAP1 RETURN JUMPDEST PUSH2 0x281 PUSH1 0x4 DUP1 CALLDATASIZE SUB DUP2 ADD SWAP1 PUSH2 0x27C SWAP2 SWAP1 PUSH2 0x2826 JUMP JUMPDEST PUSH2 0x120C JUMP JUMPDEST PUSH1 0x40 MLOAD PUSH2 0x28E SWAP2 SWAP1 PUSH2 0x264B JUMP JUMPDEST PUSH1 0x40 MLOAD DUP1 SWAP2 SUB SWAP1 RETURN JUMPDEST PUSH1 0x0 DUP1 DUP3 TIMESTAMP DUP2 LT ISZERO PUSH2 0x2DE JUMPI PUSH1 0x40 MLOAD PUSH32 0x8C379A000000000000000000000000000000000000000000000000000000000 DUP2 MSTORE PUSH1 0x4 ADD PUSH2 0x2D5 SWAP1 PUSH2 0x290B JUMP JUMPDEST PUSH1 0x40 MLOAD DUP1 SWAP2 SUB SWAP1 REVERT JUMPDEST PUSH2 0x30D DUP10 PUSH32 0x0 DUP11 DUP11 DUP11 ADDRESS DUP11 PUSH2 0x749 JUMP JUMPDEST DUP1 SWAP4 POP DUP2 SWAP5 POP POP POP DUP9 PUSH20 0xFFFFFFFFFFFFFFFFFFFFFFFFFFFFFFFFFFFFFFFF AND PUSH4 0xA9059CBB DUP7 DUP6 PUSH1 0x40 MLOAD DUP4 PUSH4 0xFFFFFFFF AND PUSH1 0xE0 SHL DUP2 MSTORE PUSH1 0x4 ADD PUSH2 0x350 SWAP3 SWAP2 SWAP1 PUSH2 0x292B JUMP JUMPDEST PUSH1 0x20 PUSH1 0x40 MLOAD DUP1 DUP4 SUB DUP2 PUSH1 0x0 DUP8 GAS CALL ISZERO DUP1 ISZERO PUSH2 0x36F JUMPI RETURNDATASIZE PUSH1 0x0 DUP1 RETURNDATACOPY RETURNDATASIZE PUSH1 0x0 REVERT JUMPDEST POP POP POP POP PUSH1 0x40 MLOAD RETURNDATASIZE PUSH1 0x1F NOT PUSH1 0x1F DUP3 ADD AND DUP3 ADD DUP1 PUSH1 0x40 MSTORE POP DUP2 ADD SWAP1 PUSH2 0x393 SWAP2 SWAP1 PUSH2 0x298C JUMP JUMPDEST POP PUSH32 0x0 PUSH20 0xFFFFFFFFFFFFFFFFFFFFFFFFFFFFFFFFFFFFFFFF AND PUSH4 0x2E1A7D4D DUP4 PUSH1 0x40 MLOAD DUP3 PUSH4 0xFFFFFFFF AND PUSH1 0xE0 SHL DUP2 MSTORE PUSH1 0x4 ADD PUSH2 0x3ED SWAP2 SWAP1 PUSH2 0x29B9 JUMP JUMPDEST PUSH1 0x0 PUSH1 0x40 MLOAD DUP1 DUP4 SUB DUP2 PUSH1 0x0 DUP8 DUP1 EXTCODESIZE ISZERO DUP1 ISZERO PUSH2 0x407 JUMPI PUSH1 0x0 DUP1 REVERT JUMPDEST POP GAS CALL ISZERO DUP1 ISZERO PUSH2 0x41B JUMPI RETURNDATASIZE PUSH1 0x0 DUP1 RETURNDATACOPY RETURNDATASIZE PUSH1 0x0 REVERT JUMPDEST POP POP POP POP DUP5 PUSH20 0xFFFFFFFFFFFFFFFFFFFFFFFFFFFFFFFFFFFFFFFF AND PUSH2 0x8FC DUP4 SWAP1 DUP2 ISZERO MUL SWAP1 PUSH1 0x40 MLOAD PUSH1 0x0 PUSH1 0x40 MLOAD DUP1 DUP4 SUB DUP2 DUP6 DUP9 DUP9 CALL SWAP4 POP POP POP POP ISZERO DUP1 ISZERO PUSH2 0x465 JUMPI RETURNDATASIZE PUSH1 0x0 DUP1 RETURNDATACOPY RETURNDATASIZE PUSH1 0x0 REVERT JUMPDEST POP POP SWAP7 POP SWAP7 SWAP5 POP POP POP POP POP JUMP JUMPDEST PUSH1 0x60 DUP2 TIMESTAMP DUP2 LT ISZERO PUSH2 0x4B8 JUMPI PUSH1 0x40 MLOAD PUSH32 0x8C379A000000000000000000000000000000000000000000000000000000000 DUP2 MSTORE PUSH1 0x4 ADD PUSH2 0x4AF SWAP1 PUSH2 0x290B JUMP JUMPDEST PUSH1 0x40 MLOAD DUP1 SWAP2 SUB SWAP1 REVERT JUMPDEST PUSH2 0x524 PUSH32 0x0 DUP10 DUP9 DUP9 DUP1 DUP1 PUSH1 0x20 MUL PUSH1 0x20 ADD PUSH1 0x40 MLOAD SWAP1 DUP2 ADD PUSH1 0x40 MSTORE DUP1 SWAP4 SWAP3 SWAP2 SWAP1 DUP2 DUP2 MSTORE PUSH1 0x20 ADD DUP4 DUP4 PUSH1 0x20 MUL DUP1 DUP3 DUP5 CALLDATACOPY PUSH1 0x0 DUP2 DUP5 ADD MSTORE PUSH1 0x1F NOT PUSH1 0x1F DUP3 ADD AND SWAP1 POP DUP1 DUP4 ADD SWAP3 POP POP POP POP POP POP POP PUSH2 0x168B JUMP JUMPDEST SWAP2 POP DUP7 DUP3 PUSH1 0x1 DUP5 MLOAD PUSH2 0x536 SWAP2 SWAP1 PUSH2 0x2A03 JUMP JUMPDEST DUP2 MLOAD DUP2 LT PUSH2 0x547 JUMPI PUSH2 0x546 PUSH2 0x2A37 JUMP JUMPDEST JUMPDEST PUSH1 0x20 MUL PUSH1 0x20 ADD ADD MLOAD LT ISZERO PUSH2 0x590 JUMPI PUSH1 0x40 MLOAD PUSH32 0x8C379A000000000000000000000000000000000000000000000000000000000 DUP2 MSTORE PUSH1 0x4 ADD PUSH2 0x587 SWAP1 PUSH2 0x2AD8 JUMP JUMPDEST PUSH1 0x40 MLOAD DUP1 SWAP2 SUB SWAP1 REVERT JUMPDEST DUP6 DUP6 PUSH1 0x0 DUP2 DUP2 LT PUSH2 0x5A4 JUMPI PUSH2 0x5A3 PUSH2 0x2A37 JUMP JUMPDEST JUMPDEST SWAP1 POP PUSH1 0x20 MUL ADD PUSH1 0x20 DUP2 ADD SWAP1 PUSH2 0x5B9 SWAP2 SWAP1 PUSH2 0x2AF8 JUMP JUMPDEST PUSH20 0xFFFFFFFFFFFFFFFFFFFFFFFFFFFFFFFFFFFFFFFF AND PUSH4 0x23B872DD CALLER PUSH2 0x650 PUSH32 0x0 DUP11 DUP11 PUSH1 0x0 DUP2 DUP2 LT PUSH2 0x60D JUMPI PUSH2 0x60C PUSH2 0x2A37 JUMP JUMPDEST JUMPDEST SWAP1 POP PUSH1 0x20 MUL ADD PUSH1 0x20 DUP2 ADD SWAP1 PUSH2 0x622 SWAP2 SWAP1 PUSH2 0x2AF8 JUMP JUMPDEST DUP12 DUP12 PUSH1 0x1 DUP2 DUP2 LT PUSH2 0x636 JUMPI PUSH2 0x635 PUSH2 0x2A37 JUMP JUMPDEST JUMPDEST SWAP1 POP PUSH1 0x20 MUL ADD PUSH1 0x20 DUP2 ADD SWAP1 PUSH2 0x64B SWAP2 SWAP1 PUSH2 0x2AF8 JUMP JUMPDEST PUSH2 0x1810 JUMP JUMPDEST DUP6 PUSH1 0x0 DUP2 MLOAD DUP2 LT PUSH2 0x664 JUMPI PUSH2 0x663 PUSH2 0x2A37 JUMP JUMPDEST JUMPDEST PUSH1 0x20 MUL PUSH1 0x20 ADD ADD MLOAD PUSH1 0x40 MLOAD DUP5 PUSH4 0xFFFFFFFF AND PUSH1 0xE0 SHL DUP2 MSTORE PUSH1 0x4 ADD PUSH2 0x68A SWAP4 SWAP3 SWAP2 SWAP1 PUSH2 0x2B25 JUMP JUMPDEST PUSH1 0x20 PUSH1 0x40 MLOAD DUP1 DUP4 SUB DUP2 PUSH1 0x0 DUP8 GAS CALL ISZERO DUP1 ISZERO PUSH2 0x6A9 JUMPI RETURNDATASIZE PUSH1 0x0 DUP1 RETURNDATACOPY RETURNDATASIZE PUSH1 0x0 REVERT JUMPDEST POP POP POP POP PUSH1 0x40 MLOAD RETURNDATASIZE PUSH1 0x1F NOT PUSH1 0x1F DUP3 ADD AND DUP3 ADD DUP1 PUSH1 0x40 MSTORE POP DUP2 ADD SWAP1 PUSH2 0x6CD SWAP2 SWAP1 PUSH2 0x298C JUMP JUMPDEST POP PUSH2 0x71A DUP3 DUP8 DUP8 DUP1 DUP1 PUSH1 0x20 MUL PUSH1 0x20 ADD PUSH1 0x40 MLOAD SWAP1 DUP2 ADD PUSH1 0x40 MSTORE DUP1 SWAP4 SWAP3 SWAP2 SWAP1 DUP2 DUP2 MSTORE PUSH1 0x20 ADD DUP4 DUP4 PUSH1 0x20 MUL DUP1 DUP3 DUP5 CALLDATACOPY PUSH1 0x0 DUP2 DUP5 ADD MSTORE PUSH1 0x1F NOT PUSH1 0x1F DUP3 ADD AND SWAP1 POP DUP1 DUP4 ADD SWAP3 POP POP POP POP POP POP POP DUP7 PUSH2 0x18B4 JUMP JUMPDEST POP SWAP7 SWAP6 POP POP POP POP POP POP JUMP JUMPDEST PUSH32 0x0 DUP2 JUMP JUMPDEST PUSH1 0x0 DUP1 DUP3 TIMESTAMP DUP2 LT ISZERO PUSH2 0x790 JUMPI PUSH1 0x40 MLOAD PUSH32 0x8C379A000000000000000000000000000000000000000000000000000000000 DUP2 MSTORE PUSH1 0x4 ADD PUSH2 0x787 SWAP1 PUSH2 0x290B JUMP JUMPDEST PUSH1 0x40 MLOAD DUP1 SWAP2 SUB SWAP1 REVERT JUMPDEST PUSH1 0x0 PUSH32 0x0 PUSH20 0xFFFFFFFFFFFFFFFFFFFFFFFFFFFFFFFFFFFFFFFF AND PUSH4 0xE6A43905 DUP13 DUP13 PUSH1 0x40 MLOAD DUP4 PUSH4 0xFFFFFFFF AND PUSH1 0xE0 SHL DUP2 MSTORE PUSH1 0x4 ADD PUSH2 0x7ED SWAP3 SWAP2 SWAP1 PUSH2 0x2B5C JUMP JUMPDEST PUSH1 0x20 PUSH1 0x40 MLOAD DUP1 DUP4 SUB DUP2 DUP7 GAS STATICCALL ISZERO DUP1 ISZERO PUSH2 0x80A JUMPI RETURNDATASIZE PUSH1 0x0 DUP1 RETURNDATACOPY RETURNDATASIZE PUSH1 0x0 REVERT JUMPDEST POP POP POP POP PUSH1 0x40 MLOAD RETURNDATASIZE PUSH1 0x1F NOT PUSH1 0x1F DUP3 ADD AND DUP3 ADD DUP1 PUSH1 0x40 MSTORE POP DUP2 ADD SWAP1 PUSH2 0x82E SWAP2 SWAP1 PUSH2 0x2B9A JUMP JUMPDEST SWAP1 POP DUP1 PUSH20 0xFFFFFFFFFFFFFFFFFFFFFFFFFFFFFFFFFFFFFFFF AND PUSH4 0x23B872DD CALLER DUP4 DUP13 PUSH1 0x40 MLOAD DUP5 PUSH4 0xFFFFFFFF AND PUSH1 0xE0 SHL DUP2 MSTORE PUSH1 0x4 ADD PUSH2 0x86D SWAP4 SWAP3 SWAP2 SWAP1 PUSH2 0x2B25 JUMP JUMPDEST PUSH1 0x20 PUSH1 0x40 MLOAD DUP1 DUP4 SUB DUP2 PUSH1 0x0 DUP8 GAS CALL ISZERO DUP1 ISZERO PUSH2 0x88C JUMPI RETURNDATASIZE PUSH1 0x0 DUP1 RETURNDATACOPY RETURNDATASIZE PUSH1 0x0 REVERT JUMPDEST POP POP POP POP PUSH1 0x40 MLOAD RETURNDATASIZE PUSH1 0x1F NOT PUSH1 0x1F DUP3 ADD AND DUP3 ADD DUP1 PUSH1 0x40 MSTORE POP DUP2 ADD SWAP1 PUSH2 0x8B0 SWAP2 SWAP1 PUSH2 0x298C JUMP JUMPDEST POP DUP1 PUSH20 0xFFFFFFFFFFFFFFFFFFFFFFFFFFFFFFFFFFFFFFFF AND PUSH4 0x89AFCB44 DUP8 PUSH1 0x40 MLOAD DUP3 PUSH4 0xFFFFFFFF AND PUSH1 0xE0 SHL DUP2 MSTORE PUSH1 0x4 ADD PUSH2 0x8EA SWAP2 SWAP1 PUSH2 0x267C JUMP JUMPDEST PUSH1 0x40 DUP1 MLOAD DUP1 DUP4 SUB DUP2 PUSH1 0x0 DUP8 GAS CALL ISZERO DUP1 ISZERO PUSH2 0x908 JUMPI RETURNDATASIZE PUSH1 0x0 DUP1 RETURNDATACOPY RETURNDATASIZE PUSH1 0x0 REVERT JUMPDEST POP POP POP POP PUSH1 0x40 MLOAD RETURNDATASIZE PUSH1 0x1F NOT PUSH1 0x1F DUP3 ADD AND DUP3 ADD DUP1 PUSH1 0x40 MSTORE POP DUP2 ADD SWAP1 PUSH2 0x92C SWAP2 SWAP1 PUSH2 0x2BDC JUMP JUMPDEST DUP1 SWAP5 POP DUP2 SWAP6 POP POP POP DUP8 DUP5 LT ISZERO PUSH2 0x977 JUMPI PUSH1 0x40 MLOAD PUSH32 0x8C379A000000000000000000000000000000000000000000000000000000000 DUP2 MSTORE PUSH1 0x4 ADD PUSH2 0x96E SWAP1 PUSH2 0x2C8E JUMP JUMPDEST PUSH1 0x40 MLOAD DUP1 SWAP2 SUB SWAP1 REVERT JUMPDEST DUP7 DUP4 LT ISZERO PUSH2 0x9BA JUMPI PUSH1 0x40 MLOAD PUSH32 0x8C379A000000000000000000000000000000000000000000000000000000000 DUP2 MSTORE PUSH1 0x4 ADD PUSH2 0x9B1 SWAP1 PUSH2 0x2D20 JUMP JUMPDEST PUSH1 0x40 MLOAD DUP1 SWAP2 SUB SWAP1 REVERT JUMPDEST POP POP SWAP8 POP SWAP8 SWAP6 POP POP POP POP POP POP JUMP JUMPDEST PUSH32 0x0 DUP2 JUMP JUMPDEST PUSH1 0x0 DUP1 PUSH1 0x0 DUP4 TIMESTAMP DUP2 LT ISZERO PUSH2 0xA35 JUMPI PUSH1 0x40 MLOAD PUSH32 0x8C379A000000000000000000000000000000000000000000000000000000000 DUP2 MSTORE PUSH1 0x4 ADD PUSH2 0xA2C SWAP1 PUSH2 0x290B JUMP JUMPDEST PUSH1 0x40 MLOAD DUP1 SWAP2 SUB SWAP1 REVERT JUMPDEST PUSH1 0x0 PUSH32 0x0 PUSH20 0xFFFFFFFFFFFFFFFFFFFFFFFFFFFFFFFFFFFFFFFF AND PUSH4 0xE6A43905 DUP15 DUP15 PUSH1 0x40 MLOAD DUP4 PUSH4 0xFFFFFFFF AND PUSH1 0xE0 SHL DUP2 MSTORE PUSH1 0x4 ADD PUSH2 0xA92 SWAP3 SWAP2 SWAP1 PUSH2 0x2B5C JUMP JUMPDEST PUSH1 0x20 PUSH1 0x40 MLOAD DUP1 DUP4 SUB DUP2 DUP7 GAS STATICCALL ISZERO DUP1 ISZERO PUSH2 0xAAF JUMPI RETURNDATASIZE PUSH1 0x0 DUP1 RETURNDATACOPY RETURNDATASIZE PUSH1 0x0 REVERT JUMPDEST POP POP POP POP PUSH1 0x40 MLOAD RETURNDATASIZE PUSH1 0x1F NOT PUSH1 0x1F DUP3 ADD AND DUP3 ADD DUP1 PUSH1 0x40 MSTORE POP DUP2 ADD SWAP1 PUSH2 0xAD3 SWAP2 SWAP1 PUSH2 0x2B9A JUMP JUMPDEST SWAP1 POP PUSH1 0x0 PUSH20 0xFFFFFFFFFFFFFFFFFFFFFFFFFFFFFFFFFFFFFFFF AND DUP2 PUSH20 0xFFFFFFFFFFFFFFFFFFFFFFFFFFFFFFFFFFFFFFFF AND SUB PUSH2 0xBAA JUMPI PUSH32 0x0 PUSH20 0xFFFFFFFFFFFFFFFFFFFFFFFFFFFFFFFFFFFFFFFF AND PUSH4 0xC9C65396 DUP15 DUP15 PUSH1 0x40 MLOAD DUP4 PUSH4 0xFFFFFFFF AND PUSH1 0xE0 SHL DUP2 MSTORE PUSH1 0x4 ADD PUSH2 0xB64 SWAP3 SWAP2 SWAP1 PUSH2 0x2B5C JUMP JUMPDEST PUSH1 0x20 PUSH1 0x40 MLOAD DUP1 DUP4 SUB DUP2 PUSH1 0x0 DUP8 GAS CALL ISZERO DUP1 ISZERO PUSH2 0xB83 JUMPI RETURNDATASIZE PUSH1 0x0 DUP1 RETURNDATACOPY RETURNDATASIZE PUSH1 0x0 REVERT JUMPDEST POP POP POP POP PUSH1 0x40 MLOAD RETURNDATASIZE PUSH1 0x1F NOT PUSH1 0x1F DUP3 ADD AND DUP3 ADD DUP1 PUSH1 0x40 MSTORE POP DUP2 ADD SWAP1 PUSH2 0xBA7 SWAP2 SWAP1 PUSH2 0x2B9A JUMP JUMPDEST SWAP1 POP JUMPDEST PUSH2 0xBB8 DUP14 DUP14 DUP14 DUP14 DUP14 DUP14 PUSH2 0x1B07 JUMP JUMPDEST DUP1 SWAP6 POP DUP2 SWAP7 POP POP POP DUP13 PUSH20 0xFFFFFFFFFFFFFFFFFFFFFFFFFFFFFFFFFFFFFFFF AND PUSH4 0x23B872DD CALLER DUP4 DUP9 PUSH1 0x40 MLOAD DUP5 PUSH4 0xFFFFFFFF AND PUSH1 0xE0 SHL DUP2 MSTORE PUSH1 0x4 ADD PUSH2 0xBFD SWAP4 SWAP3 SWAP2 SWAP1 PUSH2 0x2B25 JUMP JUMPDEST PUSH1 0x20 PUSH1 0x40 MLOAD DUP1 DUP4 SUB DUP2 PUSH1 0x0 DUP8 GAS CALL ISZERO DUP1 ISZERO PUSH2 0xC1C JUMPI RETURNDATASIZE PUSH1 0x0 DUP1 RETURNDATACOPY RETURNDATASIZE PUSH1 0x0 REVERT JUMPDEST POP POP POP POP PUSH1 0x40 MLOAD RETURNDATASIZE PUSH1 0x1F NOT PUSH1 0x1F DUP3 ADD AND DUP3 ADD DUP1 PUSH1 0x40 MSTORE POP DUP2 ADD SWAP1 PUSH2 0xC40 SWAP2 SWAP1 PUSH2 0x298C JUMP JUMPDEST POP DUP12 PUSH20 0xFFFFFFFFFFFFFFFFFFFFFFFFFFFFFFFFFFFFFFFF AND PUSH4 0x23B872DD CALLER DUP4 DUP8 PUSH1 0x40 MLOAD DUP5 PUSH4 0xFFFFFFFF AND PUSH1 0xE0 SHL DUP2 MSTORE PUSH1 0x4 ADD PUSH2 0xC7E SWAP4 SWAP3 SWAP2 SWAP1 PUSH2 0x2B25 JUMP JUMPDEST PUSH1 0x20 PUSH1 0x40 MLOAD DUP1 DUP4 SUB DUP2 PUSH1 0x0 DUP8 GAS CALL ISZERO DUP1 ISZERO PUSH2 0xC9D JUMPI RETURNDATASIZE PUSH1 0x0 DUP1 RETURNDATACOPY RETURNDATASIZE PUSH1 0x0 REVERT JUMPDEST POP POP POP POP PUSH1 0x40 MLOAD RETURNDATASIZE PUSH1 0x1F NOT PUSH1 0x1F DUP3 ADD AND DUP3 ADD DUP1 PUSH1 0x40 MSTORE POP DUP2 ADD SWAP1 PUSH2 0xCC1 SWAP2 SWAP1 PUSH2 0x298C JUMP JUMPDEST POP DUP1 PUSH20 0xFFFFFFFFFFFFFFFFFFFFFFFFFFFFFFFFFFFFFFFF AND PUSH4 0x6A627842 DUP9 PUSH1 0x40 MLOAD DUP3 PUSH4 0xFFFFFFFF AND PUSH1 0xE0 SHL DUP2 MSTORE PUSH1 0x4 ADD PUSH2 0xCFB SWAP2 SWAP1 PUSH2 0x267C JUMP JUMPDEST PUSH1 0x20 PUSH1 0x40 MLOAD DUP1 DUP4 SUB DUP2 PUSH1 0x0 DUP8 GAS CALL ISZERO DUP1 ISZERO PUSH2 0xD1A JUMPI RETURNDATASIZE PUSH1 0x0 DUP1 RETURNDATACOPY RETURNDATASIZE PUSH1 0x0 REVERT JUMPDEST POP POP POP POP PUSH1 0x40 MLOAD RETURNDATASIZE PUSH1 0x1F NOT PUSH1 0x1F DUP3 ADD AND DUP3 ADD DUP1 PUSH1 0x40 MSTORE POP DUP2 ADD SWAP1 PUSH2 0xD3E SWAP2 SWAP1 PUSH2 0x2D40 JUMP JUMPDEST SWAP3 POP POP POP SWAP9 POP SWAP9 POP SWAP9 SWAP6 POP POP POP POP POP POP JUMP JUMPDEST PUSH1 0x0 DUP1 PUSH1 0x0 DUP4 TIMESTAMP DUP2 LT ISZERO PUSH2 0xD99 JUMPI PUSH1 0x40 MLOAD PUSH32 0x8C379A000000000000000000000000000000000000000000000000000000000 DUP2 MSTORE PUSH1 0x4 ADD PUSH2 0xD90 SWAP1 PUSH2 0x290B JUMP JUMPDEST PUSH1 0x40 MLOAD DUP1 SWAP2 SUB SWAP1 REVERT JUMPDEST PUSH1 0x0 PUSH32 0x0 PUSH20 0xFFFFFFFFFFFFFFFFFFFFFFFFFFFFFFFFFFFFFFFF AND PUSH4 0xE6A43905 DUP13 PUSH32 0x0 PUSH1 0x40 MLOAD DUP4 PUSH4 0xFFFFFFFF AND PUSH1 0xE0 SHL DUP2 MSTORE PUSH1 0x4 ADD PUSH2 0xE16 SWAP3 SWAP2 SWAP1 PUSH2 0x2B5C JUMP JUMPDEST PUSH1 0x20 PUSH1 0x40 MLOAD DUP1 DUP4 SUB DUP2 DUP7 GAS STATICCALL ISZERO DUP1 ISZERO PUSH2 0xE33 JUMPI RETURNDATASIZE PUSH1 0x0 DUP1 RETURNDATACOPY RETURNDATASIZE PUSH1 0x0 REVERT JUMPDEST POP POP POP POP PUSH1 0x40 MLOAD RETURNDATASIZE PUSH1 0x1F NOT PUSH1 0x1F DUP3 ADD AND DUP3 ADD DUP1 PUSH1 0x40 MSTORE POP DUP2 ADD SWAP1 PUSH2 0xE57 SWAP2 SWAP1 PUSH2 0x2B9A JUMP JUMPDEST SWAP1 POP PUSH1 0x0 PUSH20 0xFFFFFFFFFFFFFFFFFFFFFFFFFFFFFFFFFFFFFFFF AND DUP2 PUSH20 0xFFFFFFFFFFFFFFFFFFFFFFFFFFFFFFFFFFFFFFFF AND SUB PUSH2 0xF4E JUMPI PUSH32 0x0 PUSH20 0xFFFFFFFFFFFFFFFFFFFFFFFFFFFFFFFFFFFFFFFF AND PUSH4 0xC9C65396 DUP13 PUSH32 0x0 PUSH1 0x40 MLOAD DUP4 PUSH4 0xFFFFFFFF AND PUSH1 0xE0 SHL DUP2 MSTORE PUSH1 0x4 ADD PUSH2 0xF08 SWAP3 SWAP2 SWAP1 PUSH2 0x2B5C JUMP JUMPDEST PUSH1 0x20 PUSH1 0x40 MLOAD DUP1 DUP4 SUB DUP2 PUSH1 0x0 DUP8 GAS CALL ISZERO DUP1 ISZERO PUSH2 0xF27 JUMPI RETURNDATASIZE PUSH1 0x0 DUP1 RETURNDATACOPY RETURNDATASIZE PUSH1 0x0 REVERT JUMPDEST POP POP POP POP PUSH1 0x40 MLOAD RETURNDATASIZE PUSH1 0x1F NOT PUSH1 0x1F DUP3 ADD AND DUP3 ADD DUP1 PUSH1 0x40 MSTORE POP DUP2 ADD SWAP1 PUSH2 0xF4B SWAP2 SWAP1 PUSH2 0x2B9A JUMP JUMPDEST SWAP1 POP JUMPDEST PUSH2 0xF7C DUP12 PUSH32 0x0 DUP13 CALLVALUE DUP14 DUP14 PUSH2 0x1B07 JUMP JUMPDEST DUP1 SWAP6 POP DUP2 SWAP7 POP POP POP DUP11 PUSH20 0xFFFFFFFFFFFFFFFFFFFFFFFFFFFFFFFFFFFFFFFF AND PUSH4 0x23B872DD CALLER DUP4 DUP9 PUSH1 0x40 MLOAD DUP5 PUSH4 0xFFFFFFFF AND PUSH1 0xE0 SHL DUP2 MSTORE PUSH1 0x4 ADD PUSH2 0xFC1 SWAP4 SWAP3 SWAP2 SWAP1 PUSH2 0x2B25 JUMP JUMPDEST PUSH1 0x20 PUSH1 0x40 MLOAD DUP1 DUP4 SUB DUP2 PUSH1 0x0 DUP8 GAS CALL ISZERO DUP1 ISZERO PUSH2 0xFE0 JUMPI RETURNDATASIZE PUSH1 0x0 DUP1 RETURNDATACOPY RETURNDATASIZE PUSH1 0x0 REVERT JUMPDEST POP POP POP POP PUSH1 0x40 MLOAD RETURNDATASIZE PUSH1 0x1F NOT PUSH1 0x1F DUP3 ADD AND DUP3 ADD DUP1 PUSH1 0x40 MSTORE POP DUP2 ADD SWAP1 PUSH2 0x1004 SWAP2 SWAP1 PUSH2 0x298C JUMP JUMPDEST POP PUSH32 0x0 PUSH20 0xFFFFFFFFFFFFFFFFFFFFFFFFFFFFFFFFFFFFFFFF AND PUSH4 0xD0E30DB0 DUP6 PUSH1 0x40 MLOAD DUP3 PUSH4 0xFFFFFFFF AND PUSH1 0xE0 SHL DUP2 MSTORE PUSH1 0x4 ADD PUSH1 0x0 PUSH1 0x40 MLOAD DUP1 DUP4 SUB DUP2 DUP6 DUP9 DUP1 EXTCODESIZE ISZERO DUP1 ISZERO PUSH2 0x106D JUMPI PUSH1 0x0 DUP1 REVERT JUMPDEST POP GAS CALL ISZERO DUP1 ISZERO PUSH2 0x1081 JUMPI RETURNDATASIZE PUSH1 0x0 DUP1 RETURNDATACOPY RETURNDATASIZE PUSH1 0x0 REVERT JUMPDEST POP POP POP POP POP PUSH32 0x0 PUSH20 0xFFFFFFFFFFFFFFFFFFFFFFFFFFFFFFFFFFFFFFFF AND PUSH4 0xA9059CBB DUP3 DUP7 PUSH1 0x40 MLOAD DUP4 PUSH4 0xFFFFFFFF AND PUSH1 0xE0 SHL DUP2 MSTORE PUSH1 0x4 ADD PUSH2 0x10E1 SWAP3 SWAP2 SWAP1 PUSH2 0x292B JUMP JUMPDEST PUSH1 0x20 PUSH1 0x40 MLOAD DUP1 DUP4 SUB DUP2 PUSH1 0x0 DUP8 GAS CALL ISZERO DUP1 ISZERO PUSH2 0x1100 JUMPI RETURNDATASIZE PUSH1 0x0 DUP1 RETURNDATACOPY RETURNDATASIZE PUSH1 0x0 REVERT JUMPDEST POP POP POP POP PUSH1 0x40 MLOAD RETURNDATASIZE PUSH1 0x1F NOT PUSH1 0x1F DUP3 ADD AND DUP3 ADD DUP1 PUSH1 0x40 MSTORE POP DUP2 ADD SWAP1 PUSH2 0x1124 SWAP2 SWAP1 PUSH2 0x298C JUMP JUMPDEST POP DUP1 PUSH20 0xFFFFFFFFFFFFFFFFFFFFFFFFFFFFFFFFFFFFFFFF AND PUSH4 0x6A627842 DUP9 PUSH1 0x40 MLOAD DUP3 PUSH4 0xFFFFFFFF AND PUSH1 0xE0 SHL DUP2 MSTORE PUSH1 0x4 ADD PUSH2 0x115E SWAP2 SWAP1 PUSH2 0x267C JUMP JUMPDEST PUSH1 0x20 PUSH1 0x40 MLOAD DUP1 DUP4 SUB DUP2 PUSH1 0x0 DUP8 GAS CALL ISZERO DUP1 ISZERO PUSH2 0x117D JUMPI RETURNDATASIZE PUSH1 0x0 DUP1 RETURNDATACOPY RETURNDATASIZE PUSH1 0x0 REVERT JUMPDEST POP POP POP POP PUSH1 0x40 MLOAD RETURNDATASIZE PUSH1 0x1F NOT PUSH1 0x1F DUP3 ADD AND DUP3 ADD DUP1 PUSH1 0x40 MSTORE POP DUP2 ADD SWAP1 PUSH2 0x11A1 SWAP2 SWAP1 PUSH2 0x2D40 JUMP JUMPDEST SWAP3 POP DUP4 CALLVALUE GT ISZERO PUSH2 0x11FE JUMPI CALLER PUSH20 0xFFFFFFFFFFFFFFFFFFFFFFFFFFFFFFFFFFFFFFFF AND PUSH2 0x8FC DUP6 CALLVALUE PUSH2 0x11D1 SWAP2 SWAP1 PUSH2 0x2A03 JUMP JUMPDEST SWAP1 DUP2 ISZERO MUL SWAP1 PUSH1 0x40 MLOAD PUSH1 0x0 PUSH1 0x40 MLOAD DUP1 DUP4 SUB DUP2 DUP6 DUP9 DUP9 CALL SWAP4 POP POP POP POP ISZERO DUP1 ISZERO PUSH2 0x11FC JUMPI RETURNDATASIZE PUSH1 0x0 DUP1 RETURNDATACOPY RETURNDATASIZE PUSH1 0x0 REVERT JUMPDEST POP JUMPDEST POP POP SWAP7 POP SWAP7 POP SWAP7 SWAP4 POP POP POP POP JUMP JUMPDEST PUSH1 0x60 DUP2 TIMESTAMP DUP2 LT ISZERO PUSH2 0x1252 JUMPI PUSH1 0x40 MLOAD PUSH32 0x8C379A000000000000000000000000000000000000000000000000000000000 DUP2 MSTORE PUSH1 0x4 ADD PUSH2 0x1249 SWAP1 PUSH2 0x290B JUMP JUMPDEST PUSH1 0x40 MLOAD DUP1 SWAP2 SUB SWAP1 REVERT JUMPDEST PUSH32 0x0 PUSH20 0xFFFFFFFFFFFFFFFFFFFFFFFFFFFFFFFFFFFFFFFF AND DUP7 DUP7 PUSH1 0x0 DUP2 DUP2 LT PUSH2 0x129D JUMPI PUSH2 0x129C PUSH2 0x2A37 JUMP JUMPDEST JUMPDEST SWAP1 POP PUSH1 0x20 MUL ADD PUSH1 0x20 DUP2 ADD SWAP1 PUSH2 0x12B2 SWAP2 SWAP1 PUSH2 0x2AF8 JUMP JUMPDEST PUSH20 0xFFFFFFFFFFFFFFFFFFFFFFFFFFFFFFFFFFFFFFFF AND EQ PUSH2 0x1308 JUMPI PUSH1 0x40 MLOAD PUSH32 0x8C379A000000000000000000000000000000000000000000000000000000000 DUP2 MSTORE PUSH1 0x4 ADD PUSH2 0x12FF SWAP1 PUSH2 0x2DB9 JUMP JUMPDEST PUSH1 0x40 MLOAD DUP1 SWAP2 SUB SWAP1 REVERT JUMPDEST PUSH2 0x1374 PUSH32 0x0 DUP9 DUP9 DUP9 DUP1 DUP1 PUSH1 0x20 MUL PUSH1 0x20 ADD PUSH1 0x40 MLOAD SWAP1 DUP2 ADD PUSH1 0x40 MSTORE DUP1 SWAP4 SWAP3 SWAP2 SWAP1 DUP2 DUP2 MSTORE PUSH1 0x20 ADD DUP4 DUP4 PUSH1 0x20 MUL DUP1 DUP3 DUP5 CALLDATACOPY PUSH1 0x0 DUP2 DUP5 ADD MSTORE PUSH1 0x1F NOT PUSH1 0x1F DUP3 ADD AND SWAP1 POP DUP1 DUP4 ADD SWAP3 POP POP POP POP POP POP POP PUSH2 0x1C78 JUMP JUMPDEST SWAP2 POP CALLVALUE DUP3 PUSH1 0x0 DUP2 MLOAD DUP2 LT PUSH2 0x138B JUMPI PUSH2 0x138A PUSH2 0x2A37 JUMP JUMPDEST JUMPDEST PUSH1 0x20 MUL PUSH1 0x20 ADD ADD MLOAD GT ISZERO PUSH2 0x13D4 JUMPI PUSH1 0x40 MLOAD PUSH32 0x8C379A000000000000000000000000000000000000000000000000000000000 DUP2 MSTORE PUSH1 0x4 ADD PUSH2 0x13CB SWAP1 PUSH2 0x2E4B JUMP JUMPDEST PUSH1 0x40 MLOAD DUP1 SWAP2 SUB SWAP1 REVERT JUMPDEST PUSH32 0x0 PUSH20 0xFFFFFFFFFFFFFFFFFFFFFFFFFFFFFFFFFFFFFFFF AND PUSH4 0xD0E30DB0 DUP4 PUSH1 0x0 DUP2 MLOAD DUP2 LT PUSH2 0x1424 JUMPI PUSH2 0x1423 PUSH2 0x2A37 JUMP JUMPDEST JUMPDEST PUSH1 0x20 MUL PUSH1 0x20 ADD ADD MLOAD PUSH1 0x40 MLOAD DUP3 PUSH4 0xFFFFFFFF AND PUSH1 0xE0 SHL DUP2 MSTORE PUSH1 0x4 ADD PUSH1 0x0 PUSH1 0x40 MLOAD DUP1 DUP4 SUB DUP2 DUP6 DUP9 DUP1 EXTCODESIZE ISZERO DUP1 ISZERO PUSH2 0x1457 JUMPI PUSH1 0x0 DUP1 REVERT JUMPDEST POP GAS CALL ISZERO DUP1 ISZERO PUSH2 0x146B JUMPI RETURNDATASIZE PUSH1 0x0 DUP1 RETURNDATACOPY RETURNDATASIZE PUSH1 0x0 REVERT JUMPDEST POP POP POP POP POP PUSH32 0x0 PUSH20 0xFFFFFFFFFFFFFFFFFFFFFFFFFFFFFFFFFFFFFFFF AND PUSH4 0xA9059CBB PUSH2 0x1527 PUSH32 0x0 DUP10 DUP10 PUSH1 0x0 DUP2 DUP2 LT PUSH2 0x14E4 JUMPI PUSH2 0x14E3 PUSH2 0x2A37 JUMP JUMPDEST JUMPDEST SWAP1 POP PUSH1 0x20 MUL ADD PUSH1 0x20 DUP2 ADD SWAP1 PUSH2 0x14F9 SWAP2 SWAP1 PUSH2 0x2AF8 JUMP JUMPDEST DUP11 DUP11 PUSH1 0x1 DUP2 DUP2 LT PUSH2 0x150D JUMPI PUSH2 0x150C PUSH2 0x2A37 JUMP JUMPDEST JUMPDEST SWAP1 POP PUSH1 0x20 MUL ADD PUSH1 0x20 DUP2 ADD SWAP1 PUSH2 0x1522 SWAP2 SWAP1 PUSH2 0x2AF8 JUMP JUMPDEST PUSH2 0x1810 JUMP JUMPDEST DUP5 PUSH1 0x0 DUP2 MLOAD DUP2 LT PUSH2 0x153B JUMPI PUSH2 0x153A PUSH2 0x2A37 JUMP JUMPDEST JUMPDEST PUSH1 0x20 MUL PUSH1 0x20 ADD ADD MLOAD PUSH1 0x40 MLOAD DUP4 PUSH4 0xFFFFFFFF AND PUSH1 0xE0 SHL DUP2 MSTORE PUSH1 0x4 ADD PUSH2 0x1560 SWAP3 SWAP2 SWAP1 PUSH2 0x292B JUMP JUMPDEST PUSH1 0x20 PUSH1 0x40 MLOAD DUP1 DUP4 SUB DUP2 PUSH1 0x0 DUP8 GAS CALL ISZERO DUP1 ISZERO PUSH2 0x157F JUMPI RETURNDATASIZE PUSH1 0x0 DUP1 RETURNDATACOPY RETURNDATASIZE PUSH1 0x0 REVERT JUMPDEST POP POP POP POP PUSH1 0x40 MLOAD RETURNDATASIZE PUSH1 0x1F NOT PUSH1 0x1F DUP3 ADD AND DUP3 ADD DUP1 PUSH1 0x40 MSTORE POP DUP2 ADD SWAP1 PUSH2 0x15A3 SWAP2 SWAP1 PUSH2 0x298C JUMP JUMPDEST POP PUSH2 0x15F0 DUP3 DUP8 DUP8 DUP1 DUP1 PUSH1 0x20 MUL PUSH1 0x20 ADD PUSH1 0x40 MLOAD SWAP1 DUP2 ADD PUSH1 0x40 MSTORE DUP1 SWAP4 SWAP3 SWAP2 SWAP1 DUP2 DUP2 MSTORE PUSH1 0x20 ADD DUP4 DUP4 PUSH1 0x20 MUL DUP1 DUP3 DUP5 CALLDATACOPY PUSH1 0x0 DUP2 DUP5 ADD MSTORE PUSH1 0x1F NOT PUSH1 0x1F DUP3 ADD AND SWAP1 POP DUP1 DUP4 ADD SWAP3 POP POP POP POP POP POP POP DUP7 PUSH2 0x18B4 JUMP JUMPDEST DUP2 PUSH1 0x0 DUP2 MLOAD DUP2 LT PUSH2 0x1604 JUMPI PUSH2 0x1603 PUSH2 0x2A37 JUMP JUMPDEST JUMPDEST PUSH1 0x20 MUL PUSH1 0x20 ADD ADD MLOAD CALLVALUE GT ISZERO PUSH2 0x1681 JUMPI CALLER PUSH20 0xFFFFFFFFFFFFFFFFFFFFFFFFFFFFFFFFFFFFFFFF AND PUSH2 0x8FC DUP4 PUSH1 0x0 DUP2 MLOAD DUP2 LT PUSH2 0x1641 JUMPI PUSH2 0x1640 PUSH2 0x2A37 JUMP JUMPDEST JUMPDEST PUSH1 0x20 MUL PUSH1 0x20 ADD ADD MLOAD CALLVALUE PUSH2 0x1654 SWAP2 SWAP1 PUSH2 0x2A03 JUMP JUMPDEST SWAP1 DUP2 ISZERO MUL SWAP1 PUSH1 0x40 MLOAD PUSH1 0x0 PUSH1 0x40 MLOAD DUP1 DUP4 SUB DUP2 DUP6 DUP9 DUP9 CALL SWAP4 POP POP POP POP ISZERO DUP1 ISZERO PUSH2 0x167F JUMPI RETURNDATASIZE PUSH1 0x0 DUP1 RETURNDATACOPY RETURNDATASIZE PUSH1 0x0 REVERT JUMPDEST POP JUMPDEST POP SWAP6 SWAP5 POP POP POP POP POP JUMP JUMPDEST PUSH1 0x60 PUSH1 0x2 DUP3 MLOAD LT ISZERO PUSH2 0x16D2 JUMPI PUSH1 0x40 MLOAD PUSH32 0x8C379A000000000000000000000000000000000000000000000000000000000 DUP2 MSTORE PUSH1 0x4 ADD PUSH2 0x16C9 SWAP1 PUSH2 0x2EB7 JUMP JUMPDEST PUSH1 0x40 MLOAD DUP1 SWAP2 SUB SWAP1 REVERT JUMPDEST DUP2 MLOAD PUSH8 0xFFFFFFFFFFFFFFFF DUP2 GT ISZERO PUSH2 0x16ED JUMPI PUSH2 0x16EC PUSH2 0x2ED7 JUMP JUMPDEST JUMPDEST PUSH1 0x40 MLOAD SWAP1 DUP1 DUP3 MSTORE DUP1 PUSH1 0x20 MUL PUSH1 0x20 ADD DUP3 ADD PUSH1 0x40 MSTORE DUP1 ISZERO PUSH2 0x171B JUMPI DUP2 PUSH1 0x20 ADD PUSH1 0x20 DUP3 MUL DUP1 CALLDATASIZE DUP4 CALLDATACOPY DUP1 DUP3 ADD SWAP2 POP POP SWAP1 POP JUMPDEST POP SWAP1 POP DUP3 DUP2 PUSH1 0x0 DUP2 MLOAD DUP2 LT PUSH2 0x1733 JUMPI PUSH2 0x1732 PUSH2 0x2A37 JUMP JUMPDEST JUMPDEST PUSH1 0x20 MUL PUSH1 0x20 ADD ADD DUP2 DUP2 MSTORE POP POP PUSH1 0x0 JUMPDEST PUSH1 0x1 DUP4 MLOAD PUSH2 0x1750 SWAP2 SWAP1 PUSH2 0x2A03 JUMP JUMPDEST DUP2 LT ISZERO PUSH2 0x1808 JUMPI PUSH1 0x0 DUP1 PUSH2 0x17A5 DUP8 DUP7 DUP6 DUP2 MLOAD DUP2 LT PUSH2 0x1771 JUMPI PUSH2 0x1770 PUSH2 0x2A37 JUMP JUMPDEST JUMPDEST PUSH1 0x20 MUL PUSH1 0x20 ADD ADD MLOAD DUP8 PUSH1 0x1 DUP8 PUSH2 0x1787 SWAP2 SWAP1 PUSH2 0x2F06 JUMP JUMPDEST DUP2 MLOAD DUP2 LT PUSH2 0x1798 JUMPI PUSH2 0x1797 PUSH2 0x2A37 JUMP JUMPDEST JUMPDEST PUSH1 0x20 MUL PUSH1 0x20 ADD ADD MLOAD PUSH2 0x1E13 JUMP JUMPDEST SWAP2 POP SWAP2 POP PUSH2 0x17CE DUP5 DUP5 DUP2 MLOAD DUP2 LT PUSH2 0x17BF JUMPI PUSH2 0x17BE PUSH2 0x2A37 JUMP JUMPDEST JUMPDEST PUSH1 0x20 MUL PUSH1 0x20 ADD ADD MLOAD DUP4 DUP4 PUSH2 0x1F36 JUMP JUMPDEST DUP5 PUSH1 0x1 DUP6 PUSH2 0x17DC SWAP2 SWAP1 PUSH2 0x2F06 JUMP JUMPDEST DUP2 MLOAD DUP2 LT PUSH2 0x17ED JUMPI PUSH2 0x17EC PUSH2 0x2A37 JUMP JUMPDEST JUMPDEST PUSH1 0x20 MUL PUSH1 0x20 ADD ADD DUP2 DUP2 MSTORE POP POP POP POP DUP1 DUP1 PUSH1 0x1 ADD SWAP2 POP POP PUSH2 0x1742 JUMP JUMPDEST POP SWAP4 SWAP3 POP POP POP JUMP JUMPDEST PUSH1 0x0 DUP1 PUSH1 0x0 PUSH2 0x181F DUP6 DUP6 PUSH2 0x2020 JUMP JUMPDEST SWAP2 POP SWAP2 POP PUSH1 0x0 PUSH1 0x40 MLOAD DUP1 PUSH1 0x20 ADD PUSH2 0x1835 SWAP1 PUSH2 0x22EF JUMP JUMPDEST PUSH1 0x20 DUP3 ADD DUP2 SUB DUP3 MSTORE PUSH1 0x1F NOT PUSH1 0x1F DUP3 ADD AND PUSH1 0x40 MSTORE POP DUP1 MLOAD SWAP1 PUSH1 0x20 ADD KECCAK256 SWAP1 POP DUP7 DUP4 DUP4 PUSH1 0x40 MLOAD PUSH1 0x20 ADD PUSH2 0x1866 SWAP3 SWAP2 SWAP1 PUSH2 0x2F82 JUMP JUMPDEST PUSH1 0x40 MLOAD PUSH1 0x20 DUP2 DUP4 SUB SUB DUP2 MSTORE SWAP1 PUSH1 0x40 MSTORE DUP1 MLOAD SWAP1 PUSH1 0x20 ADD KECCAK256 DUP3 PUSH1 0x40 MLOAD PUSH1 0x20 ADD PUSH2 0x188F SWAP4 SWAP3 SWAP2 SWAP1 PUSH2 0x3030 JUMP JUMPDEST PUSH1 0x40 MLOAD PUSH1 0x20 DUP2 DUP4 SUB SUB DUP2 MSTORE SWAP1 PUSH1 0x40 MSTORE DUP1 MLOAD SWAP1 PUSH1 0x20 ADD KECCAK256 PUSH1 0x0 SHR SWAP4 POP POP POP POP SWAP4 SWAP3 POP POP POP JUMP JUMPDEST PUSH1 0x0 JUMPDEST PUSH1 0x1 DUP4 MLOAD PUSH2 0x18C5 SWAP2 SWAP1 PUSH2 0x2A03 JUMP JUMPDEST DUP2 LT ISZERO PUSH2 0x1B01 JUMPI PUSH1 0x0 DUP1 DUP5 DUP4 DUP2 MLOAD DUP2 LT PUSH2 0x18E2 JUMPI PUSH2 0x18E1 PUSH2 0x2A37 JUMP JUMPDEST JUMPDEST PUSH1 0x20 MUL PUSH1 0x20 ADD ADD MLOAD DUP6 PUSH1 0x1 DUP6 PUSH2 0x18F8 SWAP2 SWAP1 PUSH2 0x2F06 JUMP JUMPDEST DUP2 MLOAD DUP2 LT PUSH2 0x1909 JUMPI PUSH2 0x1908 PUSH2 0x2A37 JUMP JUMPDEST JUMPDEST PUSH1 0x20 MUL PUSH1 0x20 ADD ADD MLOAD SWAP2 POP SWAP2 POP PUSH1 0x0 PUSH2 0x1921 DUP4 DUP4 PUSH2 0x2020 JUMP JUMPDEST POP SWAP1 POP PUSH1 0x0 DUP8 PUSH1 0x1 DUP7 PUSH2 0x1934 SWAP2 SWAP1 PUSH2 0x2F06 JUMP JUMPDEST DUP2 MLOAD DUP2 LT PUSH2 0x1945 JUMPI PUSH2 0x1944 PUSH2 0x2A37 JUMP JUMPDEST JUMPDEST PUSH1 0x20 MUL PUSH1 0x20 ADD ADD MLOAD SWAP1 POP PUSH1 0x0 DUP1 DUP4 PUSH20 0xFFFFFFFFFFFFFFFFFFFFFFFFFFFFFFFFFFFFFFFF AND DUP7 PUSH20 0xFFFFFFFFFFFFFFFFFFFFFFFFFFFFFFFFFFFFFFFF AND EQ PUSH2 0x198D JUMPI DUP3 PUSH1 0x0 PUSH2 0x1991 JUMP JUMPDEST PUSH1 0x0 DUP4 JUMPDEST SWAP2 POP SWAP2 POP PUSH1 0x0 PUSH1 0x2 DUP11 MLOAD PUSH2 0x19A5 SWAP2 SWAP1 PUSH2 0x2A03 JUMP JUMPDEST DUP9 LT PUSH2 0x19B1 JUMPI DUP9 PUSH2 0x1A03 JUMP JUMPDEST PUSH2 0x1A02 PUSH32 0x0 DUP8 DUP13 PUSH1 0x2 DUP13 PUSH2 0x19E4 SWAP2 SWAP1 PUSH2 0x2F06 JUMP JUMPDEST DUP2 MLOAD DUP2 LT PUSH2 0x19F5 JUMPI PUSH2 0x19F4 PUSH2 0x2A37 JUMP JUMPDEST JUMPDEST PUSH1 0x20 MUL PUSH1 0x20 ADD ADD MLOAD PUSH2 0x1810 JUMP JUMPDEST JUMPDEST SWAP1 POP PUSH2 0x1A30 PUSH32 0x0 DUP9 DUP9 PUSH2 0x1810 JUMP JUMPDEST PUSH20 0xFFFFFFFFFFFFFFFFFFFFFFFFFFFFFFFFFFFFFFFF AND PUSH4 0x22C0D9F DUP5 DUP5 DUP5 PUSH1 0x0 PUSH8 0xFFFFFFFFFFFFFFFF DUP2 GT ISZERO PUSH2 0x1A69 JUMPI PUSH2 0x1A68 PUSH2 0x2ED7 JUMP JUMPDEST JUMPDEST PUSH1 0x40 MLOAD SWAP1 DUP1 DUP3 MSTORE DUP1 PUSH1 0x1F ADD PUSH1 0x1F NOT AND PUSH1 0x20 ADD DUP3 ADD PUSH1 0x40 MSTORE DUP1 ISZERO PUSH2 0x1A9B JUMPI DUP2 PUSH1 0x20 ADD PUSH1 0x1 DUP3 MUL DUP1 CALLDATASIZE DUP4 CALLDATACOPY DUP1 DUP3 ADD SWAP2 POP POP SWAP1 POP JUMPDEST POP PUSH1 0x40 MLOAD DUP6 PUSH4 0xFFFFFFFF AND PUSH1 0xE0 SHL DUP2 MSTORE PUSH1 0x4 ADD PUSH2 0x1ABB SWAP5 SWAP4 SWAP3 SWAP2 SWAP1 PUSH2 0x3108 JUMP JUMPDEST PUSH1 0x0 PUSH1 0x40 MLOAD DUP1 DUP4 SUB DUP2 PUSH1 0x0 DUP8 DUP1 EXTCODESIZE ISZERO DUP1 ISZERO PUSH2 0x1AD5 JUMPI PUSH1 0x0 DUP1 REVERT JUMPDEST POP GAS CALL ISZERO DUP1 ISZERO PUSH2 0x1AE9 JUMPI RETURNDATASIZE PUSH1 0x0 DUP1 RETURNDATACOPY RETURNDATASIZE PUSH1 0x0 REVERT JUMPDEST POP POP POP POP POP POP POP POP POP POP POP DUP1 DUP1 PUSH1 0x1 ADD SWAP2 POP POP PUSH2 0x18B7 JUMP JUMPDEST POP POP POP POP JUMP JUMPDEST PUSH1 0x0 DUP1 PUSH1 0x0 DUP1 PUSH2 0x1B38 PUSH32 0x0 DUP12 DUP12 PUSH2 0x1E13 JUMP JUMPDEST SWAP2 POP SWAP2 POP PUSH1 0x0 DUP3 EQ DUP1 ISZERO PUSH2 0x1B4C JUMPI POP PUSH1 0x0 DUP2 EQ JUMPDEST ISZERO PUSH2 0x1B60 JUMPI DUP8 DUP8 DUP1 SWAP5 POP DUP2 SWAP6 POP POP POP PUSH2 0x1C6B JUMP JUMPDEST PUSH1 0x0 PUSH2 0x1B6D DUP10 DUP5 DUP5 PUSH2 0x214C JUMP JUMPDEST SWAP1 POP DUP8 DUP2 GT PUSH2 0x1BC8 JUMPI DUP6 DUP2 LT ISZERO PUSH2 0x1BB9 JUMPI PUSH1 0x40 MLOAD PUSH32 0x8C379A000000000000000000000000000000000000000000000000000000000 DUP2 MSTORE PUSH1 0x4 ADD PUSH2 0x1BB0 SWAP1 PUSH2 0x2D20 JUMP JUMPDEST PUSH1 0x40 MLOAD DUP1 SWAP2 SUB SWAP1 REVERT JUMPDEST DUP9 DUP2 DUP1 SWAP6 POP DUP2 SWAP7 POP POP POP PUSH2 0x1C69 JUMP JUMPDEST PUSH1 0x0 PUSH2 0x1BD5 DUP10 DUP5 DUP7 PUSH2 0x214C JUMP JUMPDEST SWAP1 POP DUP10 DUP2 GT ISZERO PUSH2 0x1C1A JUMPI PUSH1 0x40 MLOAD PUSH32 0x8C379A000000000000000000000000000000000000000000000000000000000 DUP2 MSTORE PUSH1 0x4 ADD PUSH2 0x1C11 SWAP1 PUSH2 0x2E4B JUMP JUMPDEST PUSH1 0x40 MLOAD DUP1 SWAP2 SUB SWAP1 REVERT JUMPDEST DUP8 DUP2 LT ISZERO PUSH2 0x1C5D JUMPI PUSH1 0x40 MLOAD PUSH32 0x8C379A000000000000000000000000000000000000000000000000000000000 DUP2 MSTORE PUSH1 0x4 ADD PUSH2 0x1C54 SWAP1 PUSH2 0x2C8E JUMP JUMPDEST PUSH1 0x40 MLOAD DUP1 SWAP2 SUB SWAP1 REVERT JUMPDEST DUP1 DUP10 DUP1 SWAP7 POP DUP2 SWAP8 POP POP POP POP JUMPDEST POP JUMPDEST POP POP SWAP7 POP SWAP7 SWAP5 POP POP POP POP POP JUMP JUMPDEST PUSH1 0x60 PUSH1 0x2 DUP3 MLOAD LT ISZERO PUSH2 0x1CBF JUMPI PUSH1 0x40 MLOAD PUSH32 0x8C379A000000000000000000000000000000000000000000000000000000000 DUP2 MSTORE PUSH1 0x4 ADD PUSH2 0x1CB6 SWAP1 PUSH2 0x2EB7 JUMP JUMPDEST PUSH1 0x40 MLOAD DUP1 SWAP2 SUB SWAP1 REVERT JUMPDEST DUP2 MLOAD PUSH8 0xFFFFFFFFFFFFFFFF DUP2 GT ISZERO PUSH2 0x1CDA JUMPI PUSH2 0x1CD9 PUSH2 0x2ED7 JUMP JUMPDEST JUMPDEST PUSH1 0x40 MLOAD SWAP1 DUP1 DUP3 MSTORE DUP1 PUSH1 0x20 MUL PUSH1 0x20 ADD DUP3 ADD PUSH1 0x40 MSTORE DUP1 ISZERO PUSH2 0x1D08 JUMPI DUP2 PUSH1 0x20 ADD PUSH1 0x20 DUP3 MUL DUP1 CALLDATASIZE DUP4 CALLDATACOPY DUP1 DUP3 ADD SWAP2 POP POP SWAP1 POP JUMPDEST POP SWAP1 POP DUP3 DUP2 PUSH1 0x1 DUP4 MLOAD PUSH2 0x1D1B SWAP2 SWAP1 PUSH2 0x2A03 JUMP JUMPDEST DUP2 MLOAD DUP2 LT PUSH2 0x1D2C JUMPI PUSH2 0x1D2B PUSH2 0x2A37 JUMP JUMPDEST JUMPDEST PUSH1 0x20 MUL PUSH1 0x20 ADD ADD DUP2 DUP2 MSTORE POP POP PUSH1 0x0 PUSH1 0x1 DUP4 MLOAD PUSH2 0x1D48 SWAP2 SWAP1 PUSH2 0x2A03 JUMP JUMPDEST SWAP1 POP JUMPDEST PUSH1 0x0 DUP2 GT ISZERO PUSH2 0x1E0B JUMPI PUSH1 0x0 DUP1 PUSH2 0x1DA2 DUP8 DUP7 PUSH1 0x1 DUP7 PUSH2 0x1D69 SWAP2 SWAP1 PUSH2 0x2A03 JUMP JUMPDEST DUP2 MLOAD DUP2 LT PUSH2 0x1D7A JUMPI PUSH2 0x1D79 PUSH2 0x2A37 JUMP JUMPDEST JUMPDEST PUSH1 0x20 MUL PUSH1 0x20 ADD ADD MLOAD DUP8 DUP7 DUP2 MLOAD DUP2 LT PUSH2 0x1D95 JUMPI PUSH2 0x1D94 PUSH2 0x2A37 JUMP JUMPDEST JUMPDEST PUSH1 0x20 MUL PUSH1 0x20 ADD ADD MLOAD PUSH2 0x1E13 JUMP JUMPDEST SWAP2 POP SWAP2 POP PUSH2 0x1DCB DUP5 DUP5 DUP2 MLOAD DUP2 LT PUSH2 0x1DBC JUMPI PUSH2 0x1DBB PUSH2 0x2A37 JUMP JUMPDEST JUMPDEST PUSH1 0x20 MUL PUSH1 0x20 ADD ADD MLOAD DUP4 DUP4 PUSH2 0x21FF JUMP JUMPDEST DUP5 PUSH1 0x1 DUP6 PUSH2 0x1DD9 SWAP2 SWAP1 PUSH2 0x2A03 JUMP JUMPDEST DUP2 MLOAD DUP2 LT PUSH2 0x1DEA JUMPI PUSH2 0x1DE9 PUSH2 0x2A37 JUMP JUMPDEST JUMPDEST PUSH1 0x20 MUL PUSH1 0x20 ADD ADD DUP2 DUP2 MSTORE POP POP POP POP DUP1 DUP1 PUSH2 0x1E03 SWAP1 PUSH2 0x3154 JUMP JUMPDEST SWAP2 POP POP PUSH2 0x1D4B JUMP JUMPDEST POP SWAP4 SWAP3 POP POP POP JUMP JUMPDEST PUSH1 0x0 DUP1 PUSH1 0x0 PUSH2 0x1E22 DUP6 DUP6 PUSH2 0x2020 JUMP JUMPDEST POP SWAP1 POP PUSH1 0x0 DUP1 PUSH2 0x1E33 DUP9 DUP9 DUP9 PUSH2 0x1810 JUMP JUMPDEST PUSH20 0xFFFFFFFFFFFFFFFFFFFFFFFFFFFFFFFFFFFFFFFF AND PUSH4 0x902F1AC PUSH1 0x40 MLOAD DUP2 PUSH4 0xFFFFFFFF AND PUSH1 0xE0 SHL DUP2 MSTORE PUSH1 0x4 ADD PUSH1 0x60 PUSH1 0x40 MLOAD DUP1 DUP4 SUB DUP2 DUP7 GAS STATICCALL ISZERO DUP1 ISZERO PUSH2 0x1E7D JUMPI RETURNDATASIZE PUSH1 0x0 DUP1 RETURNDATACOPY RETURNDATASIZE PUSH1 0x0 REVERT JUMPDEST POP POP POP POP PUSH1 0x40 MLOAD RETURNDATASIZE PUSH1 0x1F NOT PUSH1 0x1F DUP3 ADD AND DUP3 ADD DUP1 PUSH1 0x40 MSTORE POP DUP2 ADD SWAP1 PUSH2 0x1EA1 SWAP2 SWAP1 PUSH2 0x31FF JUMP JUMPDEST POP SWAP2 POP SWAP2 POP DUP3 PUSH20 0xFFFFFFFFFFFFFFFFFFFFFFFFFFFFFFFFFFFFFFFF AND DUP8 PUSH20 0xFFFFFFFFFFFFFFFFFFFFFFFFFFFFFFFFFFFFFFFF AND EQ PUSH2 0x1F00 JUMPI DUP1 PUSH14 0xFFFFFFFFFFFFFFFFFFFFFFFFFFFF AND DUP3 PUSH14 0xFFFFFFFFFFFFFFFFFFFFFFFFFFFF AND PUSH2 0x1F23 JUMP JUMPDEST DUP2 PUSH14 0xFFFFFFFFFFFFFFFFFFFFFFFFFFFF AND DUP2 PUSH14 0xFFFFFFFFFFFFFFFFFFFFFFFFFFFF AND JUMPDEST DUP1 SWAP6 POP DUP2 SWAP7 POP POP POP POP POP POP SWAP4 POP SWAP4 SWAP2 POP POP JUMP JUMPDEST PUSH1 0x0 DUP1 DUP5 GT PUSH2 0x1F7A JUMPI PUSH1 0x40 MLOAD PUSH32 0x8C379A000000000000000000000000000000000000000000000000000000000 DUP2 MSTORE PUSH1 0x4 ADD PUSH2 0x1F71 SWAP1 PUSH2 0x32C4 JUMP JUMPDEST PUSH1 0x40 MLOAD DUP1 SWAP2 SUB SWAP1 REVERT JUMPDEST PUSH1 0x0 DUP4 GT DUP1 ISZERO PUSH2 0x1F8A JUMPI POP PUSH1 0x0 DUP3 GT JUMPDEST PUSH2 0x1FC9 JUMPI PUSH1 0x40 MLOAD PUSH32 0x8C379A000000000000000000000000000000000000000000000000000000000 DUP2 MSTORE PUSH1 0x4 ADD PUSH2 0x1FC0 SWAP1 PUSH2 0x3356 JUMP JUMPDEST PUSH1 0x40 MLOAD DUP1 SWAP2 SUB SWAP1 REVERT JUMPDEST PUSH1 0x0 PUSH2 0x3E5 DUP6 PUSH2 0x1FD9 SWAP2 SWAP1 PUSH2 0x3376 JUMP JUMPDEST SWAP1 POP PUSH1 0x0 DUP4 DUP3 PUSH2 0x1FE9 SWAP2 SWAP1 PUSH2 0x3376 JUMP JUMPDEST SWAP1 POP PUSH1 0x0 DUP3 PUSH2 0x3E8 DUP8 PUSH2 0x1FFC SWAP2 SWAP1 PUSH2 0x3376 JUMP JUMPDEST PUSH2 0x2006 SWAP2 SWAP1 PUSH2 0x2F06 JUMP JUMPDEST SWAP1 POP DUP1 DUP3 PUSH2 0x2014 SWAP2 SWAP1 PUSH2 0x33E7 JUMP JUMPDEST SWAP4 POP POP POP POP SWAP4 SWAP3 POP POP POP JUMP JUMPDEST PUSH1 0x0 DUP1 DUP3 PUSH20 0xFFFFFFFFFFFFFFFFFFFFFFFFFFFFFFFFFFFFFFFF AND DUP5 PUSH20 0xFFFFFFFFFFFFFFFFFFFFFFFFFFFFFFFFFFFFFFFF AND SUB PUSH2 0x2091 JUMPI PUSH1 0x40 MLOAD PUSH32 0x8C379A000000000000000000000000000000000000000000000000000000000 DUP2 MSTORE PUSH1 0x4 ADD PUSH2 0x2088 SWAP1 PUSH2 0x348A JUMP JUMPDEST PUSH1 0x40 MLOAD DUP1 SWAP2 SUB SWAP1 REVERT JUMPDEST DUP3 PUSH20 0xFFFFFFFFFFFFFFFFFFFFFFFFFFFFFFFFFFFFFFFF AND DUP5 PUSH20 0xFFFFFFFFFFFFFFFFFFFFFFFFFFFFFFFFFFFFFFFF AND LT PUSH2 0x20CB JUMPI DUP3 DUP5 PUSH2 0x20CE JUMP JUMPDEST DUP4 DUP4 JUMPDEST DUP1 SWAP3 POP DUP2 SWAP4 POP POP POP PUSH1 0x0 PUSH20 0xFFFFFFFFFFFFFFFFFFFFFFFFFFFFFFFFFFFFFFFF AND DUP3 PUSH20 0xFFFFFFFFFFFFFFFFFFFFFFFFFFFFFFFFFFFFFFFF AND SUB PUSH2 0x2145 JUMPI PUSH1 0x40 MLOAD PUSH32 0x8C379A000000000000000000000000000000000000000000000000000000000 DUP2 MSTORE PUSH1 0x4 ADD PUSH2 0x213C SWAP1 PUSH2 0x34F6 JUMP JUMPDEST PUSH1 0x40 MLOAD DUP1 SWAP2 SUB SWAP1 REVERT JUMPDEST SWAP3 POP SWAP3 SWAP1 POP JUMP JUMPDEST PUSH1 0x0 DUP1 DUP5 GT PUSH2 0x2190 JUMPI PUSH1 0x40 MLOAD PUSH32 0x8C379A000000000000000000000000000000000000000000000000000000000 DUP2 MSTORE PUSH1 0x4 ADD PUSH2 0x2187 SWAP1 PUSH2 0x3588 JUMP JUMPDEST PUSH1 0x40 MLOAD DUP1 SWAP2 SUB SWAP1 REVERT JUMPDEST PUSH1 0x0 DUP4 GT DUP1 ISZERO PUSH2 0x21A0 JUMPI POP PUSH1 0x0 DUP3 GT JUMPDEST PUSH2 0x21DF JUMPI PUSH1 0x40 MLOAD PUSH32 0x8C379A000000000000000000000000000000000000000000000000000000000 DUP2 MSTORE PUSH1 0x4 ADD PUSH2 0x21D6 SWAP1 PUSH2 0x3356 JUMP JUMPDEST PUSH1 0x40 MLOAD DUP1 SWAP2 SUB SWAP1 REVERT JUMPDEST DUP3 DUP3 DUP6 PUSH2 0x21EC SWAP2 SWAP1 PUSH2 0x3376 JUMP JUMPDEST PUSH2 0x21F6 SWAP2 SWAP1 PUSH2 0x33E7 JUMP JUMPDEST SWAP1 POP SWAP4 SWAP3 POP POP POP JUMP JUMPDEST PUSH1 0x0 DUP1 DUP5 GT PUSH2 0x2243 JUMPI PUSH1 0x40 MLOAD PUSH32 0x8C379A000000000000000000000000000000000000000000000000000000000 DUP2 MSTORE PUSH1 0x4 ADD PUSH2 0x223A SWAP1 PUSH2 0x361A JUMP JUMPDEST PUSH1 0x40 MLOAD DUP1 SWAP2 SUB SWAP1 REVERT JUMPDEST PUSH1 0x0 DUP4 GT DUP1 ISZERO PUSH2 0x2253 JUMPI POP PUSH1 0x0 DUP3 GT JUMPDEST PUSH2 0x2292 JUMPI PUSH1 0x40 MLOAD PUSH32 0x8C379A000000000000000000000000000000000000000000000000000000000 DUP2 MSTORE PUSH1 0x4 ADD PUSH2 0x2289 SWAP1 PUSH2 0x3356 JUMP JUMPDEST PUSH1 0x40 MLOAD DUP1 SWAP2 SUB SWAP1 REVERT JUMPDEST PUSH1 0x0 PUSH2 0x3E8 DUP6 DUP6 PUSH2 0x22A3 SWAP2 SWAP1 PUSH2 0x3376 JUMP JUMPDEST PUSH2 0x22AD SWAP2 SWAP1 PUSH2 0x3376 JUMP JUMPDEST SWAP1 POP PUSH1 0x0 PUSH2 0x3E5 DUP7 DUP6 PUSH2 0x22C0 SWAP2 SWAP1 PUSH2 0x2A03 JUMP JUMPDEST PUSH2 0x22CA SWAP2 SWAP1 PUSH2 0x3376 JUMP JUMPDEST SWAP1 POP PUSH1 0x1 DUP2 DUP4 PUSH2 0x22DA SWAP2 SWAP1 PUSH2 0x33E7 JUMP JUMPDEST PUSH2 0x22E4 SWAP2 SWAP1 PUSH2 0x2F06 JUMP JUMPDEST SWAP3 POP POP POP SWAP4 SWAP3 POP POP POP JUMP JUMPDEST PUSH2 0x424F DUP1 PUSH2 0x363B DUP4 CODECOPY ADD SWAP1 JUMP JUMPDEST PUSH32 0x4E487B7100000000000000000000000000000000000000000000000000000000 PUSH1 0x0 MSTORE PUSH1 0x1 PUSH1 0x4 MSTORE PUSH1 0x24 PUSH1 0x0 REVERT JUMPDEST PUSH1 0x0 DUP1 REVERT JUMPDEST PUSH1 0x0 DUP1 REVERT JUMPDEST PUSH1 0x0 PUSH20 0xFFFFFFFFFFFFFFFFFFFFFFFFFFFFFFFFFFFFFFFF DUP3 AND SWAP1 POP SWAP2 SWAP1 POP JUMP JUMPDEST PUSH1 0x0 PUSH2 0x2360 DUP3 PUSH2 0x2335 JUMP JUMPDEST SWAP1 POP SWAP2 SWAP1 POP JUMP JUMPDEST PUSH2 0x2370 DUP2 PUSH2 0x2355 JUMP JUMPDEST DUP2 EQ PUSH2 0x237B JUMPI PUSH1 0x0 DUP1 REVERT JUMPDEST POP JUMP JUMPDEST PUSH1 0x0 DUP2 CALLDATALOAD SWAP1 POP PUSH2 0x238D DUP2 PUSH2 0x2367 JUMP JUMPDEST SWAP3 SWAP2 POP POP JUMP JUMPDEST PUSH1 0x0 DUP2 SWAP1 POP SWAP2 SWAP1 POP JUMP JUMPDEST PUSH2 0x23A6 DUP2 PUSH2 0x2393 JUMP JUMPDEST DUP2 EQ PUSH2 0x23B1 JUMPI PUSH1 0x0 DUP1 REVERT JUMPDEST POP JUMP JUMPDEST PUSH1 0x0 DUP2 CALLDATALOAD SWAP1 POP PUSH2 0x23C3 DUP2 PUSH2 0x239D JUMP JUMPDEST SWAP3 SWAP2 POP POP JUMP JUMPDEST PUSH1 0x0 DUP1 PUSH1 0x0 DUP1 PUSH1 0x0 DUP1 PUSH1 0xC0 DUP8 DUP10 SUB SLT ISZERO PUSH2 0x23E6 JUMPI PUSH2 0x23E5 PUSH2 0x232B JUMP JUMPDEST JUMPDEST PUSH1 0x0 PUSH2 0x23F4 DUP10 DUP3 DUP11 ADD PUSH2 0x237E JUMP JUMPDEST SWAP7 POP POP PUSH1 0x20 PUSH2 0x2405 DUP10 DUP3 DUP11 ADD PUSH2 0x23B4 JUMP JUMPDEST SWAP6 POP POP PUSH1 0x40 PUSH2 0x2416 DUP10 DUP3 DUP11 ADD PUSH2 0x23B4 JUMP JUMPDEST SWAP5 POP POP PUSH1 0x60 PUSH2 0x2427 DUP10 DUP3 DUP11 ADD PUSH2 0x23B4 JUMP JUMPDEST SWAP4 POP POP PUSH1 0x80 PUSH2 0x2438 DUP10 DUP3 DUP11 ADD PUSH2 0x237E JUMP JUMPDEST SWAP3 POP POP PUSH1 0xA0 PUSH2 0x2449 DUP10 DUP3 DUP11 ADD PUSH2 0x23B4 JUMP JUMPDEST SWAP2 POP POP SWAP3 SWAP6 POP SWAP3 SWAP6 POP SWAP3 SWAP6 JUMP JUMPDEST PUSH2 0x245F DUP2 PUSH2 0x2393 JUMP JUMPDEST DUP3 MSTORE POP POP JUMP JUMPDEST PUSH1 0x0 PUSH1 0x40 DUP3 ADD SWAP1 POP PUSH2 0x247A PUSH1 0x0 DUP4 ADD DUP6 PUSH2 0x2456 JUMP JUMPDEST PUSH2 0x2487 PUSH1 0x20 DUP4 ADD DUP5 PUSH2 0x2456 JUMP JUMPDEST SWAP4 SWAP3 POP POP POP JUMP JUMPDEST PUSH1 0x0 DUP1 REVERT JUMPDEST PUSH1 0x0 DUP1 REVERT JUMPDEST PUSH1 0x0 DUP1 REVERT JUMPDEST PUSH1 0x0 DUP1 DUP4 PUSH1 0x1F DUP5 ADD SLT PUSH2 0x24B3 JUMPI PUSH2 0x24B2 PUSH2 0x248E JUMP JUMPDEST JUMPDEST DUP3 CALLDATALOAD SWAP1 POP PUSH8 0xFFFFFFFFFFFFFFFF DUP2 GT ISZERO PUSH2 0x24D0 JUMPI PUSH2 0x24CF PUSH2 0x2493 JUMP JUMPDEST JUMPDEST PUSH1 0x20 DUP4 ADD SWAP2 POP DUP4 PUSH1 0x20 DUP3 MUL DUP4 ADD GT ISZERO PUSH2 0x24EC JUMPI PUSH2 0x24EB PUSH2 0x2498 JUMP JUMPDEST JUMPDEST SWAP3 POP SWAP3 SWAP1 POP JUMP JUMPDEST PUSH1 0x0 DUP1 PUSH1 0x0 DUP1 PUSH1 0x0 DUP1 PUSH1 0xA0 DUP8 DUP10 SUB SLT ISZERO PUSH2 0x2510 JUMPI PUSH2 0x250F PUSH2 0x232B JUMP JUMPDEST JUMPDEST PUSH1 0x0 PUSH2 0x251E DUP10 DUP3 DUP11 ADD PUSH2 0x23B4 JUMP JUMPDEST SWAP7 POP POP PUSH1 0x20 PUSH2 0x252F DUP10 DUP3 DUP11 ADD PUSH2 0x23B4 JUMP JUMPDEST SWAP6 POP POP PUSH1 0x40 DUP8 ADD CALLDATALOAD PUSH8 0xFFFFFFFFFFFFFFFF DUP2 GT ISZERO PUSH2 0x2550 JUMPI PUSH2 0x254F PUSH2 0x2330 JUMP JUMPDEST JUMPDEST PUSH2 0x255C DUP10 DUP3 DUP11 ADD PUSH2 0x249D JUMP JUMPDEST SWAP5 POP SWAP5 POP POP PUSH1 0x60 PUSH2 0x256F DUP10 DUP3 DUP11 ADD PUSH2 0x237E JUMP JUMPDEST SWAP3 POP POP PUSH1 0x80 PUSH2 0x2580 DUP10 DUP3 DUP11 ADD PUSH2 0x23B4 JUMP JUMPDEST SWAP2 POP POP SWAP3 SWAP6 POP SWAP3 SWAP6 POP SWAP3 SWAP6 JUMP JUMPDEST PUSH1 0x0 DUP2 MLOAD SWAP1 POP SWAP2 SWAP1 POP JUMP JUMPDEST PUSH1 0x0 DUP3 DUP3 MSTORE PUSH1 0x20 DUP3 ADD SWAP1 POP SWAP3 SWAP2 POP POP JUMP JUMPDEST PUSH1 0x0 DUP2 SWAP1 POP PUSH1 0x20 DUP3 ADD SWAP1 POP SWAP2 SWAP1 POP JUMP JUMPDEST PUSH2 0x25C2 DUP2 PUSH2 0x2393 JUMP JUMPDEST DUP3 MSTORE POP POP JUMP JUMPDEST PUSH1 0x0 PUSH2 0x25D4 DUP4 DUP4 PUSH2 0x25B9 JUMP JUMPDEST PUSH1 0x20 DUP4 ADD SWAP1 POP SWAP3 SWAP2 POP POP JUMP JUMPDEST PUSH1 0x0 PUSH1 0x20 DUP3 ADD SWAP1 POP SWAP2 SWAP1 POP JUMP JUMPDEST PUSH1 0x0 PUSH2 0x25F8 DUP3 PUSH2 0x258D JUMP JUMPDEST PUSH2 0x2602 DUP2 DUP6 PUSH2 0x2598 JUMP JUMPDEST SWAP4 POP PUSH2 0x260D DUP4 PUSH2 0x25A9 JUMP JUMPDEST DUP1 PUSH1 0x0 JUMPDEST DUP4 DUP2 LT ISZERO PUSH2 0x263E JUMPI DUP2 MLOAD PUSH2 0x2625 DUP9 DUP3 PUSH2 0x25C8 JUMP JUMPDEST SWAP8 POP PUSH2 0x2630 DUP4 PUSH2 0x25E0 JUMP JUMPDEST SWAP3 POP POP PUSH1 0x1 DUP2 ADD SWAP1 POP PUSH2 0x2611 JUMP JUMPDEST POP DUP6 SWAP4 POP POP POP POP SWAP3 SWAP2 POP POP JUMP JUMPDEST PUSH1 0x0 PUSH1 0x20 DUP3 ADD SWAP1 POP DUP2 DUP2 SUB PUSH1 0x0 DUP4 ADD MSTORE PUSH2 0x2665 DUP2 DUP5 PUSH2 0x25ED JUMP JUMPDEST SWAP1 POP SWAP3 SWAP2 POP POP JUMP JUMPDEST PUSH2 0x2676 DUP2 PUSH2 0x2355 JUMP JUMPDEST DUP3 MSTORE POP POP JUMP JUMPDEST PUSH1 0x0 PUSH1 0x20 DUP3 ADD SWAP1 POP PUSH2 0x2691 PUSH1 0x0 DUP4 ADD DUP5 PUSH2 0x266D JUMP JUMPDEST SWAP3 SWAP2 POP POP JUMP JUMPDEST PUSH1 0x0 DUP1 PUSH1 0x0 DUP1 PUSH1 0x0 DUP1 PUSH1 0x0 PUSH1 0xE0 DUP9 DUP11 SUB SLT ISZERO PUSH2 0x26B6 JUMPI PUSH2 0x26B5 PUSH2 0x232B JUMP JUMPDEST JUMPDEST PUSH1 0x0 PUSH2 0x26C4 DUP11 DUP3 DUP12 ADD PUSH2 0x237E JUMP JUMPDEST SWAP8 POP POP PUSH1 0x20 PUSH2 0x26D5 DUP11 DUP3 DUP12 ADD PUSH2 0x237E JUMP JUMPDEST SWAP7 POP POP PUSH1 0x40 PUSH2 0x26E6 DUP11 DUP3 DUP12 ADD PUSH2 0x23B4 JUMP JUMPDEST SWAP6 POP POP PUSH1 0x60 PUSH2 0x26F7 DUP11 DUP3 DUP12 ADD PUSH2 0x23B4 JUMP JUMPDEST SWAP5 POP POP PUSH1 0x80 PUSH2 0x2708 DUP11 DUP3 DUP12 ADD PUSH2 0x23B4 JUMP JUMPDEST SWAP4 POP POP PUSH1 0xA0 PUSH2 0x2719 DUP11 DUP3 DUP12 ADD PUSH2 0x237E JUMP JUMPDEST SWAP3 POP POP PUSH1 0xC0 PUSH2 0x272A DUP11 DUP3 DUP12 ADD PUSH2 0x23B4 JUMP JUMPDEST SWAP2 POP POP SWAP3 SWAP6 SWAP9 SWAP2 SWAP5 SWAP8 POP SWAP3 SWAP6 POP JUMP JUMPDEST PUSH1 0x0 DUP1 PUSH1 0x0 DUP1 PUSH1 0x0 DUP1 PUSH1 0x0 DUP1 PUSH2 0x100 DUP10 DUP12 SUB SLT ISZERO PUSH2 0x275A JUMPI PUSH2 0x2759 PUSH2 0x232B JUMP JUMPDEST JUMPDEST PUSH1 0x0 PUSH2 0x2768 DUP12 DUP3 DUP13 ADD PUSH2 0x237E JUMP JUMPDEST SWAP9 POP POP PUSH1 0x20 PUSH2 0x2779 DUP12 DUP3 DUP13 ADD PUSH2 0x237E JUMP JUMPDEST SWAP8 POP POP PUSH1 0x40 PUSH2 0x278A DUP12 DUP3 DUP13 ADD PUSH2 0x23B4 JUMP JUMPDEST SWAP7 POP POP PUSH1 0x60 PUSH2 0x279B DUP12 DUP3 DUP13 ADD PUSH2 0x23B4 JUMP JUMPDEST SWAP6 POP POP PUSH1 0x80 PUSH2 0x27AC DUP12 DUP3 DUP13 ADD PUSH2 0x23B4 JUMP JUMPDEST SWAP5 POP POP PUSH1 0xA0 PUSH2 0x27BD DUP12 DUP3 DUP13 ADD PUSH2 0x23B4 JUMP JUMPDEST SWAP4 POP POP PUSH1 0xC0 PUSH2 0x27CE DUP12 DUP3 DUP13 ADD PUSH2 0x237E JUMP JUMPDEST SWAP3 POP POP PUSH1 0xE0 PUSH2 0x27DF DUP12 DUP3 DUP13 ADD PUSH2 0x23B4 JUMP JUMPDEST SWAP2 POP POP SWAP3 SWAP6 SWAP9 POP SWAP3 SWAP6 SWAP9 SWAP1 SWAP4 SWAP7 POP JUMP JUMPDEST PUSH1 0x0 PUSH1 0x60 DUP3 ADD SWAP1 POP PUSH2 0x2804 PUSH1 0x0 DUP4 ADD DUP7 PUSH2 0x2456 JUMP JUMPDEST PUSH2 0x2811 PUSH1 0x20 DUP4 ADD DUP6 PUSH2 0x2456 JUMP JUMPDEST PUSH2 0x281E PUSH1 0x40 DUP4 ADD DUP5 PUSH2 0x2456 JUMP JUMPDEST SWAP5 SWAP4 POP POP POP POP JUMP JUMPDEST PUSH1 0x0 DUP1 PUSH1 0x0 DUP1 PUSH1 0x0 PUSH1 0x80 DUP7 DUP9 SUB SLT ISZERO PUSH2 0x2842 JUMPI PUSH2 0x2841 PUSH2 0x232B JUMP JUMPDEST JUMPDEST PUSH1 0x0 PUSH2 0x2850 DUP9 DUP3 DUP10 ADD PUSH2 0x23B4 JUMP JUMPDEST SWAP6 POP POP PUSH1 0x20 DUP7 ADD CALLDATALOAD PUSH8 0xFFFFFFFFFFFFFFFF DUP2 GT ISZERO PUSH2 0x2871 JUMPI PUSH2 0x2870 PUSH2 0x2330 JUMP JUMPDEST JUMPDEST PUSH2 0x287D DUP9 DUP3 DUP10 ADD PUSH2 0x249D JUMP JUMPDEST SWAP5 POP SWAP5 POP POP PUSH1 0x40 PUSH2 0x2890 DUP9 DUP3 DUP10 ADD PUSH2 0x237E JUMP JUMPDEST SWAP3 POP POP PUSH1 0x60 PUSH2 0x28A1 DUP9 DUP3 DUP10 ADD PUSH2 0x23B4 JUMP JUMPDEST SWAP2 POP POP SWAP3 SWAP6 POP SWAP3 SWAP6 SWAP1 SWAP4 POP JUMP JUMPDEST PUSH1 0x0 DUP3 DUP3 MSTORE PUSH1 0x20 DUP3 ADD SWAP1 POP SWAP3 SWAP2 POP POP JUMP JUMPDEST PUSH32 0x4D79556E69737761705632526F757465723A2045585049524544000000000000 PUSH1 0x0 DUP3 ADD MSTORE POP JUMP JUMPDEST PUSH1 0x0 PUSH2 0x28F5 PUSH1 0x1A DUP4 PUSH2 0x28AE JUMP JUMPDEST SWAP2 POP PUSH2 0x2900 DUP3 PUSH2 0x28BF JUMP JUMPDEST PUSH1 0x20 DUP3 ADD SWAP1 POP SWAP2 SWAP1 POP JUMP JUMPDEST PUSH1 0x0 PUSH1 0x20 DUP3 ADD SWAP1 POP DUP2 DUP2 SUB PUSH1 0x0 DUP4 ADD MSTORE PUSH2 0x2924 DUP2 PUSH2 0x28E8 JUMP JUMPDEST SWAP1 POP SWAP2 SWAP1 POP JUMP JUMPDEST PUSH1 0x0 PUSH1 0x40 DUP3 ADD SWAP1 POP PUSH2 0x2940 PUSH1 0x0 DUP4 ADD DUP6 PUSH2 0x266D JUMP JUMPDEST PUSH2 0x294D PUSH1 0x20 DUP4 ADD DUP5 PUSH2 0x2456 JUMP JUMPDEST SWAP4 SWAP3 POP POP POP JUMP JUMPDEST PUSH1 0x0 DUP2 ISZERO ISZERO SWAP1 POP SWAP2 SWAP1 POP JUMP JUMPDEST PUSH2 0x2969 DUP2 PUSH2 0x2954 JUMP JUMPDEST DUP2 EQ PUSH2 0x2974 JUMPI PUSH1 0x0 DUP1 REVERT JUMPDEST POP JUMP JUMPDEST PUSH1 0x0 DUP2 MLOAD SWAP1 POP PUSH2 0x2986 DUP2 PUSH2 0x2960 JUMP JUMPDEST SWAP3 SWAP2 POP POP JUMP JUMPDEST PUSH1 0x0 PUSH1 0x20 DUP3 DUP5 SUB SLT ISZERO PUSH2 0x29A2 JUMPI PUSH2 0x29A1 PUSH2 0x232B JUMP JUMPDEST JUMPDEST PUSH1 0x0 PUSH2 0x29B0 DUP5 DUP3 DUP6 ADD PUSH2 0x2977 JUMP JUMPDEST SWAP2 POP POP SWAP3 SWAP2 POP POP JUMP JUMPDEST PUSH1 0x0 PUSH1 0x20 DUP3 ADD SWAP1 POP PUSH2 0x29CE PUSH1 0x0 DUP4 ADD DUP5 PUSH2 0x2456 JUMP JUMPDEST SWAP3 SWAP2 POP POP JUMP JUMPDEST PUSH32 0x4E487B7100000000000000000000000000000000000000000000000000000000 PUSH1 0x0 MSTORE PUSH1 0x11 PUSH1 0x4 MSTORE PUSH1 0x24 PUSH1 0x0 REVERT JUMPDEST PUSH1 0x0 PUSH2 0x2A0E DUP3 PUSH2 0x2393 JUMP JUMPDEST SWAP2 POP PUSH2 0x2A19 DUP4 PUSH2 0x2393 JUMP JUMPDEST SWAP3 POP DUP3 DUP3 SUB SWAP1 POP DUP2 DUP2 GT ISZERO PUSH2 0x2A31 JUMPI PUSH2 0x2A30 PUSH2 0x29D4 JUMP JUMPDEST JUMPDEST SWAP3 SWAP2 POP POP JUMP JUMPDEST PUSH32 0x4E487B7100000000000000000000000000000000000000000000000000000000 PUSH1 0x0 MSTORE PUSH1 0x32 PUSH1 0x4 MSTORE PUSH1 0x24 PUSH1 0x0 REVERT JUMPDEST PUSH32 0x4D79556E69737761705632526F757465723A20494E53554646494349454E545F PUSH1 0x0 DUP3 ADD MSTORE PUSH32 0x4F55545055545F414D4F554E5400000000000000000000000000000000000000 PUSH1 0x20 DUP3 ADD MSTORE POP JUMP JUMPDEST PUSH1 0x0 PUSH2 0x2AC2 PUSH1 0x2D DUP4 PUSH2 0x28AE JUMP JUMPDEST SWAP2 POP PUSH2 0x2ACD DUP3 PUSH2 0x2A66 JUMP JUMPDEST PUSH1 0x40 DUP3 ADD SWAP1 POP SWAP2 SWAP1 POP JUMP JUMPDEST PUSH1 0x0 PUSH1 0x20 DUP3 ADD SWAP1 POP DUP2 DUP2 SUB PUSH1 0x0 DUP4 ADD MSTORE PUSH2 0x2AF1 DUP2 PUSH2 0x2AB5 JUMP JUMPDEST SWAP1 POP SWAP2 SWAP1 POP JUMP JUMPDEST PUSH1 0x0 PUSH1 0x20 DUP3 DUP5 SUB SLT ISZERO PUSH2 0x2B0E JUMPI PUSH2 0x2B0D PUSH2 0x232B JUMP JUMPDEST JUMPDEST PUSH1 0x0 PUSH2 0x2B1C DUP5 DUP3 DUP6 ADD PUSH2 0x237E JUMP JUMPDEST SWAP2 POP POP SWAP3 SWAP2 POP POP JUMP JUMPDEST PUSH1 0x0 PUSH1 0x60 DUP3 ADD SWAP1 POP PUSH2 0x2B3A PUSH1 0x0 DUP4 ADD DUP7 PUSH2 0x266D JUMP JUMPDEST PUSH2 0x2B47 PUSH1 0x20 DUP4 ADD DUP6 PUSH2 0x266D JUMP JUMPDEST PUSH2 0x2B54 PUSH1 0x40 DUP4 ADD DUP5 PUSH2 0x2456 JUMP JUMPDEST SWAP5 SWAP4 POP POP POP POP JUMP JUMPDEST PUSH1 0x0 PUSH1 0x40 DUP3 ADD SWAP1 POP PUSH2 0x2B71 PUSH1 0x0 DUP4 ADD DUP6 PUSH2 0x266D JUMP JUMPDEST PUSH2 0x2B7E PUSH1 0x20 DUP4 ADD DUP5 PUSH2 0x266D JUMP JUMPDEST SWAP4 SWAP3 POP POP POP JUMP JUMPDEST PUSH1 0x0 DUP2 MLOAD SWAP1 POP PUSH2 0x2B94 DUP2 PUSH2 0x2367 JUMP JUMPDEST SWAP3 SWAP2 POP POP JUMP JUMPDEST PUSH1 0x0 PUSH1 0x20 DUP3 DUP5 SUB SLT ISZERO PUSH2 0x2BB0 JUMPI PUSH2 0x2BAF PUSH2 0x232B JUMP JUMPDEST JUMPDEST PUSH1 0x0 PUSH2 0x2BBE DUP5 DUP3 DUP6 ADD PUSH2 0x2B85 JUMP JUMPDEST SWAP2 POP POP SWAP3 SWAP2 POP POP JUMP JUMPDEST PUSH1 0x0 DUP2 MLOAD SWAP1 POP PUSH2 0x2BD6 DUP2 PUSH2 0x239D JUMP JUMPDEST SWAP3 SWAP2 POP POP JUMP JUMPDEST PUSH1 0x0 DUP1 PUSH1 0x40 DUP4 DUP6 SUB SLT ISZERO PUSH2 0x2BF3 JUMPI PUSH2 0x2BF2 PUSH2 0x232B JUMP JUMPDEST JUMPDEST PUSH1 0x0 PUSH2 0x2C01 DUP6 DUP3 DUP7 ADD PUSH2 0x2BC7 JUMP JUMPDEST SWAP3 POP POP PUSH1 0x20 PUSH2 0x2C12 DUP6 DUP3 DUP7 ADD PUSH2 0x2BC7 JUMP JUMPDEST SWAP2 POP POP SWAP3 POP SWAP3 SWAP1 POP JUMP JUMPDEST PUSH32 0x4D79556E69737761705632526F757465723A20494E53554646494349454E545F PUSH1 0x0 DUP3 ADD MSTORE PUSH32 0x415F414D4F554E54000000000000000000000000000000000000000000000000 PUSH1 0x20 DUP3 ADD MSTORE POP JUMP JUMPDEST PUSH1 0x0 PUSH2 0x2C78 PUSH1 0x28 DUP4 PUSH2 0x28AE JUMP JUMPDEST SWAP2 POP PUSH2 0x2C83 DUP3 PUSH2 0x2C1C JUMP JUMPDEST PUSH1 0x40 DUP3 ADD SWAP1 POP SWAP2 SWAP1 POP JUMP JUMPDEST PUSH1 0x0 PUSH1 0x20 DUP3 ADD SWAP1 POP DUP2 DUP2 SUB PUSH1 0x0 DUP4 ADD MSTORE PUSH2 0x2CA7 DUP2 PUSH2 0x2C6B JUMP JUMPDEST SWAP1 POP SWAP2 SWAP1 POP JUMP JUMPDEST PUSH32 0x4D79556E69737761705632526F757465723A20494E53554646494349454E545F PUSH1 0x0 DUP3 ADD MSTORE PUSH32 0x425F414D4F554E54000000000000000000000000000000000000000000000000 PUSH1 0x20 DUP3 ADD MSTORE POP JUMP JUMPDEST PUSH1 0x0 PUSH2 0x2D0A PUSH1 0x28 DUP4 PUSH2 0x28AE JUMP JUMPDEST SWAP2 POP PUSH2 0x2D15 DUP3 PUSH2 0x2CAE JUMP JUMPDEST PUSH1 0x40 DUP3 ADD SWAP1 POP SWAP2 SWAP1 POP JUMP JUMPDEST PUSH1 0x0 PUSH1 0x20 DUP3 ADD SWAP1 POP DUP2 DUP2 SUB PUSH1 0x0 DUP4 ADD MSTORE PUSH2 0x2D39 DUP2 PUSH2 0x2CFD JUMP JUMPDEST SWAP1 POP SWAP2 SWAP1 POP JUMP JUMPDEST PUSH1 0x0 PUSH1 0x20 DUP3 DUP5 SUB SLT ISZERO PUSH2 0x2D56 JUMPI PUSH2 0x2D55 PUSH2 0x232B JUMP JUMPDEST JUMPDEST PUSH1 0x0 PUSH2 0x2D64 DUP5 DUP3 DUP6 ADD PUSH2 0x2BC7 JUMP JUMPDEST SWAP2 POP POP SWAP3 SWAP2 POP POP JUMP JUMPDEST PUSH32 0x4D79556E69737761705632526F757465723A20494E56414C49445F5041544800 PUSH1 0x0 DUP3 ADD MSTORE POP JUMP JUMPDEST PUSH1 0x0 PUSH2 0x2DA3 PUSH1 0x1F DUP4 PUSH2 0x28AE JUMP JUMPDEST SWAP2 POP PUSH2 0x2DAE DUP3 PUSH2 0x2D6D JUMP JUMPDEST PUSH1 0x20 DUP3 ADD SWAP1 POP SWAP2 SWAP1 POP JUMP JUMPDEST PUSH1 0x0 PUSH1 0x20 DUP3 ADD SWAP1 POP DUP2 DUP2 SUB PUSH1 0x0 DUP4 ADD MSTORE PUSH2 0x2DD2 DUP2 PUSH2 0x2D96 JUMP JUMPDEST SWAP1 POP SWAP2 SWAP1 POP JUMP JUMPDEST PUSH32 0x4D79556E69737761705632526F757465723A204558434553534956455F494E50 PUSH1 0x0 DUP3 ADD MSTORE PUSH32 0x55545F414D4F554E540000000000000000000000000000000000000000000000 PUSH1 0x20 DUP3 ADD MSTORE POP JUMP JUMPDEST PUSH1 0x0 PUSH2 0x2E35 PUSH1 0x29 DUP4 PUSH2 0x28AE JUMP JUMPDEST SWAP2 POP PUSH2 0x2E40 DUP3 PUSH2 0x2DD9 JUMP JUMPDEST PUSH1 0x40 DUP3 ADD SWAP1 POP SWAP2 SWAP1 POP JUMP JUMPDEST PUSH1 0x0 PUSH1 0x20 DUP3 ADD SWAP1 POP DUP2 DUP2 SUB PUSH1 0x0 DUP4 ADD MSTORE PUSH2 0x2E64 DUP2 PUSH2 0x2E28 JUMP JUMPDEST SWAP1 POP SWAP2 SWAP1 POP JUMP JUMPDEST PUSH32 0x4D79556E697377617056324C6962726172793A20494E56414C49445F50415448 PUSH1 0x0 DUP3 ADD MSTORE POP JUMP JUMPDEST PUSH1 0x0 PUSH2 0x2EA1 PUSH1 0x20 DUP4 PUSH2 0x28AE JUMP JUMPDEST SWAP2 POP PUSH2 0x2EAC DUP3 PUSH2 0x2E6B JUMP JUMPDEST PUSH1 0x20 DUP3 ADD SWAP1 POP SWAP2 SWAP1 POP JUMP JUMPDEST PUSH1 0x0 PUSH1 0x20 DUP3 ADD SWAP1 POP DUP2 DUP2 SUB PUSH1 0x0 DUP4 ADD MSTORE PUSH2 0x2ED0 DUP2 PUSH2 0x2E94 JUMP JUMPDEST SWAP1 POP SWAP2 SWAP1 POP JUMP JUMPDEST PUSH32 0x4E487B7100000000000000000000000000000000000000000000000000000000 PUSH1 0x0 MSTORE PUSH1 0x41 PUSH1 0x4 MSTORE PUSH1 0x24 PUSH1 0x0 REVERT JUMPDEST PUSH1 0x0 PUSH2 0x2F11 DUP3 PUSH2 0x2393 JUMP JUMPDEST SWAP2 POP PUSH2 0x2F1C DUP4 PUSH2 0x2393 JUMP JUMPDEST SWAP3 POP DUP3 DUP3 ADD SWAP1 POP DUP1 DUP3 GT ISZERO PUSH2 0x2F34 JUMPI PUSH2 0x2F33 PUSH2 0x29D4 JUMP JUMPDEST JUMPDEST SWAP3 SWAP2 POP POP JUMP JUMPDEST PUSH1 0x0 DUP2 PUSH1 0x60 SHL SWAP1 POP SWAP2 SWAP1 POP JUMP JUMPDEST PUSH1 0x0 PUSH2 0x2F52 DUP3 PUSH2 0x2F3A JUMP JUMPDEST SWAP1 POP SWAP2 SWAP1 POP JUMP JUMPDEST PUSH1 0x0 PUSH2 0x2F64 DUP3 PUSH2 0x2F47 JUMP JUMPDEST SWAP1 POP SWAP2 SWAP1 POP JUMP JUMPDEST PUSH2 0x2F7C PUSH2 0x2F77 DUP3 PUSH2 0x2355 JUMP JUMPDEST PUSH2 0x2F59 JUMP JUMPDEST DUP3 MSTORE POP POP JUMP JUMPDEST PUSH1 0x0 PUSH2 0x2F8E DUP3 DUP6 PUSH2 0x2F6B JUMP JUMPDEST PUSH1 0x14 DUP3 ADD SWAP2 POP PUSH2 0x2F9E DUP3 DUP5 PUSH2 0x2F6B JUMP JUMPDEST PUSH1 0x14 DUP3 ADD SWAP2 POP DUP2 SWAP1 POP SWAP4 SWAP3 POP POP POP JUMP JUMPDEST PUSH1 0x0 DUP2 SWAP1 POP SWAP3 SWAP2 POP POP JUMP JUMPDEST PUSH32 0xFF00000000000000000000000000000000000000000000000000000000000000 PUSH1 0x0 DUP3 ADD MSTORE POP JUMP JUMPDEST PUSH1 0x0 PUSH2 0x2FEF PUSH1 0x1 DUP4 PUSH2 0x2FAE JUMP JUMPDEST SWAP2 POP PUSH2 0x2FFA DUP3 PUSH2 0x2FB9 JUMP JUMPDEST PUSH1 0x1 DUP3 ADD SWAP1 POP SWAP2 SWAP1 POP JUMP JUMPDEST PUSH1 0x0 DUP2 SWAP1 POP SWAP2 SWAP1 POP JUMP JUMPDEST PUSH1 0x0 DUP2 SWAP1 POP SWAP2 SWAP1 POP JUMP JUMPDEST PUSH2 0x302A PUSH2 0x3025 DUP3 PUSH2 0x3005 JUMP JUMPDEST PUSH2 0x300F JUMP JUMPDEST DUP3 MSTORE POP POP JUMP JUMPDEST PUSH1 0x0 PUSH2 0x303B DUP3 PUSH2 0x2FE2 JUMP JUMPDEST SWAP2 POP PUSH2 0x3047 DUP3 DUP7 PUSH2 0x2F6B JUMP JUMPDEST PUSH1 0x14 DUP3 ADD SWAP2 POP PUSH2 0x3057 DUP3 DUP6 PUSH2 0x3019 JUMP JUMPDEST PUSH1 0x20 DUP3 ADD SWAP2 POP PUSH2 0x3067 DUP3 DUP5 PUSH2 0x3019 JUMP JUMPDEST PUSH1 0x20 DUP3 ADD SWAP2 POP DUP2 SWAP1 POP SWAP5 SWAP4 POP POP POP POP JUMP JUMPDEST PUSH1 0x0 DUP2 MLOAD SWAP1 POP SWAP2 SWAP1 POP JUMP JUMPDEST PUSH1 0x0 DUP3 DUP3 MSTORE PUSH1 0x20 DUP3 ADD SWAP1 POP SWAP3 SWAP2 POP POP JUMP JUMPDEST PUSH1 0x0 JUMPDEST DUP4 DUP2 LT ISZERO PUSH2 0x30B2 JUMPI DUP1 DUP3 ADD MLOAD DUP2 DUP5 ADD MSTORE PUSH1 0x20 DUP2 ADD SWAP1 POP PUSH2 0x3097 JUMP JUMPDEST PUSH1 0x0 DUP5 DUP5 ADD MSTORE POP POP POP POP JUMP JUMPDEST PUSH1 0x0 PUSH1 0x1F NOT PUSH1 0x1F DUP4 ADD AND SWAP1 POP SWAP2 SWAP1 POP JUMP JUMPDEST PUSH1 0x0 PUSH2 0x30DA DUP3 PUSH2 0x3078 JUMP JUMPDEST PUSH2 0x30E4 DUP2 DUP6 PUSH2 0x3083 JUMP JUMPDEST SWAP4 POP PUSH2 0x30F4 DUP2 DUP6 PUSH1 0x20 DUP7 ADD PUSH2 0x3094 JUMP JUMPDEST PUSH2 0x30FD DUP2 PUSH2 0x30BE JUMP JUMPDEST DUP5 ADD SWAP2 POP POP SWAP3 SWAP2 POP POP JUMP JUMPDEST PUSH1 0x0 PUSH1 0x80 DUP3 ADD SWAP1 POP PUSH2 0x311D PUSH1 0x0 DUP4 ADD DUP8 PUSH2 0x2456 JUMP JUMPDEST PUSH2 0x312A PUSH1 0x20 DUP4 ADD DUP7 PUSH2 0x2456 JUMP JUMPDEST PUSH2 0x3137 PUSH1 0x40 DUP4 ADD DUP6 PUSH2 0x266D JUMP JUMPDEST DUP2 DUP2 SUB PUSH1 0x60 DUP4 ADD MSTORE PUSH2 0x3149 DUP2 DUP5 PUSH2 0x30CF JUMP JUMPDEST SWAP1 POP SWAP6 SWAP5 POP POP POP POP POP JUMP JUMPDEST PUSH1 0x0 PUSH2 0x315F DUP3 PUSH2 0x2393 JUMP JUMPDEST SWAP2 POP PUSH1 0x0 DUP3 SUB PUSH2 0x3172 JUMPI PUSH2 0x3171 PUSH2 0x29D4 JUMP JUMPDEST JUMPDEST PUSH1 0x1 DUP3 SUB SWAP1 POP SWAP2 SWAP1 POP JUMP JUMPDEST PUSH1 0x0 PUSH14 0xFFFFFFFFFFFFFFFFFFFFFFFFFFFF DUP3 AND SWAP1 POP SWAP2 SWAP1 POP JUMP JUMPDEST PUSH2 0x31A0 DUP2 PUSH2 0x317D JUMP JUMPDEST DUP2 EQ PUSH2 0x31AB JUMPI PUSH1 0x0 DUP1 REVERT JUMPDEST POP JUMP JUMPDEST PUSH1 0x0 DUP2 MLOAD SWAP1 POP PUSH2 0x31BD DUP2 PUSH2 0x3197 JUMP JUMPDEST SWAP3 SWAP2 POP POP JUMP JUMPDEST PUSH1 0x0 PUSH4 0xFFFFFFFF DUP3 AND SWAP1 POP SWAP2 SWAP1 POP JUMP JUMPDEST PUSH2 0x31DC DUP2 PUSH2 0x31C3 JUMP JUMPDEST DUP2 EQ PUSH2 0x31E7 JUMPI PUSH1 0x0 DUP1 REVERT JUMPDEST POP JUMP JUMPDEST PUSH1 0x0 DUP2 MLOAD SWAP1 POP PUSH2 0x31F9 DUP2 PUSH2 0x31D3 JUMP JUMPDEST SWAP3 SWAP2 POP POP JUMP JUMPDEST PUSH1 0x0 DUP1 PUSH1 0x0 PUSH1 0x60 DUP5 DUP7 SUB SLT ISZERO PUSH2 0x3218 JUMPI PUSH2 0x3217 PUSH2 0x232B JUMP JUMPDEST JUMPDEST PUSH1 0x0 PUSH2 0x3226 DUP7 DUP3 DUP8 ADD PUSH2 0x31AE JUMP JUMPDEST SWAP4 POP POP PUSH1 0x20 PUSH2 0x3237 DUP7 DUP3 DUP8 ADD PUSH2 0x31AE JUMP JUMPDEST SWAP3 POP POP PUSH1 0x40 PUSH2 0x3248 DUP7 DUP3 DUP8 ADD PUSH2 0x31EA JUMP JUMPDEST SWAP2 POP POP SWAP3 POP SWAP3 POP SWAP3 JUMP JUMPDEST PUSH32 0x4D79556E697377617056324C6962726172793A20494E53554646494349454E54 PUSH1 0x0 DUP3 ADD MSTORE PUSH32 0x5F494E5055545F414D4F554E5400000000000000000000000000000000000000 PUSH1 0x20 DUP3 ADD MSTORE POP JUMP JUMPDEST PUSH1 0x0 PUSH2 0x32AE PUSH1 0x2D DUP4 PUSH2 0x28AE JUMP JUMPDEST SWAP2 POP PUSH2 0x32B9 DUP3 PUSH2 0x3252 JUMP JUMPDEST PUSH1 0x40 DUP3 ADD SWAP1 POP SWAP2 SWAP1 POP JUMP JUMPDEST PUSH1 0x0 PUSH1 0x20 DUP3 ADD SWAP1 POP DUP2 DUP2 SUB PUSH1 0x0 DUP4 ADD MSTORE PUSH2 0x32DD DUP2 PUSH2 0x32A1 JUMP JUMPDEST SWAP1 POP SWAP2 SWAP1 POP JUMP JUMPDEST PUSH32 0x4D79556E697377617056324C6962726172793A20494E53554646494349454E54 PUSH1 0x0 DUP3 ADD MSTORE PUSH32 0x5F4C495155494449545900000000000000000000000000000000000000000000 PUSH1 0x20 DUP3 ADD MSTORE POP JUMP JUMPDEST PUSH1 0x0 PUSH2 0x3340 PUSH1 0x2A DUP4 PUSH2 0x28AE JUMP JUMPDEST SWAP2 POP PUSH2 0x334B DUP3 PUSH2 0x32E4 JUMP JUMPDEST PUSH1 0x40 DUP3 ADD SWAP1 POP SWAP2 SWAP1 POP JUMP JUMPDEST PUSH1 0x0 PUSH1 0x20 DUP3 ADD SWAP1 POP DUP2 DUP2 SUB PUSH1 0x0 DUP4 ADD MSTORE PUSH2 0x336F DUP2 PUSH2 0x3333 JUMP JUMPDEST SWAP1 POP SWAP2 SWAP1 POP JUMP JUMPDEST PUSH1 0x0 PUSH2 0x3381 DUP3 PUSH2 0x2393 JUMP JUMPDEST SWAP2 POP PUSH2 0x338C DUP4 PUSH2 0x2393 JUMP JUMPDEST SWAP3 POP DUP3 DUP3 MUL PUSH2 0x339A DUP2 PUSH2 0x2393 JUMP JUMPDEST SWAP2 POP DUP3 DUP3 DIV DUP5 EQ DUP4 ISZERO OR PUSH2 0x33B1 JUMPI PUSH2 0x33B0 PUSH2 0x29D4 JUMP JUMPDEST JUMPDEST POP SWAP3 SWAP2 POP POP JUMP JUMPDEST PUSH32 0x4E487B7100000000000000000000000000000000000000000000000000000000 PUSH1 0x0 MSTORE PUSH1 0x12 PUSH1 0x4 MSTORE PUSH1 0x24 PUSH1 0x0 REVERT JUMPDEST PUSH1 0x0 PUSH2 0x33F2 DUP3 PUSH2 0x2393 JUMP JUMPDEST SWAP2 POP PUSH2 0x33FD DUP4 PUSH2 0x2393 JUMP JUMPDEST SWAP3 POP DUP3 PUSH2 0x340D JUMPI PUSH2 0x340C PUSH2 0x33B8 JUMP JUMPDEST JUMPDEST DUP3 DUP3 DIV SWAP1 POP SWAP3 SWAP2 POP POP JUMP JUMPDEST PUSH32 0x4D79556E697377617056324C6962726172793A204944454E544943414C5F4144 PUSH1 0x0 DUP3 ADD MSTORE PUSH32 0x4452455353455300000000000000000000000000000000000000000000000000 PUSH1 0x20 DUP3 ADD MSTORE POP JUMP JUMPDEST PUSH1 0x0 PUSH2 0x3474 PUSH1 0x27 DUP4 PUSH2 0x28AE JUMP JUMPDEST SWAP2 POP PUSH2 0x347F DUP3 PUSH2 0x3418 JUMP JUMPDEST PUSH1 0x40 DUP3 ADD SWAP1 POP SWAP2 SWAP1 POP JUMP JUMPDEST PUSH1 0x0 PUSH1 0x20 DUP3 ADD SWAP1 POP DUP2 DUP2 SUB PUSH1 0x0 DUP4 ADD MSTORE PUSH2 0x34A3 DUP2 PUSH2 0x3467 JUMP JUMPDEST SWAP1 POP SWAP2 SWAP1 POP JUMP JUMPDEST PUSH32 0x4D79556E697377617056324C6962726172793A205A45524F5F41444452455353 PUSH1 0x0 DUP3 ADD MSTORE POP JUMP JUMPDEST PUSH1 0x0 PUSH2 0x34E0 PUSH1 0x20 DUP4 PUSH2 0x28AE JUMP JUMPDEST SWAP2 POP PUSH2 0x34EB DUP3 PUSH2 0x34AA JUMP JUMPDEST PUSH1 0x20 DUP3 ADD SWAP1 POP SWAP2 SWAP1 POP JUMP JUMPDEST PUSH1 0x0 PUSH1 0x20 DUP3 ADD SWAP1 POP DUP2 DUP2 SUB PUSH1 0x0 DUP4 ADD MSTORE PUSH2 0x350F DUP2 PUSH2 0x34D3 JUMP JUMPDEST SWAP1 POP SWAP2 SWAP1 POP JUMP JUMPDEST PUSH32 0x4D79556E697377617056324C6962726172793A20494E53554646494349454E54 PUSH1 0x0 DUP3 ADD MSTORE PUSH32 0x5F414D4F554E5400000000000000000000000000000000000000000000000000 PUSH1 0x20 DUP3 ADD MSTORE POP JUMP JUMPDEST PUSH1 0x0 PUSH2 0x3572 PUSH1 0x27 DUP4 PUSH2 0x28AE JUMP JUMPDEST SWAP2 POP PUSH2 0x357D DUP3 PUSH2 0x3516 JUMP JUMPDEST PUSH1 0x40 DUP3 ADD SWAP1 POP SWAP2 SWAP1 POP JUMP JUMPDEST PUSH1 0x0 PUSH1 0x20 DUP3 ADD SWAP1 POP DUP2 DUP2 SUB PUSH1 0x0 DUP4 ADD MSTORE PUSH2 0x35A1 DUP2 PUSH2 0x3565 JUMP JUMPDEST SWAP1 POP SWAP2 SWAP1 POP JUMP JUMPDEST PUSH32 0x4D79556E697377617056324C6962726172793A20494E53554646494349454E54 PUSH1 0x0 DUP3 ADD MSTORE PUSH32 0x5F4F55545055545F414D4F554E54000000000000000000000000000000000000 PUSH1 0x20 DUP3 ADD MSTORE POP JUMP JUMPDEST PUSH1 0x0 PUSH2 0x3604 PUSH1 0x2E DUP4 PUSH2 0x28AE JUMP JUMPDEST SWAP2 POP PUSH2 0x360F DUP3 PUSH2 0x35A8 JUMP JUMPDEST PUSH1 0x40 DUP3 ADD SWAP1 POP SWAP2 SWAP1 POP JUMP JUMPDEST PUSH1 0x0 PUSH1 0x20 DUP3 ADD SWAP1 POP DUP2 DUP2 SUB PUSH1 0x0 DUP4 ADD MSTORE PUSH2 0x3633 DUP2 PUSH2 0x35F7 JUMP JUMPDEST SWAP1 POP SWAP2 SWAP1 POP JUMP INVALID PUSH1 0x80 PUSH1 0x40 MSTORE PUSH1 0x1 PUSH1 0x6 SSTORE CALLVALUE DUP1 ISZERO PUSH2 0x15 JUMPI PUSH1 0x0 DUP1 REVERT JUMPDEST POP PUSH1 0x40 MLOAD DUP1 PUSH1 0x40 ADD PUSH1 0x40 MSTORE DUP1 PUSH1 0xA DUP2 MSTORE PUSH1 0x20 ADD PUSH32 0x556E697377617020563200000000000000000000000000000000000000000000 DUP2 MSTORE POP PUSH1 0x40 MLOAD DUP1 PUSH1 0x40 ADD PUSH1 0x40 MSTORE DUP1 PUSH1 0x6 DUP2 MSTORE PUSH1 0x20 ADD PUSH32 0x554E492D56320000000000000000000000000000000000000000000000000000 DUP2 MSTORE POP DUP2 PUSH1 0x3 SWAP1 DUP2 PUSH2 0x91 SWAP2 SWAP1 PUSH2 0x342 JUMP JUMPDEST POP DUP1 PUSH1 0x4 SWAP1 DUP2 PUSH2 0xA1 SWAP2 SWAP1 PUSH2 0x342 JUMP JUMPDEST POP POP POP CALLER PUSH1 0x7 PUSH1 0x0 PUSH2 0x100 EXP DUP2 SLOAD DUP2 PUSH20 0xFFFFFFFFFFFFFFFFFFFFFFFFFFFFFFFFFFFFFFFF MUL NOT AND SWAP1 DUP4 PUSH20 0xFFFFFFFFFFFFFFFFFFFFFFFFFFFFFFFFFFFFFFFF AND MUL OR SWAP1 SSTORE POP PUSH1 0x1 PUSH1 0x5 DUP2 SWAP1 SSTORE POP PUSH2 0x414 JUMP JUMPDEST PUSH1 0x0 DUP2 MLOAD SWAP1 POP SWAP2 SWAP1 POP JUMP JUMPDEST PUSH32 0x4E487B7100000000000000000000000000000000000000000000000000000000 PUSH1 0x0 MSTORE PUSH1 0x41 PUSH1 0x4 MSTORE PUSH1 0x24 PUSH1 0x0 REVERT JUMPDEST PUSH32 0x4E487B7100000000000000000000000000000000000000000000000000000000 PUSH1 0x0 MSTORE PUSH1 0x22 PUSH1 0x4 MSTORE PUSH1 0x24 PUSH1 0x0 REVERT JUMPDEST PUSH1 0x0 PUSH1 0x2 DUP3 DIV SWAP1 POP PUSH1 0x1 DUP3 AND DUP1 PUSH2 0x173 JUMPI PUSH1 0x7F DUP3 AND SWAP2 POP JUMPDEST PUSH1 0x20 DUP3 LT DUP2 SUB PUSH2 0x186 JUMPI PUSH2 0x185 PUSH2 0x12C JUMP JUMPDEST JUMPDEST POP SWAP2 SWAP1 POP JUMP JUMPDEST PUSH1 0x0 DUP2 SWAP1 POP DUP2 PUSH1 0x0 MSTORE PUSH1 0x20 PUSH1 0x0 KECCAK256 SWAP1 POP SWAP2 SWAP1 POP JUMP JUMPDEST PUSH1 0x0 PUSH1 0x20 PUSH1 0x1F DUP4 ADD DIV SWAP1 POP SWAP2 SWAP1 POP JUMP JUMPDEST PUSH1 0x0 DUP3 DUP3 SHL SWAP1 POP SWAP3 SWAP2 POP POP JUMP JUMPDEST PUSH1 0x0 PUSH1 0x8 DUP4 MUL PUSH2 0x1EE PUSH32 0xFFFFFFFFFFFFFFFFFFFFFFFFFFFFFFFFFFFFFFFFFFFFFFFFFFFFFFFFFFFFFFFF DUP3 PUSH2 0x1B1 JUMP JUMPDEST PUSH2 0x1F8 DUP7 DUP4 PUSH2 0x1B1 JUMP JUMPDEST SWAP6 POP DUP1 NOT DUP5 AND SWAP4 POP DUP1 DUP7 AND DUP5 OR SWAP3 POP POP POP SWAP4 SWAP3 POP POP POP JUMP JUMPDEST PUSH1 0x0 DUP2 SWAP1 POP SWAP2 SWAP1 POP JUMP JUMPDEST PUSH1 0x0 DUP2 SWAP1 POP SWAP2 SWAP1 POP JUMP JUMPDEST PUSH1 0x0 PUSH2 0x23F PUSH2 0x23A PUSH2 0x235 DUP5 PUSH2 0x210 JUMP JUMPDEST PUSH2 0x21A JUMP JUMPDEST PUSH2 0x210 JUMP JUMPDEST SWAP1 POP SWAP2 SWAP1 POP JUMP JUMPDEST PUSH1 0x0 DUP2 SWAP1 POP SWAP2 SWAP1 POP JUMP JUMPDEST PUSH2 0x259 DUP4 PUSH2 0x224 JUMP JUMPDEST PUSH2 0x26D PUSH2 0x265 DUP3 PUSH2 0x246 JUMP JUMPDEST DUP5 DUP5 SLOAD PUSH2 0x1BE JUMP JUMPDEST DUP3 SSTORE POP POP POP POP JUMP JUMPDEST PUSH1 0x0 SWAP1 JUMP JUMPDEST PUSH2 0x282 PUSH2 0x275 JUMP JUMPDEST PUSH2 0x28D DUP2 DUP5 DUP5 PUSH2 0x250 JUMP JUMPDEST POP POP POP JUMP JUMPDEST JUMPDEST DUP2 DUP2 LT ISZERO PUSH2 0x2B1 JUMPI PUSH2 0x2A6 PUSH1 0x0 DUP3 PUSH2 0x27A JUMP JUMPDEST PUSH1 0x1 DUP2 ADD SWAP1 POP PUSH2 0x293 JUMP JUMPDEST POP POP JUMP JUMPDEST PUSH1 0x1F DUP3 GT ISZERO PUSH2 0x2F6 JUMPI PUSH2 0x2C7 DUP2 PUSH2 0x18C JUMP JUMPDEST PUSH2 0x2D0 DUP5 PUSH2 0x1A1 JUMP JUMPDEST DUP2 ADD PUSH1 0x20 DUP6 LT ISZERO PUSH2 0x2DF JUMPI DUP2 SWAP1 POP JUMPDEST PUSH2 0x2F3 PUSH2 0x2EB DUP6 PUSH2 0x1A1 JUMP JUMPDEST DUP4 ADD DUP3 PUSH2 0x292 JUMP JUMPDEST POP POP JUMPDEST POP POP POP JUMP JUMPDEST PUSH1 0x0 DUP3 DUP3 SHR SWAP1 POP SWAP3 SWAP2 POP POP JUMP JUMPDEST PUSH1 0x0 PUSH2 0x319 PUSH1 0x0 NOT DUP5 PUSH1 0x8 MUL PUSH2 0x2FB JUMP JUMPDEST NOT DUP1 DUP4 AND SWAP2 POP POP SWAP3 SWAP2 POP POP JUMP JUMPDEST PUSH1 0x0 PUSH2 0x332 DUP4 DUP4 PUSH2 0x308 JUMP JUMPDEST SWAP2 POP DUP3 PUSH1 0x2 MUL DUP3 OR SWAP1 POP SWAP3 SWAP2 POP POP JUMP JUMPDEST PUSH2 0x34B DUP3 PUSH2 0xF2 JUMP JUMPDEST PUSH8 0xFFFFFFFFFFFFFFFF DUP2 GT ISZERO PUSH2 0x364 JUMPI PUSH2 0x363 PUSH2 0xFD JUMP JUMPDEST JUMPDEST PUSH2 0x36E DUP3 SLOAD PUSH2 0x15B JUMP JUMPDEST PUSH2 0x379 DUP3 DUP3 DUP6 PUSH2 0x2B5 JUMP JUMPDEST PUSH1 0x0 PUSH1 0x20 SWAP1 POP PUSH1 0x1F DUP4 GT PUSH1 0x1 DUP2 EQ PUSH2 0x3AC JUMPI PUSH1 0x0 DUP5 ISZERO PUSH2 0x39A JUMPI DUP3 DUP8 ADD MLOAD SWAP1 POP JUMPDEST PUSH2 0x3A4 DUP6 DUP3 PUSH2 0x326 JUMP JUMPDEST DUP7 SSTORE POP PUSH2 0x40C JUMP JUMPDEST PUSH1 0x1F NOT DUP5 AND PUSH2 0x3BA DUP7 PUSH2 0x18C JUMP JUMPDEST PUSH1 0x0 JUMPDEST DUP3 DUP2 LT ISZERO PUSH2 0x3E2 JUMPI DUP5 DUP10 ADD MLOAD DUP3 SSTORE PUSH1 0x1 DUP3 ADD SWAP2 POP PUSH1 0x20 DUP6 ADD SWAP5 POP PUSH1 0x20 DUP2 ADD SWAP1 POP PUSH2 0x3BD JUMP JUMPDEST DUP7 DUP4 LT ISZERO PUSH2 0x3FF JUMPI DUP5 DUP10 ADD MLOAD PUSH2 0x3FB PUSH1 0x1F DUP10 AND DUP3 PUSH2 0x308 JUMP JUMPDEST DUP4 SSTORE POP JUMPDEST PUSH1 0x1 PUSH1 0x2 DUP9 MUL ADD DUP9 SSTORE POP POP POP JUMPDEST POP POP POP POP POP POP JUMP JUMPDEST PUSH2 0x3E2C DUP1 PUSH2 0x423 PUSH1 0x0 CODECOPY PUSH1 0x0 RETURN INVALID PUSH1 0x80 PUSH1 0x40 MSTORE CALLVALUE DUP1 ISZERO PUSH2 0x10 JUMPI PUSH1 0x0 DUP1 REVERT JUMPDEST POP PUSH1 0x4 CALLDATASIZE LT PUSH2 0x14D JUMPI PUSH1 0x0 CALLDATALOAD PUSH1 0xE0 SHR DUP1 PUSH4 0x5A3D5493 GT PUSH2 0xC3 JUMPI DUP1 PUSH4 0xA9059CBB GT PUSH2 0x7C JUMPI DUP1 PUSH4 0xA9059CBB EQ PUSH2 0x3A7 JUMPI DUP1 PUSH4 0xBC25CF77 EQ PUSH2 0x3D7 JUMPI DUP1 PUSH4 0xC45A0155 EQ PUSH2 0x3F3 JUMPI DUP1 PUSH4 0xD21220A7 EQ PUSH2 0x411 JUMPI DUP1 PUSH4 0xDD62ED3E EQ PUSH2 0x42F JUMPI DUP1 PUSH4 0xFFF6CAE9 EQ PUSH2 0x45F JUMPI PUSH2 0x14D JUMP JUMPDEST DUP1 PUSH4 0x5A3D5493 EQ PUSH2 0x2BC JUMPI DUP1 PUSH4 0x6A627842 EQ PUSH2 0x2DA JUMPI DUP1 PUSH4 0x70A08231 EQ PUSH2 0x30A JUMPI DUP1 PUSH4 0x7464FC3D EQ PUSH2 0x33A JUMPI DUP1 PUSH4 0x89AFCB44 EQ PUSH2 0x358 JUMPI DUP1 PUSH4 0x95D89B41 EQ PUSH2 0x389 JUMPI PUSH2 0x14D JUMP JUMPDEST DUP1 PUSH4 0x18160DDD GT PUSH2 0x115 JUMPI DUP1 PUSH4 0x18160DDD EQ PUSH2 0x1FA JUMPI DUP1 PUSH4 0x23B872DD EQ PUSH2 0x218 JUMPI DUP1 PUSH4 0x313CE567 EQ PUSH2 0x248 JUMPI DUP1 PUSH4 0x485CC955 EQ PUSH2 0x266 JUMPI DUP1 PUSH4 0x490E6CBC EQ PUSH2 0x282 JUMPI DUP1 PUSH4 0x5909C0D5 EQ PUSH2 0x29E JUMPI PUSH2 0x14D JUMP JUMPDEST DUP1 PUSH4 0x22C0D9F EQ PUSH2 0x152 JUMPI DUP1 PUSH4 0x6FDDE03 EQ PUSH2 0x16E JUMPI DUP1 PUSH4 0x902F1AC EQ PUSH2 0x18C JUMPI DUP1 PUSH4 0x95EA7B3 EQ PUSH2 0x1AC JUMPI DUP1 PUSH4 0xDFE1681 EQ PUSH2 0x1DC JUMPI JUMPDEST PUSH1 0x0 DUP1 REVERT JUMPDEST PUSH2 0x16C PUSH1 0x4 DUP1 CALLDATASIZE SUB DUP2 ADD SWAP1 PUSH2 0x167 SWAP2 SWAP1 PUSH2 0x2F02 JUMP JUMPDEST PUSH2 0x469 JUMP JUMPDEST STOP JUMPDEST PUSH2 0x176 PUSH2 0xB02 JUMP JUMPDEST PUSH1 0x40 MLOAD PUSH2 0x183 SWAP2 SWAP1 PUSH2 0x301A JUMP JUMPDEST PUSH1 0x40 MLOAD DUP1 SWAP2 SUB SWAP1 RETURN JUMPDEST PUSH2 0x194 PUSH2 0xB94 JUMP JUMPDEST PUSH1 0x40 MLOAD PUSH2 0x1A3 SWAP4 SWAP3 SWAP2 SWAP1 PUSH2 0x3084 JUMP JUMPDEST PUSH1 0x40 MLOAD DUP1 SWAP2 SUB SWAP1 RETURN JUMPDEST PUSH2 0x1C6 PUSH1 0x4 DUP1 CALLDATASIZE SUB DUP2 ADD SWAP1 PUSH2 0x1C1 SWAP2 SWAP1 PUSH2 0x30BB JUMP JUMPDEST PUSH2 0xBF1 JUMP JUMPDEST PUSH1 0x40 MLOAD PUSH2 0x1D3 SWAP2 SWAP1 PUSH2 0x3116 JUMP JUMPDEST PUSH1 0x40 MLOAD DUP1 SWAP2 SUB SWAP1 RETURN JUMPDEST PUSH2 0x1E4 PUSH2 0xC14 JUMP JUMPDEST PUSH1 0x40 MLOAD PUSH2 0x1F1 SWAP2 SWAP1 PUSH2 0x3140 JUMP JUMPDEST PUSH1 0x40 MLOAD DUP1 SWAP2 SUB SWAP1 RETURN JUMPDEST PUSH2 0x202 PUSH2 0xC3A JUMP JUMPDEST PUSH1 0x40 MLOAD PUSH2 0x20F SWAP2 SWAP1 PUSH2 0x316A JUMP JUMPDEST PUSH1 0x40 MLOAD DUP1 SWAP2 SUB SWAP1 RETURN JUMPDEST PUSH2 0x232 PUSH1 0x4 DUP1 CALLDATASIZE SUB DUP2 ADD SWAP1 PUSH2 0x22D SWAP2 SWAP1 PUSH2 0x3185 JUMP JUMPDEST PUSH2 0xC44 JUMP JUMPDEST PUSH1 0x40 MLOAD PUSH2 0x23F SWAP2 SWAP1 PUSH2 0x3116 JUMP JUMPDEST PUSH1 0x40 MLOAD DUP1 SWAP2 SUB SWAP1 RETURN JUMPDEST PUSH2 0x250 PUSH2 0xC73 JUMP JUMPDEST PUSH1 0x40 MLOAD PUSH2 0x25D SWAP2 SWAP1 PUSH2 0x31F4 JUMP JUMPDEST PUSH1 0x40 MLOAD DUP1 SWAP2 SUB SWAP1 RETURN JUMPDEST PUSH2 0x280 PUSH1 0x4 DUP1 CALLDATASIZE SUB DUP2 ADD SWAP1 PUSH2 0x27B SWAP2 SWAP1 PUSH2 0x320F JUMP JUMPDEST PUSH2 0xC7C JUMP JUMPDEST STOP JUMPDEST PUSH2 0x29C PUSH1 0x4 DUP1 CALLDATASIZE SUB DUP2 ADD SWAP1 PUSH2 0x297 SWAP2 SWAP1 PUSH2 0x324F JUMP JUMPDEST PUSH2 0xD92 JUMP JUMPDEST STOP JUMPDEST PUSH2 0x2A6 PUSH2 0x1320 JUMP JUMPDEST PUSH1 0x40 MLOAD PUSH2 0x2B3 SWAP2 SWAP1 PUSH2 0x316A JUMP JUMPDEST PUSH1 0x40 MLOAD DUP1 SWAP2 SUB SWAP1 RETURN JUMPDEST PUSH2 0x2C4 PUSH2 0x1326 JUMP JUMPDEST PUSH1 0x40 MLOAD PUSH2 0x2D1 SWAP2 SWAP1 PUSH2 0x316A JUMP JUMPDEST PUSH1 0x40 MLOAD DUP1 SWAP2 SUB SWAP1 RETURN JUMPDEST PUSH2 0x2F4 PUSH1 0x4 DUP1 CALLDATASIZE SUB DUP2 ADD SWAP1 PUSH2 0x2EF SWAP2 SWAP1 PUSH2 0x32D7 JUMP JUMPDEST PUSH2 0x132C JUMP JUMPDEST PUSH1 0x40 MLOAD PUSH2 0x301 SWAP2 SWAP1 PUSH2 0x316A JUMP JUMPDEST PUSH1 0x40 MLOAD DUP1 SWAP2 SUB SWAP1 RETURN JUMPDEST PUSH2 0x324 PUSH1 0x4 DUP1 CALLDATASIZE SUB DUP2 ADD SWAP1 PUSH2 0x31F SWAP2 SWAP1 PUSH2 0x32D7 JUMP JUMPDEST PUSH2 0x172F JUMP JUMPDEST PUSH1 0x40 MLOAD PUSH2 0x331 SWAP2 SWAP1 PUSH2 0x316A JUMP JUMPDEST PUSH1 0x40 MLOAD DUP1 SWAP2 SUB SWAP1 RETURN JUMPDEST PUSH2 0x342 PUSH2 0x1777 JUMP JUMPDEST PUSH1 0x40 MLOAD PUSH2 0x34F SWAP2 SWAP1 PUSH2 0x316A JUMP JUMPDEST PUSH1 0x40 MLOAD DUP1 SWAP2 SUB SWAP1 RETURN JUMPDEST PUSH2 0x372 PUSH1 0x4 DUP1 CALLDATASIZE SUB DUP2 ADD SWAP1 PUSH2 0x36D SWAP2 SWAP1 PUSH2 0x32D7 JUMP JUMPDEST PUSH2 0x177D JUMP JUMPDEST PUSH1 0x40 MLOAD PUSH2 0x380 SWAP3 SWAP2 SWAP1 PUSH2 0x3304 JUMP JUMPDEST PUSH1 0x40 MLOAD DUP1 SWAP2 SUB SWAP1 RETURN JUMPDEST PUSH2 0x391 PUSH2 0x1D71 JUMP JUMPDEST PUSH1 0x40 MLOAD PUSH2 0x39E SWAP2 SWAP1 PUSH2 0x301A JUMP JUMPDEST PUSH1 0x40 MLOAD DUP1 SWAP2 SUB SWAP1 RETURN JUMPDEST PUSH2 0x3C1 PUSH1 0x4 DUP1 CALLDATASIZE SUB DUP2 ADD SWAP1 PUSH2 0x3BC SWAP2 SWAP1 PUSH2 0x30BB JUMP JUMPDEST PUSH2 0x1E03 JUMP JUMPDEST PUSH1 0x40 MLOAD PUSH2 0x3CE SWAP2 SWAP1 PUSH2 0x3116 JUMP JUMPDEST PUSH1 0x40 MLOAD DUP1 SWAP2 SUB SWAP1 RETURN JUMPDEST PUSH2 0x3F1 PUSH1 0x4 DUP1 CALLDATASIZE SUB DUP2 ADD SWAP1 PUSH2 0x3EC SWAP2 SWAP1 PUSH2 0x32D7 JUMP JUMPDEST PUSH2 0x1E26 JUMP JUMPDEST STOP JUMPDEST PUSH2 0x3FB PUSH2 0x212C JUMP JUMPDEST PUSH1 0x40 MLOAD PUSH2 0x408 SWAP2 SWAP1 PUSH2 0x3140 JUMP JUMPDEST PUSH1 0x40 MLOAD DUP1 SWAP2 SUB SWAP1 RETURN JUMPDEST PUSH2 0x419 PUSH2 0x2152 JUMP JUMPDEST PUSH1 0x40 MLOAD PUSH2 0x426 SWAP2 SWAP1 PUSH2 0x3140 JUMP JUMPDEST PUSH1 0x40 MLOAD DUP1 SWAP2 SUB SWAP1 RETURN JUMPDEST PUSH2 0x449 PUSH1 0x4 DUP1 CALLDATASIZE SUB DUP2 ADD SWAP1 PUSH2 0x444 SWAP2 SWAP1 PUSH2 0x320F JUMP JUMPDEST PUSH2 0x2178 JUMP JUMPDEST PUSH1 0x40 MLOAD PUSH2 0x456 SWAP2 SWAP1 PUSH2 0x316A JUMP JUMPDEST PUSH1 0x40 MLOAD DUP1 SWAP2 SUB SWAP1 RETURN JUMPDEST PUSH2 0x467 PUSH2 0x21FF JUMP JUMPDEST STOP JUMPDEST PUSH1 0x2 PUSH1 0x5 SLOAD SUB PUSH2 0x4AE JUMPI PUSH1 0x40 MLOAD PUSH32 0x8C379A000000000000000000000000000000000000000000000000000000000 DUP2 MSTORE PUSH1 0x4 ADD PUSH2 0x4A5 SWAP1 PUSH2 0x3379 JUMP JUMPDEST PUSH1 0x40 MLOAD DUP1 SWAP2 SUB SWAP1 REVERT JUMPDEST PUSH1 0x2 PUSH1 0x5 DUP2 SWAP1 SSTORE POP PUSH1 0x0 DUP6 GT DUP1 PUSH2 0x4C5 JUMPI POP PUSH1 0x0 DUP5 GT JUMPDEST PUSH2 0x504 JUMPI PUSH1 0x40 MLOAD PUSH32 0x8C379A000000000000000000000000000000000000000000000000000000000 DUP2 MSTORE PUSH1 0x4 ADD PUSH2 0x4FB SWAP1 PUSH2 0x340B JUMP JUMPDEST PUSH1 0x40 MLOAD DUP1 SWAP2 SUB SWAP1 REVERT JUMPDEST PUSH1 0x0 DUP1 PUSH2 0x50F PUSH2 0xB94 JUMP JUMPDEST POP PUSH14 0xFFFFFFFFFFFFFFFFFFFFFFFFFFFF AND SWAP2 POP PUSH14 0xFFFFFFFFFFFFFFFFFFFFFFFFFFFF AND SWAP2 POP DUP2 DUP8 LT DUP1 ISZERO PUSH2 0x542 JUMPI POP DUP1 DUP7 LT JUMPDEST PUSH2 0x581 JUMPI PUSH1 0x40 MLOAD PUSH32 0x8C379A000000000000000000000000000000000000000000000000000000000 DUP2 MSTORE PUSH1 0x4 ADD PUSH2 0x578 SWAP1 PUSH2 0x349D JUMP JUMPDEST PUSH1 0x40 MLOAD DUP1 SWAP2 SUB SWAP1 REVERT JUMPDEST PUSH1 0x0 DUP1 PUSH1 0x0 PUSH1 0x8 PUSH1 0x0 SWAP1 SLOAD SWAP1 PUSH2 0x100 EXP SWAP1 DIV PUSH20 0xFFFFFFFFFFFFFFFFFFFFFFFFFFFFFFFFFFFFFFFF AND SWAP1 POP PUSH1 0x0 PUSH1 0x9 PUSH1 0x0 SWAP1 SLOAD SWAP1 PUSH2 0x100 EXP SWAP1 DIV PUSH20 0xFFFFFFFFFFFFFFFFFFFFFFFFFFFFFFFFFFFFFFFF AND SWAP1 POP DUP2 PUSH20 0xFFFFFFFFFFFFFFFFFFFFFFFFFFFFFFFFFFFFFFFF AND DUP10 PUSH20 0xFFFFFFFFFFFFFFFFFFFFFFFFFFFFFFFFFFFFFFFF AND EQ ISZERO DUP1 ISZERO PUSH2 0x63A JUMPI POP DUP1 PUSH20 0xFFFFFFFFFFFFFFFFFFFFFFFFFFFFFFFFFFFFFFFF AND DUP10 PUSH20 0xFFFFFFFFFFFFFFFFFFFFFFFFFFFFFFFFFFFFFFFF AND EQ ISZERO JUMPDEST PUSH2 0x679 JUMPI PUSH1 0x40 MLOAD PUSH32 0x8C379A000000000000000000000000000000000000000000000000000000000 DUP2 MSTORE PUSH1 0x4 ADD PUSH2 0x670 SWAP1 PUSH2 0x3509 JUMP JUMPDEST PUSH1 0x40 MLOAD DUP1 SWAP2 SUB SWAP1 REVERT JUMPDEST PUSH1 0x0 DUP12 GT ISZERO PUSH2 0x702 JUMPI DUP2 PUSH20 0xFFFFFFFFFFFFFFFFFFFFFFFFFFFFFFFFFFFFFFFF AND PUSH4 0xA9059CBB DUP11 DUP14 PUSH1 0x40 MLOAD DUP4 PUSH4 0xFFFFFFFF AND PUSH1 0xE0 SHL DUP2 MSTORE PUSH1 0x4 ADD PUSH2 0x6BD SWAP3 SWAP2 SWAP1 PUSH2 0x3529 JUMP JUMPDEST PUSH1 0x20 PUSH1 0x40 MLOAD DUP1 DUP4 SUB DUP2 PUSH1 0x0 DUP8 GAS CALL ISZERO DUP1 ISZERO PUSH2 0x6DC JUMPI RETURNDATASIZE PUSH1 0x0 DUP1 RETURNDATACOPY RETURNDATASIZE PUSH1 0x0 REVERT JUMPDEST POP POP POP POP PUSH1 0x40 MLOAD RETURNDATASIZE PUSH1 0x1F NOT PUSH1 0x1F DUP3 ADD AND DUP3 ADD DUP1 PUSH1 0x40 MSTORE POP DUP2 ADD SWAP1 PUSH2 0x700 SWAP2 SWAP1 PUSH2 0x357E JUMP JUMPDEST POP JUMPDEST PUSH1 0x0 DUP11 GT ISZERO PUSH2 0x78B JUMPI DUP1 PUSH20 0xFFFFFFFFFFFFFFFFFFFFFFFFFFFFFFFFFFFFFFFF AND PUSH4 0xA9059CBB DUP11 DUP13 PUSH1 0x40 MLOAD DUP4 PUSH4 0xFFFFFFFF AND PUSH1 0xE0 SHL DUP2 MSTORE PUSH1 0x4 ADD PUSH2 0x746 SWAP3 SWAP2 SWAP1 PUSH2 0x3529 JUMP JUMPDEST PUSH1 0x20 PUSH1 0x40 MLOAD DUP1 DUP4 SUB DUP2 PUSH1 0x0 DUP8 GAS CALL ISZERO DUP1 ISZERO PUSH2 0x765 JUMPI RETURNDATASIZE PUSH1 0x0 DUP1 RETURNDATACOPY RETURNDATASIZE PUSH1 0x0 REVERT JUMPDEST POP POP POP POP PUSH1 0x40 MLOAD RETURNDATASIZE PUSH1 0x1F NOT PUSH1 0x1F DUP3 ADD AND DUP3 ADD DUP1 PUSH1 0x40 MSTORE POP DUP2 ADD SWAP1 PUSH2 0x789 SWAP2 SWAP1 PUSH2 0x357E JUMP JUMPDEST POP JUMPDEST PUSH1 0x0 DUP9 DUP9 SWAP1 POP GT ISZERO PUSH2 0x80B JUMPI DUP9 PUSH20 0xFFFFFFFFFFFFFFFFFFFFFFFFFFFFFFFFFFFFFFFF AND PUSH4 0x10D1E85C CALLER DUP14 DUP14 DUP13 DUP13 PUSH1 0x40 MLOAD DUP7 PUSH4 0xFFFFFFFF AND PUSH1 0xE0 SHL DUP2 MSTORE PUSH1 0x4 ADD PUSH2 0x7D8 SWAP6 SWAP5 SWAP4 SWAP3 SWAP2 SWAP1 PUSH2 0x35F8 JUMP JUMPDEST PUSH1 0x0 PUSH1 0x40 MLOAD DUP1 DUP4 SUB DUP2 PUSH1 0x0 DUP8 DUP1 EXTCODESIZE ISZERO DUP1 ISZERO PUSH2 0x7F2 JUMPI PUSH1 0x0 DUP1 REVERT JUMPDEST POP GAS CALL ISZERO DUP1 ISZERO PUSH2 0x806 JUMPI RETURNDATASIZE PUSH1 0x0 DUP1 RETURNDATACOPY RETURNDATASIZE PUSH1 0x0 REVERT JUMPDEST POP POP POP POP JUMPDEST DUP2 PUSH20 0xFFFFFFFFFFFFFFFFFFFFFFFFFFFFFFFFFFFFFFFF AND PUSH4 0x70A08231 ADDRESS PUSH1 0x40 MLOAD DUP3 PUSH4 0xFFFFFFFF AND PUSH1 0xE0 SHL DUP2 MSTORE PUSH1 0x4 ADD PUSH2 0x844 SWAP2 SWAP1 PUSH2 0x3140 JUMP JUMPDEST PUSH1 0x20 PUSH1 0x40 MLOAD DUP1 DUP4 SUB DUP2 DUP7 GAS STATICCALL ISZERO DUP1 ISZERO PUSH2 0x861 JUMPI RETURNDATASIZE PUSH1 0x0 DUP1 RETURNDATACOPY RETURNDATASIZE PUSH1 0x0 REVERT JUMPDEST POP POP POP POP PUSH1 0x40 MLOAD RETURNDATASIZE PUSH1 0x1F NOT PUSH1 0x1F DUP3 ADD AND DUP3 ADD DUP1 PUSH1 0x40 MSTORE POP DUP2 ADD SWAP1 PUSH2 0x885 SWAP2 SWAP1 PUSH2 0x365B JUMP JUMPDEST SWAP4 POP DUP1 PUSH20 0xFFFFFFFFFFFFFFFFFFFFFFFFFFFFFFFFFFFFFFFF AND PUSH4 0x70A08231 ADDRESS PUSH1 0x40 MLOAD DUP3 PUSH4 0xFFFFFFFF AND PUSH1 0xE0 SHL DUP2 MSTORE PUSH1 0x4 ADD PUSH2 0x8C0 SWAP2 SWAP1 PUSH2 0x3140 JUMP JUMPDEST PUSH1 0x20 PUSH1 0x40 MLOAD DUP1 DUP4 SUB DUP2 DUP7 GAS STATICCALL ISZERO DUP1 ISZERO PUSH2 0x8DD JUMPI RETURNDATASIZE PUSH1 0x0 DUP1 RETURNDATACOPY RETURNDATASIZE PUSH1 0x0 REVERT JUMPDEST POP POP POP POP PUSH1 0x40 MLOAD RETURNDATASIZE PUSH1 0x1F NOT PUSH1 0x1F DUP3 ADD AND DUP3 ADD DUP1 PUSH1 0x40 MSTORE POP DUP2 ADD SWAP1 PUSH2 0x901 SWAP2 SWAP1 PUSH2 0x365B JUMP JUMPDEST SWAP3 POP POP POP PUSH1 0x0 DUP10 DUP6 PUSH2 0x913 SWAP2 SWAP1 PUSH2 0x36B7 JUMP JUMPDEST DUP4 GT PUSH2 0x920 JUMPI PUSH1 0x0 PUSH2 0x938 JUMP JUMPDEST DUP10 DUP6 PUSH2 0x92C SWAP2 SWAP1 PUSH2 0x36B7 JUMP JUMPDEST DUP4 PUSH2 0x937 SWAP2 SWAP1 PUSH2 0x36B7 JUMP JUMPDEST JUMPDEST SWAP1 POP PUSH1 0x0 DUP10 DUP6 PUSH2 0x948 SWAP2 SWAP1 PUSH2 0x36B7 JUMP JUMPDEST DUP4 GT PUSH2 0x955 JUMPI PUSH1 0x0 PUSH2 0x96D JUMP JUMPDEST DUP10 DUP6 PUSH2 0x961 SWAP2 SWAP1 PUSH2 0x36B7 JUMP JUMPDEST DUP4 PUSH2 0x96C SWAP2 SWAP1 PUSH2 0x36B7 JUMP JUMPDEST JUMPDEST SWAP1 POP PUSH1 0x0 DUP3 GT DUP1 PUSH2 0x97E JUMPI POP PUSH1 0x0 DUP2 GT JUMPDEST PUSH2 0x9BD JUMPI PUSH1 0x40 MLOAD PUSH32 0x8C379A000000000000000000000000000000000000000000000000000000000 DUP2 MSTORE PUSH1 0x4 ADD PUSH2 0x9B4 SWAP1 PUSH2 0x375D JUMP JUMPDEST PUSH1 0x40 MLOAD DUP1 SWAP2 SUB SWAP1 REVERT JUMPDEST PUSH1 0x0 PUSH1 0x3 DUP4 PUSH2 0x9CC SWAP2 SWAP1 PUSH2 0x377D JUMP JUMPDEST PUSH2 0x3E8 DUP7 PUSH2 0x9DA SWAP2 SWAP1 PUSH2 0x377D JUMP JUMPDEST PUSH2 0x9E4 SWAP2 SWAP1 PUSH2 0x36B7 JUMP JUMPDEST SWAP1 POP PUSH1 0x0 PUSH1 0x3 DUP4 PUSH2 0x9F5 SWAP2 SWAP1 PUSH2 0x377D JUMP JUMPDEST PUSH2 0x3E8 DUP7 PUSH2 0xA03 SWAP2 SWAP1 PUSH2 0x377D JUMP JUMPDEST PUSH2 0xA0D SWAP2 SWAP1 PUSH2 0x36B7 JUMP JUMPDEST SWAP1 POP PUSH3 0xF4240 DUP8 DUP10 PUSH2 0xA1F SWAP2 SWAP1 PUSH2 0x377D JUMP JUMPDEST PUSH2 0xA29 SWAP2 SWAP1 PUSH2 0x377D JUMP JUMPDEST DUP2 DUP4 PUSH2 0xA35 SWAP2 SWAP1 PUSH2 0x377D JUMP JUMPDEST LT ISZERO PUSH2 0xA76 JUMPI PUSH1 0x40 MLOAD PUSH32 0x8C379A000000000000000000000000000000000000000000000000000000000 DUP2 MSTORE PUSH1 0x4 ADD PUSH2 0xA6D SWAP1 PUSH2 0x380B JUMP JUMPDEST PUSH1 0x40 MLOAD DUP1 SWAP2 SUB SWAP1 REVERT JUMPDEST POP POP PUSH2 0xA82 DUP5 DUP5 PUSH2 0x2396 JUMP JUMPDEST DUP9 PUSH20 0xFFFFFFFFFFFFFFFFFFFFFFFFFFFFFFFFFFFFFFFF AND CALLER PUSH20 0xFFFFFFFFFFFFFFFFFFFFFFFFFFFFFFFFFFFFFFFF AND PUSH32 0xD78AD95FA46C994B6551D0DA85FC275FE613CE37657FB8D5E3D130840159D822 DUP5 DUP5 DUP16 DUP16 PUSH1 0x40 MLOAD PUSH2 0xAE5 SWAP5 SWAP4 SWAP3 SWAP2 SWAP1 PUSH2 0x382B JUMP JUMPDEST PUSH1 0x40 MLOAD DUP1 SWAP2 SUB SWAP1 LOG3 POP POP POP POP POP POP PUSH1 0x1 PUSH1 0x5 DUP2 SWAP1 SSTORE POP POP POP POP POP POP JUMP JUMPDEST PUSH1 0x60 PUSH1 0x3 DUP1 SLOAD PUSH2 0xB11 SWAP1 PUSH2 0x389F JUMP JUMPDEST DUP1 PUSH1 0x1F ADD PUSH1 0x20 DUP1 SWAP2 DIV MUL PUSH1 0x20 ADD PUSH1 0x40 MLOAD SWAP1 DUP2 ADD PUSH1 0x40 MSTORE DUP1 SWAP3 SWAP2 SWAP1 DUP2 DUP2 MSTORE PUSH1 0x20 ADD DUP3 DUP1 SLOAD PUSH2 0xB3D SWAP1 PUSH2 0x389F JUMP JUMPDEST DUP1 ISZERO PUSH2 0xB8A JUMPI DUP1 PUSH1 0x1F LT PUSH2 0xB5F JUMPI PUSH2 0x100 DUP1 DUP4 SLOAD DIV MUL DUP4 MSTORE SWAP2 PUSH1 0x20 ADD SWAP2 PUSH2 0xB8A JUMP JUMPDEST DUP3 ADD SWAP2 SWAP1 PUSH1 0x0 MSTORE PUSH1 0x20 PUSH1 0x0 KECCAK256 SWAP1 JUMPDEST DUP2 SLOAD DUP2 MSTORE SWAP1 PUSH1 0x1 ADD SWAP1 PUSH1 0x20 ADD DUP1 DUP4 GT PUSH2 0xB6D JUMPI DUP3 SWAP1 SUB PUSH1 0x1F AND DUP3 ADD SWAP2 JUMPDEST POP POP POP POP POP SWAP1 POP SWAP1 JUMP JUMPDEST PUSH1 0x0 DUP1 PUSH1 0x0 PUSH1 0xA PUSH1 0x0 SWAP1 SLOAD SWAP1 PUSH2 0x100 EXP SWAP1 DIV PUSH14 0xFFFFFFFFFFFFFFFFFFFFFFFFFFFF AND SWAP3 POP PUSH1 0xA PUSH1 0xE SWAP1 SLOAD SWAP1 PUSH2 0x100 EXP SWAP1 DIV PUSH14 0xFFFFFFFFFFFFFFFFFFFFFFFFFFFF AND SWAP2 POP PUSH1 0xA PUSH1 0x1C SWAP1 SLOAD SWAP1 PUSH2 0x100 EXP SWAP1 DIV PUSH4 0xFFFFFFFF AND SWAP1 POP SWAP1 SWAP2 SWAP3 JUMP JUMPDEST PUSH1 0x0 DUP1 PUSH2 0xBFC PUSH2 0x26CA JUMP JUMPDEST SWAP1 POP PUSH2 0xC09 DUP2 DUP6 DUP6 PUSH2 0x26D2 JUMP JUMPDEST PUSH1 0x1 SWAP2 POP POP SWAP3 SWAP2 POP POP JUMP JUMPDEST PUSH1 0x8 PUSH1 0x0 SWAP1 SLOAD SWAP1 PUSH2 0x100 EXP SWAP1 DIV PUSH20 0xFFFFFFFFFFFFFFFFFFFFFFFFFFFFFFFFFFFFFFFF AND DUP2 JUMP JUMPDEST PUSH1 0x0 PUSH1 0x2 SLOAD SWAP1 POP SWAP1 JUMP JUMPDEST PUSH1 0x0 DUP1 PUSH2 0xC4F PUSH2 0x26CA JUMP JUMPDEST SWAP1 POP PUSH2 0xC5C DUP6 DUP3 DUP6 PUSH2 0x26E4 JUMP JUMPDEST PUSH2 0xC67 DUP6 DUP6 DUP6 PUSH2 0x2778 JUMP JUMPDEST PUSH1 0x1 SWAP2 POP POP SWAP4 SWAP3 POP POP POP JUMP JUMPDEST PUSH1 0x0 PUSH1 0x12 SWAP1 POP SWAP1 JUMP JUMPDEST PUSH1 0x7 PUSH1 0x0 SWAP1 SLOAD SWAP1 PUSH2 0x100 EXP SWAP1 DIV PUSH20 0xFFFFFFFFFFFFFFFFFFFFFFFFFFFFFFFFFFFFFFFF AND PUSH20 0xFFFFFFFFFFFFFFFFFFFFFFFFFFFFFFFFFFFFFFFF AND CALLER PUSH20 0xFFFFFFFFFFFFFFFFFFFFFFFFFFFFFFFFFFFFFFFF AND EQ PUSH2 0xD0C JUMPI PUSH1 0x40 MLOAD PUSH32 0x8C379A000000000000000000000000000000000000000000000000000000000 DUP2 MSTORE PUSH1 0x4 ADD PUSH2 0xD03 SWAP1 PUSH2 0x391C JUMP JUMPDEST PUSH1 0x40 MLOAD DUP1 SWAP2 SUB SWAP1 REVERT JUMPDEST DUP2 PUSH1 0x8 PUSH1 0x0 PUSH2 0x100 EXP DUP2 SLOAD DUP2 PUSH20 0xFFFFFFFFFFFFFFFFFFFFFFFFFFFFFFFFFFFFFFFF MUL NOT AND SWAP1 DUP4 PUSH20 0xFFFFFFFFFFFFFFFFFFFFFFFFFFFFFFFFFFFFFFFF AND MUL OR SWAP1 SSTORE POP DUP1 PUSH1 0x9 PUSH1 0x0 PUSH2 0x100 EXP DUP2 SLOAD DUP2 PUSH20 0xFFFFFFFFFFFFFFFFFFFFFFFFFFFFFFFFFFFFFFFF MUL NOT AND SWAP1 DUP4 PUSH20 0xFFFFFFFFFFFFFFFFFFFFFFFFFFFFFFFFFFFFFFFF AND MUL OR SWAP1 SSTORE POP POP POP JUMP JUMPDEST PUSH1 0x1 PUSH1 0x6 SLOAD EQ PUSH2 0xDD7 JUMPI PUSH1 0x40 MLOAD PUSH32 0x8C379A000000000000000000000000000000000000000000000000000000000 DUP2 MSTORE PUSH1 0x4 ADD PUSH2 0xDCE SWAP1 PUSH2 0x3988 JUMP JUMPDEST PUSH1 0x40 MLOAD DUP1 SWAP2 SUB SWAP1 REVERT JUMPDEST PUSH1 0x0 PUSH1 0x6 DUP2 SWAP1 SSTORE POP PUSH1 0x2 PUSH1 0x5 SLOAD SUB PUSH2 0xE24 JUMPI PUSH1 0x40 MLOAD PUSH32 0x8C379A000000000000000000000000000000000000000000000000000000000 DUP2 MSTORE PUSH1 0x4 ADD PUSH2 0xE1B SWAP1 PUSH2 0x3379 JUMP JUMPDEST PUSH1 0x40 MLOAD DUP1 SWAP2 SUB SWAP1 REVERT JUMPDEST PUSH1 0x2 PUSH1 0x5 DUP2 SWAP1 SSTORE POP PUSH1 0x0 PUSH1 0x8 PUSH1 0x0 SWAP1 SLOAD SWAP1 PUSH2 0x100 EXP SWAP1 DIV PUSH20 0xFFFFFFFFFFFFFFFFFFFFFFFFFFFFFFFFFFFFFFFF AND PUSH20 0xFFFFFFFFFFFFFFFFFFFFFFFFFFFFFFFFFFFFFFFF AND PUSH4 0x70A08231 ADDRESS PUSH1 0x40 MLOAD DUP3 PUSH4 0xFFFFFFFF AND PUSH1 0xE0 SHL DUP2 MSTORE PUSH1 0x4 ADD PUSH2 0xE89 SWAP2 SWAP1 PUSH2 0x3140 JUMP JUMPDEST PUSH1 0x20 PUSH1 0x40 MLOAD DUP1 DUP4 SUB DUP2 DUP7 GAS STATICCALL ISZERO DUP1 ISZERO PUSH2 0xEA6 JUMPI RETURNDATASIZE PUSH1 0x0 DUP1 RETURNDATACOPY RETURNDATASIZE PUSH1 0x0 REVERT JUMPDEST POP POP POP POP PUSH1 0x40 MLOAD RETURNDATASIZE PUSH1 0x1F NOT PUSH1 0x1F DUP3 ADD AND DUP3 ADD DUP1 PUSH1 0x40 MSTORE POP DUP2 ADD SWAP1 PUSH2 0xECA SWAP2 SWAP1 PUSH2 0x365B JUMP JUMPDEST SWAP1 POP PUSH1 0x0 PUSH1 0x9 PUSH1 0x0 SWAP1 SLOAD SWAP1 PUSH2 0x100 EXP SWAP1 DIV PUSH20 0xFFFFFFFFFFFFFFFFFFFFFFFFFFFFFFFFFFFFFFFF AND PUSH20 0xFFFFFFFFFFFFFFFFFFFFFFFFFFFFFFFFFFFFFFFF AND PUSH4 0x70A08231 ADDRESS PUSH1 0x40 MLOAD DUP3 PUSH4 0xFFFFFFFF AND PUSH1 0xE0 SHL DUP2 MSTORE PUSH1 0x4 ADD PUSH2 0xF29 SWAP2 SWAP1 PUSH2 0x3140 JUMP JUMPDEST PUSH1 0x20 PUSH1 0x40 MLOAD DUP1 DUP4 SUB DUP2 DUP7 GAS STATICCALL ISZERO DUP1 ISZERO PUSH2 0xF46 JUMPI RETURNDATASIZE PUSH1 0x0 DUP1 RETURNDATACOPY RETURNDATASIZE PUSH1 0x0 REVERT JUMPDEST POP POP POP POP PUSH1 0x40 MLOAD RETURNDATASIZE PUSH1 0x1F NOT PUSH1 0x1F DUP3 ADD AND DUP3 ADD DUP1 PUSH1 0x40 MSTORE POP DUP2 ADD SWAP1 PUSH2 0xF6A SWAP2 SWAP1 PUSH2 0x365B JUMP JUMPDEST SWAP1 POP PUSH1 0x0 DUP7 GT ISZERO PUSH2 0x1017 JUMPI PUSH1 0x8 PUSH1 0x0 SWAP1 SLOAD SWAP1 PUSH2 0x100 EXP SWAP1 DIV PUSH20 0xFFFFFFFFFFFFFFFFFFFFFFFFFFFFFFFFFFFFFFFF AND PUSH20 0xFFFFFFFFFFFFFFFFFFFFFFFFFFFFFFFFFFFFFFFF AND PUSH4 0xA9059CBB DUP9 DUP9 PUSH1 0x40 MLOAD DUP4 PUSH4 0xFFFFFFFF AND PUSH1 0xE0 SHL DUP2 MSTORE PUSH1 0x4 ADD PUSH2 0xFD2 SWAP3 SWAP2 SWAP1 PUSH2 0x3529 JUMP JUMPDEST PUSH1 0x20 PUSH1 0x40 MLOAD DUP1 DUP4 SUB DUP2 PUSH1 0x0 DUP8 GAS CALL ISZERO DUP1 ISZERO PUSH2 0xFF1 JUMPI RETURNDATASIZE PUSH1 0x0 DUP1 RETURNDATACOPY RETURNDATASIZE PUSH1 0x0 REVERT JUMPDEST POP POP POP POP PUSH1 0x40 MLOAD RETURNDATASIZE PUSH1 0x1F NOT PUSH1 0x1F DUP3 ADD AND DUP3 ADD DUP1 PUSH1 0x40 MSTORE POP DUP2 ADD SWAP1 PUSH2 0x1015 SWAP2 SWAP1 PUSH2 0x357E JUMP JUMPDEST POP JUMPDEST PUSH1 0x0 DUP6 GT ISZERO PUSH2 0x10C2 JUMPI PUSH1 0x9 PUSH1 0x0 SWAP1 SLOAD SWAP1 PUSH2 0x100 EXP SWAP1 DIV PUSH20 0xFFFFFFFFFFFFFFFFFFFFFFFFFFFFFFFFFFFFFFFF AND PUSH20 0xFFFFFFFFFFFFFFFFFFFFFFFFFFFFFFFFFFFFFFFF AND PUSH4 0xA9059CBB DUP9 DUP8 PUSH1 0x40 MLOAD DUP4 PUSH4 0xFFFFFFFF AND PUSH1 0xE0 SHL DUP2 MSTORE PUSH1 0x4 ADD PUSH2 0x107D SWAP3 SWAP2 SWAP1 PUSH2 0x3529 JUMP JUMPDEST PUSH1 0x20 PUSH1 0x40 MLOAD DUP1 DUP4 SUB DUP2 PUSH1 0x0 DUP8 GAS CALL ISZERO DUP1 ISZERO PUSH2 0x109C JUMPI RETURNDATASIZE PUSH1 0x0 DUP1 RETURNDATACOPY RETURNDATASIZE PUSH1 0x0 REVERT JUMPDEST POP POP POP POP PUSH1 0x40 MLOAD RETURNDATASIZE PUSH1 0x1F NOT PUSH1 0x1F DUP3 ADD AND DUP3 ADD DUP1 PUSH1 0x40 MSTORE POP DUP2 ADD SWAP1 PUSH2 0x10C0 SWAP2 SWAP1 PUSH2 0x357E JUMP JUMPDEST POP JUMPDEST DUP7 PUSH20 0xFFFFFFFFFFFFFFFFFFFFFFFFFFFFFFFFFFFFFFFF AND PUSH4 0x10D1E85C CALLER DUP9 DUP9 DUP9 DUP9 PUSH1 0x40 MLOAD DUP7 PUSH4 0xFFFFFFFF AND PUSH1 0xE0 SHL DUP2 MSTORE PUSH1 0x4 ADD PUSH2 0x1103 SWAP6 SWAP5 SWAP4 SWAP3 SWAP2 SWAP1 PUSH2 0x35F8 JUMP JUMPDEST PUSH1 0x0 PUSH1 0x40 MLOAD DUP1 DUP4 SUB DUP2 PUSH1 0x0 DUP8 DUP1 EXTCODESIZE ISZERO DUP1 ISZERO PUSH2 0x111D JUMPI PUSH1 0x0 DUP1 REVERT JUMPDEST POP GAS CALL ISZERO DUP1 ISZERO PUSH2 0x1131 JUMPI RETURNDATASIZE PUSH1 0x0 DUP1 RETURNDATACOPY RETURNDATASIZE PUSH1 0x0 REVERT JUMPDEST POP POP POP POP PUSH1 0x0 PUSH1 0x8 PUSH1 0x0 SWAP1 SLOAD SWAP1 PUSH2 0x100 EXP SWAP1 DIV PUSH20 0xFFFFFFFFFFFFFFFFFFFFFFFFFFFFFFFFFFFFFFFF AND PUSH20 0xFFFFFFFFFFFFFFFFFFFFFFFFFFFFFFFFFFFFFFFF AND PUSH4 0x70A08231 ADDRESS PUSH1 0x40 MLOAD DUP3 PUSH4 0xFFFFFFFF AND PUSH1 0xE0 SHL DUP2 MSTORE PUSH1 0x4 ADD PUSH2 0x1192 SWAP2 SWAP1 PUSH2 0x3140 JUMP JUMPDEST PUSH1 0x20 PUSH1 0x40 MLOAD DUP1 DUP4 SUB DUP2 DUP7 GAS STATICCALL ISZERO DUP1 ISZERO PUSH2 0x11AF JUMPI RETURNDATASIZE PUSH1 0x0 DUP1 RETURNDATACOPY RETURNDATASIZE PUSH1 0x0 REVERT JUMPDEST POP POP POP POP PUSH1 0x40 MLOAD RETURNDATASIZE PUSH1 0x1F NOT PUSH1 0x1F DUP3 ADD AND DUP3 ADD DUP1 PUSH1 0x40 MSTORE POP DUP2 ADD SWAP1 PUSH2 0x11D3 SWAP2 SWAP1 PUSH2 0x365B JUMP JUMPDEST SWAP1 POP PUSH1 0x0 PUSH1 0x9 PUSH1 0x0 SWAP1 SLOAD SWAP1 PUSH2 0x100 EXP SWAP1 DIV PUSH20 0xFFFFFFFFFFFFFFFFFFFFFFFFFFFFFFFFFFFFFFFF AND PUSH20 0xFFFFFFFFFFFFFFFFFFFFFFFFFFFFFFFFFFFFFFFF AND PUSH4 0x70A08231 ADDRESS PUSH1 0x40 MLOAD DUP3 PUSH4 0xFFFFFFFF AND PUSH1 0xE0 SHL DUP2 MSTORE PUSH1 0x4 ADD PUSH2 0x1232 SWAP2 SWAP1 PUSH2 0x3140 JUMP JUMPDEST PUSH1 0x20 PUSH1 0x40 MLOAD DUP1 DUP4 SUB DUP2 DUP7 GAS STATICCALL ISZERO DUP1 ISZERO PUSH2 0x124F JUMPI RETURNDATASIZE PUSH1 0x0 DUP1 RETURNDATACOPY RETURNDATASIZE PUSH1 0x0 REVERT JUMPDEST POP POP POP POP PUSH1 0x40 MLOAD RETURNDATASIZE PUSH1 0x1F NOT PUSH1 0x1F DUP3 ADD AND DUP3 ADD DUP1 PUSH1 0x40 MSTORE POP DUP2 ADD SWAP1 PUSH2 0x1273 SWAP2 SWAP1 PUSH2 0x365B JUMP JUMPDEST SWAP1 POP DUP4 DUP3 LT ISZERO PUSH2 0x12B8 JUMPI PUSH1 0x40 MLOAD PUSH32 0x8C379A000000000000000000000000000000000000000000000000000000000 DUP2 MSTORE PUSH1 0x4 ADD PUSH2 0x12AF SWAP1 PUSH2 0x3A1A JUMP JUMPDEST PUSH1 0x40 MLOAD DUP1 SWAP2 SUB SWAP1 REVERT JUMPDEST DUP3 DUP2 LT ISZERO PUSH2 0x12FB JUMPI PUSH1 0x40 MLOAD PUSH32 0x8C379A000000000000000000000000000000000000000000000000000000000 DUP2 MSTORE PUSH1 0x4 ADD PUSH2 0x12F2 SWAP1 PUSH2 0x3AAC JUMP JUMPDEST PUSH1 0x40 MLOAD DUP1 SWAP2 SUB SWAP1 REVERT JUMPDEST PUSH2 0x1305 DUP3 DUP3 PUSH2 0x2396 JUMP JUMPDEST POP POP POP POP PUSH1 0x1 PUSH1 0x5 DUP2 SWAP1 SSTORE POP PUSH1 0x1 PUSH1 0x6 DUP2 SWAP1 SSTORE POP POP POP POP POP POP JUMP JUMPDEST PUSH1 0xB SLOAD DUP2 JUMP JUMPDEST PUSH1 0xC SLOAD DUP2 JUMP JUMPDEST PUSH1 0x0 PUSH1 0x1 PUSH1 0x6 SLOAD EQ PUSH2 0x1373 JUMPI PUSH1 0x40 MLOAD PUSH32 0x8C379A000000000000000000000000000000000000000000000000000000000 DUP2 MSTORE PUSH1 0x4 ADD PUSH2 0x136A SWAP1 PUSH2 0x3988 JUMP JUMPDEST PUSH1 0x40 MLOAD DUP1 SWAP2 SUB SWAP1 REVERT JUMPDEST PUSH1 0x0 PUSH1 0x6 DUP2 SWAP1 SSTORE POP PUSH1 0x2 PUSH1 0x5 SLOAD SUB PUSH2 0x13C0 JUMPI PUSH1 0x40 MLOAD PUSH32 0x8C379A000000000000000000000000000000000000000000000000000000000 DUP2 MSTORE PUSH1 0x4 ADD PUSH2 0x13B7 SWAP1 PUSH2 0x3379 JUMP JUMPDEST PUSH1 0x40 MLOAD DUP1 SWAP2 SUB SWAP1 REVERT JUMPDEST PUSH1 0x2 PUSH1 0x5 DUP2 SWAP1 SSTORE POP PUSH1 0x0 DUP1 PUSH2 0x13D3 PUSH2 0xB94 JUMP JUMPDEST POP SWAP2 POP SWAP2 POP PUSH1 0x0 PUSH1 0x8 PUSH1 0x0 SWAP1 SLOAD SWAP1 PUSH2 0x100 EXP SWAP1 DIV PUSH20 0xFFFFFFFFFFFFFFFFFFFFFFFFFFFFFFFFFFFFFFFF AND PUSH20 0xFFFFFFFFFFFFFFFFFFFFFFFFFFFFFFFFFFFFFFFF AND PUSH4 0x70A08231 ADDRESS PUSH1 0x40 MLOAD DUP3 PUSH4 0xFFFFFFFF AND PUSH1 0xE0 SHL DUP2 MSTORE PUSH1 0x4 ADD PUSH2 0x1435 SWAP2 SWAP1 PUSH2 0x3140 JUMP JUMPDEST PUSH1 0x20 PUSH1 0x40 MLOAD DUP1 DUP4 SUB DUP2 DUP7 GAS STATICCALL ISZERO DUP1 ISZERO PUSH2 0x1452 JUMPI RETURNDATASIZE PUSH1 0x0 DUP1 RETURNDATACOPY RETURNDATASIZE PUSH1 0x0 REVERT JUMPDEST POP POP POP POP PUSH1 0x40 MLOAD RETURNDATASIZE PUSH1 0x1F NOT PUSH1 0x1F DUP3 ADD AND DUP3 ADD DUP1 PUSH1 0x40 MSTORE POP DUP2 ADD SWAP1 PUSH2 0x1476 SWAP2 SWAP1 PUSH2 0x365B JUMP JUMPDEST SWAP1 POP PUSH1 0x0 PUSH1 0x9 PUSH1 0x0 SWAP1 SLOAD SWAP1 PUSH2 0x100 EXP SWAP1 DIV PUSH20 0xFFFFFFFFFFFFFFFFFFFFFFFFFFFFFFFFFFFFFFFF AND PUSH20 0xFFFFFFFFFFFFFFFFFFFFFFFFFFFFFFFFFFFFFFFF AND PUSH4 0x70A08231 ADDRESS PUSH1 0x40 MLOAD DUP3 PUSH4 0xFFFFFFFF AND PUSH1 0xE0 SHL DUP2 MSTORE PUSH1 0x4 ADD PUSH2 0x14D5 SWAP2 SWAP1 PUSH2 0x3140 JUMP JUMPDEST PUSH1 0x20 PUSH1 0x40 MLOAD DUP1 DUP4 SUB DUP2 DUP7 GAS STATICCALL ISZERO DUP1 ISZERO PUSH2 0x14F2 JUMPI RETURNDATASIZE PUSH1 0x0 DUP1 RETURNDATACOPY RETURNDATASIZE PUSH1 0x0 REVERT JUMPDEST POP POP POP POP PUSH1 0x40 MLOAD RETURNDATASIZE PUSH1 0x1F NOT PUSH1 0x1F DUP3 ADD AND DUP3 ADD DUP1 PUSH1 0x40 MSTORE POP DUP2 ADD SWAP1 PUSH2 0x1516 SWAP2 SWAP1 PUSH2 0x365B JUMP JUMPDEST SWAP1 POP PUSH1 0x0 DUP5 PUSH14 0xFFFFFFFFFFFFFFFFFFFFFFFFFFFF AND DUP4 PUSH2 0x1536 SWAP2 SWAP1 PUSH2 0x36B7 JUMP JUMPDEST SWAP1 POP PUSH1 0x0 DUP5 PUSH14 0xFFFFFFFFFFFFFFFFFFFFFFFFFFFF AND DUP4 PUSH2 0x1556 SWAP2 SWAP1 PUSH2 0x36B7 JUMP JUMPDEST SWAP1 POP PUSH1 0x0 PUSH2 0x1562 PUSH2 0xC3A JUMP JUMPDEST SUB PUSH2 0x159C JUMPI PUSH2 0x3E8 PUSH2 0x157E DUP3 DUP5 PUSH2 0x1579 SWAP2 SWAP1 PUSH2 0x377D JUMP JUMPDEST PUSH2 0x286C JUMP JUMPDEST PUSH2 0x1588 SWAP2 SWAP1 PUSH2 0x36B7 JUMP JUMPDEST SWAP7 POP PUSH2 0x1597 PUSH1 0x0 PUSH2 0x3E8 PUSH2 0x28E6 JUMP JUMPDEST PUSH2 0x1603 JUMP JUMPDEST PUSH2 0x1600 DUP7 PUSH14 0xFFFFFFFFFFFFFFFFFFFFFFFFFFFF AND PUSH2 0x15B8 PUSH2 0xC3A JUMP JUMPDEST DUP5 PUSH2 0x15C3 SWAP2 SWAP1 PUSH2 0x377D JUMP JUMPDEST PUSH2 0x15CD SWAP2 SWAP1 PUSH2 0x3AFB JUMP JUMPDEST DUP7 PUSH14 0xFFFFFFFFFFFFFFFFFFFFFFFFFFFF AND PUSH2 0x15E6 PUSH2 0xC3A JUMP JUMPDEST DUP5 PUSH2 0x15F1 SWAP2 SWAP1 PUSH2 0x377D JUMP JUMPDEST PUSH2 0x15FB SWAP2 SWAP1 PUSH2 0x3AFB JUMP JUMPDEST PUSH2 0x2968 JUMP JUMPDEST SWAP7 POP JUMPDEST PUSH1 0x0 DUP8 GT PUSH2 0x1646 JUMPI PUSH1 0x40 MLOAD PUSH32 0x8C379A000000000000000000000000000000000000000000000000000000000 DUP2 MSTORE PUSH1 0x4 ADD PUSH2 0x163D SWAP1 PUSH2 0x3B9E JUMP JUMPDEST PUSH1 0x40 MLOAD DUP1 SWAP2 SUB SWAP1 REVERT JUMPDEST PUSH2 0x1650 DUP9 DUP9 PUSH2 0x28E6 JUMP JUMPDEST PUSH2 0x165A DUP5 DUP5 PUSH2 0x2396 JUMP JUMPDEST PUSH1 0xA PUSH1 0xE SWAP1 SLOAD SWAP1 PUSH2 0x100 EXP SWAP1 DIV PUSH14 0xFFFFFFFFFFFFFFFFFFFFFFFFFFFF AND PUSH14 0xFFFFFFFFFFFFFFFFFFFFFFFFFFFF AND PUSH1 0xA PUSH1 0x0 SWAP1 SLOAD SWAP1 PUSH2 0x100 EXP SWAP1 DIV PUSH14 0xFFFFFFFFFFFFFFFFFFFFFFFFFFFF AND PUSH14 0xFFFFFFFFFFFFFFFFFFFFFFFFFFFF AND PUSH2 0x16BE SWAP2 SWAP1 PUSH2 0x377D JUMP JUMPDEST PUSH1 0xD DUP2 SWAP1 SSTORE POP CALLER PUSH20 0xFFFFFFFFFFFFFFFFFFFFFFFFFFFFFFFFFFFFFFFF AND PUSH32 0x4C209B5FC8AD50758F13E2E1088BA56A560DFF690A1C6FEF26394F4C03821C4F DUP4 DUP4 PUSH1 0x40 MLOAD PUSH2 0x170C SWAP3 SWAP2 SWAP1 PUSH2 0x3304 JUMP JUMPDEST PUSH1 0x40 MLOAD DUP1 SWAP2 SUB SWAP1 LOG2 POP POP POP POP POP POP PUSH1 0x1 PUSH1 0x5 DUP2 SWAP1 SSTORE POP PUSH1 0x1 PUSH1 0x6 DUP2 SWAP1 SSTORE POP SWAP2 SWAP1 POP JUMP JUMPDEST PUSH1 0x0 DUP1 PUSH1 0x0 DUP4 PUSH20 0xFFFFFFFFFFFFFFFFFFFFFFFFFFFFFFFFFFFFFFFF AND PUSH20 0xFFFFFFFFFFFFFFFFFFFFFFFFFFFFFFFFFFFFFFFF AND DUP2 MSTORE PUSH1 0x20 ADD SWAP1 DUP2 MSTORE PUSH1 0x20 ADD PUSH1 0x0 KECCAK256 SLOAD SWAP1 POP SWAP2 SWAP1 POP JUMP JUMPDEST PUSH1 0xD SLOAD DUP2 JUMP JUMPDEST PUSH1 0x0 DUP1 PUSH1 0x1 PUSH1 0x6 SLOAD EQ PUSH2 0x17C5 JUMPI PUSH1 0x40 MLOAD PUSH32 0x8C379A000000000000000000000000000000000000000000000000000000000 DUP2 MSTORE PUSH1 0x4 ADD PUSH2 0x17BC SWAP1 PUSH2 0x3988 JUMP JUMPDEST PUSH1 0x40 MLOAD DUP1 SWAP2 SUB SWAP1 REVERT JUMPDEST PUSH1 0x0 PUSH1 0x6 DUP2 SWAP1 SSTORE POP PUSH1 0x2 PUSH1 0x5 SLOAD SUB PUSH2 0x1812 JUMPI PUSH1 0x40 MLOAD PUSH32 0x8C379A000000000000000000000000000000000000000000000000000000000 DUP2 MSTORE PUSH1 0x4 ADD PUSH2 0x1809 SWAP1 PUSH2 0x3379 JUMP JUMPDEST PUSH1 0x40 MLOAD DUP1 SWAP2 SUB SWAP1 REVERT JUMPDEST PUSH1 0x2 PUSH1 0x5 DUP2 SWAP1 SSTORE POP PUSH1 0x0 PUSH1 0x8 PUSH1 0x0 SWAP1 SLOAD SWAP1 PUSH2 0x100 EXP SWAP1 DIV PUSH20 0xFFFFFFFFFFFFFFFFFFFFFFFFFFFFFFFFFFFFFFFF AND PUSH20 0xFFFFFFFFFFFFFFFFFFFFFFFFFFFFFFFFFFFFFFFF AND PUSH4 0x70A08231 ADDRESS PUSH1 0x40 MLOAD DUP3 PUSH4 0xFFFFFFFF AND PUSH1 0xE0 SHL DUP2 MSTORE PUSH1 0x4 ADD PUSH2 0x1877 SWAP2 SWAP1 PUSH2 0x3140 JUMP JUMPDEST PUSH1 0x20 PUSH1 0x40 MLOAD DUP1 DUP4 SUB DUP2 DUP7 GAS STATICCALL ISZERO DUP1 ISZERO PUSH2 0x1894 JUMPI RETURNDATASIZE PUSH1 0x0 DUP1 RETURNDATACOPY RETURNDATASIZE PUSH1 0x0 REVERT JUMPDEST POP POP POP POP PUSH1 0x40 MLOAD RETURNDATASIZE PUSH1 0x1F NOT PUSH1 0x1F DUP3 ADD AND DUP3 ADD DUP1 PUSH1 0x40 MSTORE POP DUP2 ADD SWAP1 PUSH2 0x18B8 SWAP2 SWAP1 PUSH2 0x365B JUMP JUMPDEST SWAP1 POP PUSH1 0x0 PUSH1 0x9 PUSH1 0x0 SWAP1 SLOAD SWAP1 PUSH2 0x100 EXP SWAP1 DIV PUSH20 0xFFFFFFFFFFFFFFFFFFFFFFFFFFFFFFFFFFFFFFFF AND PUSH20 0xFFFFFFFFFFFFFFFFFFFFFFFFFFFFFFFFFFFFFFFF AND PUSH4 0x70A08231 ADDRESS PUSH1 0x40 MLOAD DUP3 PUSH4 0xFFFFFFFF AND PUSH1 0xE0 SHL DUP2 MSTORE PUSH1 0x4 ADD PUSH2 0x1917 SWAP2 SWAP1 PUSH2 0x3140 JUMP JUMPDEST PUSH1 0x20 PUSH1 0x40 MLOAD DUP1 DUP4 SUB DUP2 DUP7 GAS STATICCALL ISZERO DUP1 ISZERO PUSH2 0x1934 JUMPI RETURNDATASIZE PUSH1 0x0 DUP1 RETURNDATACOPY RETURNDATASIZE PUSH1 0x0 REVERT JUMPDEST POP POP POP POP PUSH1 0x40 MLOAD RETURNDATASIZE PUSH1 0x1F NOT PUSH1 0x1F DUP3 ADD AND DUP3 ADD DUP1 PUSH1 0x40 MSTORE POP DUP2 ADD SWAP1 PUSH2 0x1958 SWAP2 SWAP1 PUSH2 0x365B JUMP JUMPDEST SWAP1 POP PUSH1 0x0 PUSH2 0x1965 ADDRESS PUSH2 0x172F JUMP JUMPDEST SWAP1 POP PUSH2 0x196F PUSH2 0xC3A JUMP JUMPDEST DUP4 DUP3 PUSH2 0x197B SWAP2 SWAP1 PUSH2 0x377D JUMP JUMPDEST PUSH2 0x1985 SWAP2 SWAP1 PUSH2 0x3AFB JUMP JUMPDEST SWAP5 POP PUSH2 0x198F PUSH2 0xC3A JUMP JUMPDEST DUP3 DUP3 PUSH2 0x199B SWAP2 SWAP1 PUSH2 0x377D JUMP JUMPDEST PUSH2 0x19A5 SWAP2 SWAP1 PUSH2 0x3AFB JUMP JUMPDEST SWAP4 POP PUSH1 0x0 DUP6 GT DUP1 ISZERO PUSH2 0x19B7 JUMPI POP PUSH1 0x0 DUP5 GT JUMPDEST PUSH2 0x19F6 JUMPI PUSH1 0x40 MLOAD PUSH32 0x8C379A000000000000000000000000000000000000000000000000000000000 DUP2 MSTORE PUSH1 0x4 ADD PUSH2 0x19ED SWAP1 PUSH2 0x3C30 JUMP JUMPDEST PUSH1 0x40 MLOAD DUP1 SWAP2 SUB SWAP1 REVERT JUMPDEST PUSH2 0x1A00 ADDRESS DUP3 PUSH2 0x2981 JUMP JUMPDEST PUSH1 0x8 PUSH1 0x0 SWAP1 SLOAD SWAP1 PUSH2 0x100 EXP SWAP1 DIV PUSH20 0xFFFFFFFFFFFFFFFFFFFFFFFFFFFFFFFFFFFFFFFF AND PUSH20 0xFFFFFFFFFFFFFFFFFFFFFFFFFFFFFFFFFFFFFFFF AND PUSH4 0xA9059CBB DUP8 DUP8 PUSH1 0x40 MLOAD DUP4 PUSH4 0xFFFFFFFF AND PUSH1 0xE0 SHL DUP2 MSTORE PUSH1 0x4 ADD PUSH2 0x1A5D SWAP3 SWAP2 SWAP1 PUSH2 0x3529 JUMP JUMPDEST PUSH1 0x20 PUSH1 0x40 MLOAD DUP1 DUP4 SUB DUP2 PUSH1 0x0 DUP8 GAS CALL ISZERO DUP1 ISZERO PUSH2 0x1A7C JUMPI RETURNDATASIZE PUSH1 0x0 DUP1 RETURNDATACOPY RETURNDATASIZE PUSH1 0x0 REVERT JUMPDEST POP POP POP POP PUSH1 0x40 MLOAD RETURNDATASIZE PUSH1 0x1F NOT PUSH1 0x1F DUP3 ADD AND DUP3 ADD DUP1 PUSH1 0x40 MSTORE POP DUP2 ADD SWAP1 PUSH2 0x1AA0 SWAP2 SWAP1 PUSH2 0x357E JUMP JUMPDEST POP PUSH1 0x9 PUSH1 0x0 SWAP1 SLOAD SWAP1 PUSH2 0x100 EXP SWAP1 DIV PUSH20 0xFFFFFFFFFFFFFFFFFFFFFFFFFFFFFFFFFFFFFFFF AND PUSH20 0xFFFFFFFFFFFFFFFFFFFFFFFFFFFFFFFFFFFFFFFF AND PUSH4 0xA9059CBB DUP8 DUP7 PUSH1 0x40 MLOAD DUP4 PUSH4 0xFFFFFFFF AND PUSH1 0xE0 SHL DUP2 MSTORE PUSH1 0x4 ADD PUSH2 0x1AFE SWAP3 SWAP2 SWAP1 PUSH2 0x3529 JUMP JUMPDEST PUSH1 0x20 PUSH1 0x40 MLOAD DUP1 DUP4 SUB DUP2 PUSH1 0x0 DUP8 GAS CALL ISZERO DUP1 ISZERO PUSH2 0x1B1D JUMPI RETURNDATASIZE PUSH1 0x0 DUP1 RETURNDATACOPY RETURNDATASIZE PUSH1 0x0 REVERT JUMPDEST POP POP POP POP PUSH1 0x40 MLOAD RETURNDATASIZE PUSH1 0x1F NOT PUSH1 0x1F DUP3 ADD AND DUP3 ADD DUP1 PUSH1 0x40 MSTORE POP DUP2 ADD SWAP1 PUSH2 0x1B41 SWAP2 SWAP1 PUSH2 0x357E JUMP JUMPDEST POP PUSH1 0x8 PUSH1 0x0 SWAP1 SLOAD SWAP1 PUSH2 0x100 EXP SWAP1 DIV PUSH20 0xFFFFFFFFFFFFFFFFFFFFFFFFFFFFFFFFFFFFFFFF AND PUSH20 0xFFFFFFFFFFFFFFFFFFFFFFFFFFFFFFFFFFFFFFFF AND PUSH4 0x70A08231 ADDRESS PUSH1 0x40 MLOAD DUP3 PUSH4 0xFFFFFFFF AND PUSH1 0xE0 SHL DUP2 MSTORE PUSH1 0x4 ADD PUSH2 0x1B9D SWAP2 SWAP1 PUSH2 0x3140 JUMP JUMPDEST PUSH1 0x20 PUSH1 0x40 MLOAD DUP1 DUP4 SUB DUP2 DUP7 GAS STATICCALL ISZERO DUP1 ISZERO PUSH2 0x1BBA JUMPI RETURNDATASIZE PUSH1 0x0 DUP1 RETURNDATACOPY RETURNDATASIZE PUSH1 0x0 REVERT JUMPDEST POP POP POP POP PUSH1 0x40 MLOAD RETURNDATASIZE PUSH1 0x1F NOT PUSH1 0x1F DUP3 ADD AND DUP3 ADD DUP1 PUSH1 0x40 MSTORE POP DUP2 ADD SWAP1 PUSH2 0x1BDE SWAP2 SWAP1 PUSH2 0x365B JUMP JUMPDEST SWAP3 POP PUSH1 0x9 PUSH1 0x0 SWAP1 SLOAD SWAP1 PUSH2 0x100 EXP SWAP1 DIV PUSH20 0xFFFFFFFFFFFFFFFFFFFFFFFFFFFFFFFFFFFFFFFF AND PUSH20 0xFFFFFFFFFFFFFFFFFFFFFFFFFFFFFFFFFFFFFFFF AND PUSH4 0x70A08231 ADDRESS PUSH1 0x40 MLOAD DUP3 PUSH4 0xFFFFFFFF AND PUSH1 0xE0 SHL DUP2 MSTORE PUSH1 0x4 ADD PUSH2 0x1C3B SWAP2 SWAP1 PUSH2 0x3140 JUMP JUMPDEST PUSH1 0x20 PUSH1 0x40 MLOAD DUP1 DUP4 SUB DUP2 DUP7 GAS STATICCALL ISZERO DUP1 ISZERO PUSH2 0x1C58 JUMPI RETURNDATASIZE PUSH1 0x0 DUP1 RETURNDATACOPY RETURNDATASIZE PUSH1 0x0 REVERT JUMPDEST POP POP POP POP PUSH1 0x40 MLOAD RETURNDATASIZE PUSH1 0x1F NOT PUSH1 0x1F DUP3 ADD AND DUP3 ADD DUP1 PUSH1 0x40 MSTORE POP DUP2 ADD SWAP1 PUSH2 0x1C7C SWAP2 SWAP1 PUSH2 0x365B JUMP JUMPDEST SWAP2 POP PUSH2 0x1C88 DUP4 DUP4 PUSH2 0x2396 JUMP JUMPDEST PUSH1 0xA PUSH1 0xE SWAP1 SLOAD SWAP1 PUSH2 0x100 EXP SWAP1 DIV PUSH14 0xFFFFFFFFFFFFFFFFFFFFFFFFFFFF AND PUSH14 0xFFFFFFFFFFFFFFFFFFFFFFFFFFFF AND PUSH1 0xA PUSH1 0x0 SWAP1 SLOAD SWAP1 PUSH2 0x100 EXP SWAP1 DIV PUSH14 0xFFFFFFFFFFFFFFFFFFFFFFFFFFFF AND PUSH14 0xFFFFFFFFFFFFFFFFFFFFFFFFFFFF AND PUSH2 0x1CEC SWAP2 SWAP1 PUSH2 0x377D JUMP JUMPDEST PUSH1 0xD DUP2 SWAP1 SSTORE POP DUP6 PUSH20 0xFFFFFFFFFFFFFFFFFFFFFFFFFFFFFFFFFFFFFFFF AND CALLER PUSH20 0xFFFFFFFFFFFFFFFFFFFFFFFFFFFFFFFFFFFFFFFF AND PUSH32 0xDCCD412F0B1252819CB1FD330B93224CA42612892BB3F4F789976E6D81936496 DUP8 DUP8 PUSH1 0x40 MLOAD PUSH2 0x1D51 SWAP3 SWAP2 SWAP1 PUSH2 0x3304 JUMP JUMPDEST PUSH1 0x40 MLOAD DUP1 SWAP2 SUB SWAP1 LOG3 POP POP POP PUSH1 0x1 PUSH1 0x5 DUP2 SWAP1 SSTORE POP PUSH1 0x1 PUSH1 0x6 DUP2 SWAP1 SSTORE POP SWAP2 POP SWAP2 JUMP JUMPDEST PUSH1 0x60 PUSH1 0x4 DUP1 SLOAD PUSH2 0x1D80 SWAP1 PUSH2 0x389F JUMP JUMPDEST DUP1 PUSH1 0x1F ADD PUSH1 0x20 DUP1 SWAP2 DIV MUL PUSH1 0x20 ADD PUSH1 0x40 MLOAD SWAP1 DUP2 ADD PUSH1 0x40 MSTORE DUP1 SWAP3 SWAP2 SWAP1 DUP2 DUP2 MSTORE PUSH1 0x20 ADD DUP3 DUP1 SLOAD PUSH2 0x1DAC SWAP1 PUSH2 0x389F JUMP JUMPDEST DUP1 ISZERO PUSH2 0x1DF9 JUMPI DUP1 PUSH1 0x1F LT PUSH2 0x1DCE JUMPI PUSH2 0x100 DUP1 DUP4 SLOAD DIV MUL DUP4 MSTORE SWAP2 PUSH1 0x20 ADD SWAP2 PUSH2 0x1DF9 JUMP JUMPDEST DUP3 ADD SWAP2 SWAP1 PUSH1 0x0 MSTORE PUSH1 0x20 PUSH1 0x0 KECCAK256 SWAP1 JUMPDEST DUP2 SLOAD DUP2 MSTORE SWAP1 PUSH1 0x1 ADD SWAP1 PUSH1 0x20 ADD DUP1 DUP4 GT PUSH2 0x1DDC JUMPI DUP3 SWAP1 SUB PUSH1 0x1F AND DUP3 ADD SWAP2 JUMPDEST POP POP POP POP POP SWAP1 POP SWAP1 JUMP JUMPDEST PUSH1 0x0 DUP1 PUSH2 0x1E0E PUSH2 0x26CA JUMP JUMPDEST SWAP1 POP PUSH2 0x1E1B DUP2 DUP6 DUP6 PUSH2 0x2778 JUMP JUMPDEST PUSH1 0x1 SWAP2 POP POP SWAP3 SWAP2 POP POP JUMP JUMPDEST PUSH1 0x1 PUSH1 0x6 SLOAD EQ PUSH2 0x1E6B JUMPI PUSH1 0x40 MLOAD PUSH32 0x8C379A000000000000000000000000000000000000000000000000000000000 DUP2 MSTORE PUSH1 0x4 ADD PUSH2 0x1E62 SWAP1 PUSH2 0x3988 JUMP JUMPDEST PUSH1 0x40 MLOAD DUP1 SWAP2 SUB SWAP1 REVERT JUMPDEST PUSH1 0x0 PUSH1 0x6 DUP2 SWAP1 SSTORE POP PUSH1 0x0 PUSH1 0x8 PUSH1 0x0 SWAP1 SLOAD SWAP1 PUSH2 0x100 EXP SWAP1 DIV PUSH20 0xFFFFFFFFFFFFFFFFFFFFFFFFFFFFFFFFFFFFFFFF AND SWAP1 POP PUSH1 0x0 PUSH1 0x9 PUSH1 0x0 SWAP1 SLOAD SWAP1 PUSH2 0x100 EXP SWAP1 DIV PUSH20 0xFFFFFFFFFFFFFFFFFFFFFFFFFFFFFFFFFFFFFFFF AND SWAP1 POP DUP2 PUSH20 0xFFFFFFFFFFFFFFFFFFFFFFFFFFFFFFFFFFFFFFFF AND PUSH4 0xA9059CBB DUP5 PUSH1 0xA PUSH1 0x0 SWAP1 SLOAD SWAP1 PUSH2 0x100 EXP SWAP1 DIV PUSH14 0xFFFFFFFFFFFFFFFFFFFFFFFFFFFF AND PUSH14 0xFFFFFFFFFFFFFFFFFFFFFFFFFFFF AND DUP6 PUSH20 0xFFFFFFFFFFFFFFFFFFFFFFFFFFFFFFFFFFFFFFFF AND PUSH4 0x70A08231 ADDRESS PUSH1 0x40 MLOAD DUP3 PUSH4 0xFFFFFFFF AND PUSH1 0xE0 SHL DUP2 MSTORE PUSH1 0x4 ADD PUSH2 0x1F44 SWAP2 SWAP1 PUSH2 0x3140 JUMP JUMPDEST PUSH1 0x20 PUSH1 0x40 MLOAD DUP1 DUP4 SUB DUP2 DUP7 GAS STATICCALL ISZERO DUP1 ISZERO PUSH2 0x1F61 JUMPI RETURNDATASIZE PUSH1 0x0 DUP1 RETURNDATACOPY RETURNDATASIZE PUSH1 0x0 REVERT JUMPDEST POP POP POP POP PUSH1 0x40 MLOAD RETURNDATASIZE PUSH1 0x1F NOT PUSH1 0x1F DUP3 ADD AND DUP3 ADD DUP1 PUSH1 0x40 MSTORE POP DUP2 ADD SWAP1 PUSH2 0x1F85 SWAP2 SWAP1 PUSH2 0x365B JUMP JUMPDEST PUSH2 0x1F8F SWAP2 SWAP1 PUSH2 0x36B7 JUMP JUMPDEST PUSH1 0x40 MLOAD DUP4 PUSH4 0xFFFFFFFF AND PUSH1 0xE0 SHL DUP2 MSTORE PUSH1 0x4 ADD PUSH2 0x1FAC SWAP3 SWAP2 SWAP1 PUSH2 0x3529 JUMP JUMPDEST PUSH1 0x20 PUSH1 0x40 MLOAD DUP1 DUP4 SUB DUP2 PUSH1 0x0 DUP8 GAS CALL ISZERO DUP1 ISZERO PUSH2 0x1FCB JUMPI RETURNDATASIZE PUSH1 0x0 DUP1 RETURNDATACOPY RETURNDATASIZE PUSH1 0x0 REVERT JUMPDEST POP POP POP POP PUSH1 0x40 MLOAD RETURNDATASIZE PUSH1 0x1F NOT PUSH1 0x1F DUP3 ADD AND DUP3 ADD DUP1 PUSH1 0x40 MSTORE POP DUP2 ADD SWAP1 PUSH2 0x1FEF SWAP2 SWAP1 PUSH2 0x357E JUMP JUMPDEST POP DUP1 PUSH20 0xFFFFFFFFFFFFFFFFFFFFFFFFFFFFFFFFFFFFFFFF AND PUSH4 0xA9059CBB DUP5 PUSH1 0xA PUSH1 0xE SWAP1 SLOAD SWAP1 PUSH2 0x100 EXP SWAP1 DIV PUSH14 0xFFFFFFFFFFFFFFFFFFFFFFFFFFFF AND PUSH14 0xFFFFFFFFFFFFFFFFFFFFFFFFFFFF AND DUP5 PUSH20 0xFFFFFFFFFFFFFFFFFFFFFFFFFFFFFFFFFFFFFFFF AND PUSH4 0x70A08231 ADDRESS PUSH1 0x40 MLOAD DUP3 PUSH4 0xFFFFFFFF AND PUSH1 0xE0 SHL DUP2 MSTORE PUSH1 0x4 ADD PUSH2 0x2073 SWAP2 SWAP1 PUSH2 0x3140 JUMP JUMPDEST PUSH1 0x20 PUSH1 0x40 MLOAD DUP1 DUP4 SUB DUP2 DUP7 GAS STATICCALL ISZERO DUP1 ISZERO PUSH2 0x2090 JUMPI RETURNDATASIZE PUSH1 0x0 DUP1 RETURNDATACOPY RETURNDATASIZE PUSH1 0x0 REVERT JUMPDEST POP POP POP POP PUSH1 0x40 MLOAD RETURNDATASIZE PUSH1 0x1F NOT PUSH1 0x1F DUP3 ADD AND DUP3 ADD DUP1 PUSH1 0x40 MSTORE POP DUP2 ADD SWAP1 PUSH2 0x20B4 SWAP2 SWAP1 PUSH2 0x365B JUMP JUMPDEST PUSH2 0x20BE SWAP2 SWAP1 PUSH2 0x36B7 JUMP JUMPDEST PUSH1 0x40 MLOAD DUP4 PUSH4 0xFFFFFFFF AND PUSH1 0xE0 SHL DUP2 MSTORE PUSH1 0x4 ADD PUSH2 0x20DB SWAP3 SWAP2 SWAP1 PUSH2 0x3529 JUMP JUMPDEST PUSH1 0x20 PUSH1 0x40 MLOAD DUP1 DUP4 SUB DUP2 PUSH1 0x0 DUP8 GAS CALL ISZERO DUP1 ISZERO PUSH2 0x20FA JUMPI RETURNDATASIZE PUSH1 0x0 DUP1 RETURNDATACOPY RETURNDATASIZE PUSH1 0x0 REVERT JUMPDEST POP POP POP POP PUSH1 0x40 MLOAD RETURNDATASIZE PUSH1 0x1F NOT PUSH1 0x1F DUP3 ADD AND DUP3 ADD DUP1 PUSH1 0x40 MSTORE POP DUP2 ADD SWAP1 PUSH2 0x211E SWAP2 SWAP1 PUSH2 0x357E JUMP JUMPDEST POP POP POP PUSH1 0x1 PUSH1 0x6 DUP2 SWAP1 SSTORE POP POP JUMP JUMPDEST PUSH1 0x7 PUSH1 0x0 SWAP1 SLOAD SWAP1 PUSH2 0x100 EXP SWAP1 DIV PUSH20 0xFFFFFFFFFFFFFFFFFFFFFFFFFFFFFFFFFFFFFFFF AND DUP2 JUMP JUMPDEST PUSH1 0x9 PUSH1 0x0 SWAP1 SLOAD SWAP1 PUSH2 0x100 EXP SWAP1 DIV PUSH20 0xFFFFFFFFFFFFFFFFFFFFFFFFFFFFFFFFFFFFFFFF AND DUP2 JUMP JUMPDEST PUSH1 0x0 PUSH1 0x1 PUSH1 0x0 DUP5 PUSH20 0xFFFFFFFFFFFFFFFFFFFFFFFFFFFFFFFFFFFFFFFF AND PUSH20 0xFFFFFFFFFFFFFFFFFFFFFFFFFFFFFFFFFFFFFFFF AND DUP2 MSTORE PUSH1 0x20 ADD SWAP1 DUP2 MSTORE PUSH1 0x20 ADD PUSH1 0x0 KECCAK256 PUSH1 0x0 DUP4 PUSH20 0xFFFFFFFFFFFFFFFFFFFFFFFFFFFFFFFFFFFFFFFF AND PUSH20 0xFFFFFFFFFFFFFFFFFFFFFFFFFFFFFFFFFFFFFFFF AND DUP2 MSTORE PUSH1 0x20 ADD SWAP1 DUP2 MSTORE PUSH1 0x20 ADD PUSH1 0x0 KECCAK256 SLOAD SWAP1 POP SWAP3 SWAP2 POP POP JUMP JUMPDEST PUSH1 0x1 PUSH1 0x6 SLOAD EQ PUSH2 0x2244 JUMPI PUSH1 0x40 MLOAD PUSH32 0x8C379A000000000000000000000000000000000000000000000000000000000 DUP2 MSTORE PUSH1 0x4 ADD PUSH2 0x223B SWAP1 PUSH2 0x3988 JUMP JUMPDEST PUSH1 0x40 MLOAD DUP1 SWAP2 SUB SWAP1 REVERT JUMPDEST PUSH1 0x0 PUSH1 0x6 DUP2 SWAP1 SSTORE POP PUSH2 0x238C PUSH1 0x8 PUSH1 0x0 SWAP1 SLOAD SWAP1 PUSH2 0x100 EXP SWAP1 DIV PUSH20 0xFFFFFFFFFFFFFFFFFFFFFFFFFFFFFFFFFFFFFFFF AND PUSH20 0xFFFFFFFFFFFFFFFFFFFFFFFFFFFFFFFFFFFFFFFF AND PUSH4 0x70A08231 ADDRESS PUSH1 0x40 MLOAD DUP3 PUSH4 0xFFFFFFFF AND PUSH1 0xE0 SHL DUP2 MSTORE PUSH1 0x4 ADD PUSH2 0x22AA SWAP2 SWAP1 PUSH2 0x3140 JUMP JUMPDEST PUSH1 0x20 PUSH1 0x40 MLOAD DUP1 DUP4 SUB DUP2 DUP7 GAS STATICCALL ISZERO DUP1 ISZERO PUSH2 0x22C7 JUMPI RETURNDATASIZE PUSH1 0x0 DUP1 RETURNDATACOPY RETURNDATASIZE PUSH1 0x0 REVERT JUMPDEST POP POP POP POP PUSH1 0x40 MLOAD RETURNDATASIZE PUSH1 0x1F NOT PUSH1 0x1F DUP3 ADD AND DUP3 ADD DUP1 PUSH1 0x40 MSTORE POP DUP2 ADD SWAP1 PUSH2 0x22EB SWAP2 SWAP1 PUSH2 0x365B JUMP JUMPDEST PUSH1 0x9 PUSH1 0x0 SWAP1 SLOAD SWAP1 PUSH2 0x100 EXP SWAP1 DIV PUSH20 0xFFFFFFFFFFFFFFFFFFFFFFFFFFFFFFFFFFFFFFFF AND PUSH20 0xFFFFFFFFFFFFFFFFFFFFFFFFFFFFFFFFFFFFFFFF AND PUSH4 0x70A08231 ADDRESS PUSH1 0x40 MLOAD DUP3 PUSH4 0xFFFFFFFF AND PUSH1 0xE0 SHL DUP2 MSTORE PUSH1 0x4 ADD PUSH2 0x2346 SWAP2 SWAP1 PUSH2 0x3140 JUMP JUMPDEST PUSH1 0x20 PUSH1 0x40 MLOAD DUP1 DUP4 SUB DUP2 DUP7 GAS STATICCALL ISZERO DUP1 ISZERO PUSH2 0x2363 JUMPI RETURNDATASIZE PUSH1 0x0 DUP1 RETURNDATACOPY RETURNDATASIZE PUSH1 0x0 REVERT JUMPDEST POP POP POP POP PUSH1 0x40 MLOAD RETURNDATASIZE PUSH1 0x1F NOT PUSH1 0x1F DUP3 ADD AND DUP3 ADD DUP1 PUSH1 0x40 MSTORE POP DUP2 ADD SWAP1 PUSH2 0x2387 SWAP2 SWAP1 PUSH2 0x365B JUMP JUMPDEST PUSH2 0x2396 JUMP JUMPDEST PUSH1 0x1 PUSH1 0x6 DUP2 SWAP1 SSTORE POP JUMP JUMPDEST PUSH14 0xFFFFFFFFFFFFFFFFFFFFFFFFFFFF DUP1 AND DUP3 GT ISZERO DUP1 ISZERO PUSH2 0x23C6 JUMPI POP PUSH14 0xFFFFFFFFFFFFFFFFFFFFFFFFFFFF DUP1 AND DUP2 GT ISZERO JUMPDEST PUSH2 0x2405 JUMPI PUSH1 0x40 MLOAD PUSH32 0x8C379A000000000000000000000000000000000000000000000000000000000 DUP2 MSTORE PUSH1 0x4 ADD PUSH2 0x23FC SWAP1 PUSH2 0x3C9C JUMP JUMPDEST PUSH1 0x40 MLOAD DUP1 SWAP2 SUB SWAP1 REVERT JUMPDEST PUSH1 0x0 PUSH1 0xA PUSH1 0x1C SWAP1 SLOAD SWAP1 PUSH2 0x100 EXP SWAP1 DIV PUSH4 0xFFFFFFFF AND TIMESTAMP PUSH2 0x2425 SWAP2 SWAP1 PUSH2 0x3CBC JUMP JUMPDEST SWAP1 POP PUSH1 0x0 DUP2 PUSH4 0xFFFFFFFF AND GT DUP1 ISZERO PUSH2 0x246A JUMPI POP PUSH1 0x0 PUSH1 0xA PUSH1 0x0 SWAP1 SLOAD SWAP1 PUSH2 0x100 EXP SWAP1 DIV PUSH14 0xFFFFFFFFFFFFFFFFFFFFFFFFFFFF AND PUSH14 0xFFFFFFFFFFFFFFFFFFFFFFFFFFFF AND EQ ISZERO JUMPDEST DUP1 ISZERO PUSH2 0x24A3 JUMPI POP PUSH1 0x0 PUSH1 0xA PUSH1 0xE SWAP1 SLOAD SWAP1 PUSH2 0x100 EXP SWAP1 DIV PUSH14 0xFFFFFFFFFFFFFFFFFFFFFFFFFFFF AND PUSH14 0xFFFFFFFFFFFFFFFFFFFFFFFFFFFF AND EQ ISZERO JUMPDEST ISZERO PUSH2 0x25C9 JUMPI DUP1 PUSH4 0xFFFFFFFF AND PUSH1 0xA PUSH1 0x0 SWAP1 SLOAD SWAP1 PUSH2 0x100 EXP SWAP1 DIV PUSH14 0xFFFFFFFFFFFFFFFFFFFFFFFFFFFF AND PUSH8 0xDE0B6B3A7640000 PUSH1 0xA PUSH1 0xE SWAP1 SLOAD SWAP1 PUSH2 0x100 EXP SWAP1 DIV PUSH14 0xFFFFFFFFFFFFFFFFFFFFFFFFFFFF AND PUSH2 0x24FC SWAP2 SWAP1 PUSH2 0x3CF4 JUMP JUMPDEST PUSH2 0x2506 SWAP2 SWAP1 PUSH2 0x3D31 JUMP JUMPDEST PUSH2 0x2510 SWAP2 SWAP1 PUSH2 0x3CF4 JUMP JUMPDEST PUSH14 0xFFFFFFFFFFFFFFFFFFFFFFFFFFFF AND PUSH1 0xB PUSH1 0x0 DUP3 DUP3 SLOAD PUSH2 0x2531 SWAP2 SWAP1 PUSH2 0x3D62 JUMP JUMPDEST SWAP3 POP POP DUP2 SWAP1 SSTORE POP DUP1 PUSH4 0xFFFFFFFF AND PUSH1 0xA PUSH1 0xE SWAP1 SLOAD SWAP1 PUSH2 0x100 EXP SWAP1 DIV PUSH14 0xFFFFFFFFFFFFFFFFFFFFFFFFFFFF AND PUSH8 0xDE0B6B3A7640000 PUSH1 0xA PUSH1 0x0 SWAP1 SLOAD SWAP1 PUSH2 0x100 EXP SWAP1 DIV PUSH14 0xFFFFFFFFFFFFFFFFFFFFFFFFFFFF AND PUSH2 0x258C SWAP2 SWAP1 PUSH2 0x3CF4 JUMP JUMPDEST PUSH2 0x2596 SWAP2 SWAP1 PUSH2 0x3D31 JUMP JUMPDEST PUSH2 0x25A0 SWAP2 SWAP1 PUSH2 0x3CF4 JUMP JUMPDEST PUSH14 0xFFFFFFFFFFFFFFFFFFFFFFFFFFFF AND PUSH1 0xC PUSH1 0x0 DUP3 DUP3 SLOAD PUSH2 0x25C1 SWAP2 SWAP1 PUSH2 0x3D62 JUMP JUMPDEST SWAP3 POP POP DUP2 SWAP1 SSTORE POP JUMPDEST DUP3 PUSH1 0xA PUSH1 0x0 PUSH2 0x100 EXP DUP2 SLOAD DUP2 PUSH14 0xFFFFFFFFFFFFFFFFFFFFFFFFFFFF MUL NOT AND SWAP1 DUP4 PUSH14 0xFFFFFFFFFFFFFFFFFFFFFFFFFFFF AND MUL OR SWAP1 SSTORE POP DUP2 PUSH1 0xA PUSH1 0xE PUSH2 0x100 EXP DUP2 SLOAD DUP2 PUSH14 0xFFFFFFFFFFFFFFFFFFFFFFFFFFFF MUL NOT AND SWAP1 DUP4 PUSH14 0xFFFFFFFFFFFFFFFFFFFFFFFFFFFF AND MUL OR SWAP1 SSTORE POP TIMESTAMP PUSH1 0xA PUSH1 0x1C PUSH2 0x100 EXP DUP2 SLOAD DUP2 PUSH4 0xFFFFFFFF MUL NOT AND SWAP1 DUP4 PUSH4 0xFFFFFFFF AND MUL OR SWAP1 SSTORE POP PUSH32 0x1C411E9A96E071241C2F21F7726B17AE89E3CAB4C78BE50E062B03A9FFFBBAD1 PUSH1 0xA PUSH1 0x0 SWAP1 SLOAD SWAP1 PUSH2 0x100 EXP SWAP1 DIV PUSH14 0xFFFFFFFFFFFFFFFFFFFFFFFFFFFF AND PUSH1 0xA PUSH1 0xE SWAP1 SLOAD SWAP1 PUSH2 0x100 EXP SWAP1 DIV PUSH14 0xFFFFFFFFFFFFFFFFFFFFFFFFFFFF AND PUSH1 0x40 MLOAD PUSH2 0x26BD SWAP3 SWAP2 SWAP1 PUSH2 0x3D96 JUMP JUMPDEST PUSH1 0x40 MLOAD DUP1 SWAP2 SUB SWAP1 LOG1 POP POP POP JUMP JUMPDEST PUSH1 0x0 CALLER SWAP1 POP SWAP1 JUMP JUMPDEST PUSH2 0x26DF DUP4 DUP4 DUP4 PUSH1 0x1 PUSH2 0x2A03 JUMP JUMPDEST POP POP POP JUMP JUMPDEST PUSH1 0x0 PUSH2 0x26F0 DUP5 DUP5 PUSH2 0x2178 JUMP JUMPDEST SWAP1 POP PUSH32 0xFFFFFFFFFFFFFFFFFFFFFFFFFFFFFFFFFFFFFFFFFFFFFFFFFFFFFFFFFFFFFFFF DUP2 EQ PUSH2 0x2772 JUMPI DUP2 DUP2 LT ISZERO PUSH2 0x2762 JUMPI DUP3 DUP2 DUP4 PUSH1 0x40 MLOAD PUSH32 0xFB8F41B200000000000000000000000000000000000000000000000000000000 DUP2 MSTORE PUSH1 0x4 ADD PUSH2 0x2759 SWAP4 SWAP3 SWAP2 SWAP1 PUSH2 0x3DBF JUMP JUMPDEST PUSH1 0x40 MLOAD DUP1 SWAP2 SUB SWAP1 REVERT JUMPDEST PUSH2 0x2771 DUP5 DUP5 DUP5 DUP5 SUB PUSH1 0x0 PUSH2 0x2A03 JUMP JUMPDEST JUMPDEST POP POP POP POP JUMP JUMPDEST PUSH1 0x0 PUSH20 0xFFFFFFFFFFFFFFFFFFFFFFFFFFFFFFFFFFFFFFFF AND DUP4 PUSH20 0xFFFFFFFFFFFFFFFFFFFFFFFFFFFFFFFFFFFFFFFF AND SUB PUSH2 0x27EA JUMPI PUSH1 0x0 PUSH1 0x40 MLOAD PUSH32 0x96C6FD1E00000000000000000000000000000000000000000000000000000000 DUP2 MSTORE PUSH1 0x4 ADD PUSH2 0x27E1 SWAP2 SWAP1 PUSH2 0x3140 JUMP JUMPDEST PUSH1 0x40 MLOAD DUP1 SWAP2 SUB SWAP1 REVERT JUMPDEST PUSH1 0x0 PUSH20 0xFFFFFFFFFFFFFFFFFFFFFFFFFFFFFFFFFFFFFFFF AND DUP3 PUSH20 0xFFFFFFFFFFFFFFFFFFFFFFFFFFFFFFFFFFFFFFFF AND SUB PUSH2 0x285C JUMPI PUSH1 0x0 PUSH1 0x40 MLOAD PUSH32 0xEC442F0500000000000000000000000000000000000000000000000000000000 DUP2 MSTORE PUSH1 0x4 ADD PUSH2 0x2853 SWAP2 SWAP1 PUSH2 0x3140 JUMP JUMPDEST PUSH1 0x40 MLOAD DUP1 SWAP2 SUB SWAP1 REVERT JUMPDEST PUSH2 0x2867 DUP4 DUP4 DUP4 PUSH2 0x2BDA JUMP JUMPDEST POP POP POP JUMP JUMPDEST PUSH1 0x0 PUSH1 0x3 DUP3 GT ISZERO PUSH2 0x28D3 JUMPI DUP2 SWAP1 POP PUSH1 0x0 PUSH1 0x1 PUSH1 0x2 DUP5 PUSH2 0x288B SWAP2 SWAP1 PUSH2 0x3AFB JUMP JUMPDEST PUSH2 0x2895 SWAP2 SWAP1 PUSH2 0x3D62 JUMP JUMPDEST SWAP1 POP JUMPDEST DUP2 DUP2 LT ISZERO PUSH2 0x28CD JUMPI DUP1 SWAP2 POP PUSH1 0x2 DUP2 DUP3 DUP6 PUSH2 0x28B2 SWAP2 SWAP1 PUSH2 0x3AFB JUMP JUMPDEST PUSH2 0x28BC SWAP2 SWAP1 PUSH2 0x3D62 JUMP JUMPDEST PUSH2 0x28C6 SWAP2 SWAP1 PUSH2 0x3AFB JUMP JUMPDEST SWAP1 POP PUSH2 0x2898 JUMP JUMPDEST POP PUSH2 0x28E1 JUMP JUMPDEST PUSH1 0x0 DUP3 EQ PUSH2 0x28E0 JUMPI PUSH1 0x1 SWAP1 POP JUMPDEST JUMPDEST SWAP2 SWAP1 POP JUMP JUMPDEST PUSH1 0x0 PUSH20 0xFFFFFFFFFFFFFFFFFFFFFFFFFFFFFFFFFFFFFFFF AND DUP3 PUSH20 0xFFFFFFFFFFFFFFFFFFFFFFFFFFFFFFFFFFFFFFFF AND SUB PUSH2 0x2958 JUMPI PUSH1 0x0 PUSH1 0x40 MLOAD PUSH32 0xEC442F0500000000000000000000000000000000000000000000000000000000 DUP2 MSTORE PUSH1 0x4 ADD PUSH2 0x294F SWAP2 SWAP1 PUSH2 0x3140 JUMP JUMPDEST PUSH1 0x40 MLOAD DUP1 SWAP2 SUB SWAP1 REVERT JUMPDEST PUSH2 0x2964 PUSH1 0x0 DUP4 DUP4 PUSH2 0x2BDA JUMP JUMPDEST POP POP JUMP JUMPDEST PUSH1 0x0 DUP2 DUP4 LT PUSH2 0x2977 JUMPI DUP2 PUSH2 0x2979 JUMP JUMPDEST DUP3 JUMPDEST SWAP1 POP SWAP3 SWAP2 POP POP JUMP JUMPDEST PUSH1 0x0 PUSH20 0xFFFFFFFFFFFFFFFFFFFFFFFFFFFFFFFFFFFFFFFF AND DUP3 PUSH20 0xFFFFFFFFFFFFFFFFFFFFFFFFFFFFFFFFFFFFFFFF AND SUB PUSH2 0x29F3 JUMPI PUSH1 0x0 PUSH1 0x40 MLOAD PUSH32 0x96C6FD1E00000000000000000000000000000000000000000000000000000000 DUP2 MSTORE PUSH1 0x4 ADD PUSH2 0x29EA SWAP2 SWAP1 PUSH2 0x3140 JUMP JUMPDEST PUSH1 0x40 MLOAD DUP1 SWAP2 SUB SWAP1 REVERT JUMPDEST PUSH2 0x29FF DUP3 PUSH1 0x0 DUP4 PUSH2 0x2BDA JUMP JUMPDEST POP POP JUMP JUMPDEST PUSH1 0x0 PUSH20 0xFFFFFFFFFFFFFFFFFFFFFFFFFFFFFFFFFFFFFFFF AND DUP5 PUSH20 0xFFFFFFFFFFFFFFFFFFFFFFFFFFFFFFFFFFFFFFFF AND SUB PUSH2 0x2A75 JUMPI PUSH1 0x0 PUSH1 0x40 MLOAD PUSH32 0xE602DF0500000000000000000000000000000000000000000000000000000000 DUP2 MSTORE PUSH1 0x4 ADD PUSH2 0x2A6C SWAP2 SWAP1 PUSH2 0x3140 JUMP JUMPDEST PUSH1 0x40 MLOAD DUP1 SWAP2 SUB SWAP1 REVERT JUMPDEST PUSH1 0x0 PUSH20 0xFFFFFFFFFFFFFFFFFFFFFFFFFFFFFFFFFFFFFFFF AND DUP4 PUSH20 0xFFFFFFFFFFFFFFFFFFFFFFFFFFFFFFFFFFFFFFFF AND SUB PUSH2 0x2AE7 JUMPI PUSH1 0x0 PUSH1 0x40 MLOAD PUSH32 0x94280D6200000000000000000000000000000000000000000000000000000000 DUP2 MSTORE PUSH1 0x4 ADD PUSH2 0x2ADE SWAP2 SWAP1 PUSH2 0x3140 JUMP JUMPDEST PUSH1 0x40 MLOAD DUP1 SWAP2 SUB SWAP1 REVERT JUMPDEST DUP2 PUSH1 0x1 PUSH1 0x0 DUP7 PUSH20 0xFFFFFFFFFFFFFFFFFFFFFFFFFFFFFFFFFFFFFFFF AND PUSH20 0xFFFFFFFFFFFFFFFFFFFFFFFFFFFFFFFFFFFFFFFF AND DUP2 MSTORE PUSH1 0x20 ADD SWAP1 DUP2 MSTORE PUSH1 0x20 ADD PUSH1 0x0 KECCAK256 PUSH1 0x0 DUP6 PUSH20 0xFFFFFFFFFFFFFFFFFFFFFFFFFFFFFFFFFFFFFFFF AND PUSH20 0xFFFFFFFFFFFFFFFFFFFFFFFFFFFFFFFFFFFFFFFF AND DUP2 MSTORE PUSH1 0x20 ADD SWAP1 DUP2 MSTORE PUSH1 0x20 ADD PUSH1 0x0 KECCAK256 DUP2 SWAP1 SSTORE POP DUP1 ISZERO PUSH2 0x2BD4 JUMPI DUP3 PUSH20 0xFFFFFFFFFFFFFFFFFFFFFFFFFFFFFFFFFFFFFFFF AND DUP5 PUSH20 0xFFFFFFFFFFFFFFFFFFFFFFFFFFFFFFFFFFFFFFFF AND PUSH32 0x8C5BE1E5EBEC7D5BD14F71427D1E84F3DD0314C0F7B2291E5B200AC8C7C3B925 DUP5 PUSH1 0x40 MLOAD PUSH2 0x2BCB SWAP2 SWAP1 PUSH2 0x316A JUMP JUMPDEST PUSH1 0x40 MLOAD DUP1 SWAP2 SUB SWAP1 LOG3 JUMPDEST POP POP POP POP JUMP JUMPDEST PUSH1 0x0 PUSH20 0xFFFFFFFFFFFFFFFFFFFFFFFFFFFFFFFFFFFFFFFF AND DUP4 PUSH20 0xFFFFFFFFFFFFFFFFFFFFFFFFFFFFFFFFFFFFFFFF AND SUB PUSH2 0x2C2C JUMPI DUP1 PUSH1 0x2 PUSH1 0x0 DUP3 DUP3 SLOAD PUSH2 0x2C20 SWAP2 SWAP1 PUSH2 0x3D62 JUMP JUMPDEST SWAP3 POP POP DUP2 SWAP1 SSTORE POP PUSH2 0x2CFF JUMP JUMPDEST PUSH1 0x0 DUP1 PUSH1 0x0 DUP6 PUSH20 0xFFFFFFFFFFFFFFFFFFFFFFFFFFFFFFFFFFFFFFFF AND PUSH20 0xFFFFFFFFFFFFFFFFFFFFFFFFFFFFFFFFFFFFFFFF AND DUP2 MSTORE PUSH1 0x20 ADD SWAP1 DUP2 MSTORE PUSH1 0x20 ADD PUSH1 0x0 KECCAK256 SLOAD SWAP1 POP DUP2 DUP2 LT ISZERO PUSH2 0x2CB8 JUMPI DUP4 DUP2 DUP4 PUSH1 0x40 MLOAD PUSH32 0xE450D38C00000000000000000000000000000000000000000000000000000000 DUP2 MSTORE PUSH1 0x4 ADD PUSH2 0x2CAF SWAP4 SWAP3 SWAP2 SWAP1 PUSH2 0x3DBF JUMP JUMPDEST PUSH1 0x40 MLOAD DUP1 SWAP2 SUB SWAP1 REVERT JUMPDEST DUP2 DUP2 SUB PUSH1 0x0 DUP1 DUP7 PUSH20 0xFFFFFFFFFFFFFFFFFFFFFFFFFFFFFFFFFFFFFFFF AND PUSH20 0xFFFFFFFFFFFFFFFFFFFFFFFFFFFFFFFFFFFFFFFF AND DUP2 MSTORE PUSH1 0x20 ADD SWAP1 DUP2 MSTORE PUSH1 0x20 ADD PUSH1 0x0 KECCAK256 DUP2 SWAP1 SSTORE POP POP JUMPDEST PUSH1 0x0 PUSH20 0xFFFFFFFFFFFFFFFFFFFFFFFFFFFFFFFFFFFFFFFF AND DUP3 PUSH20 0xFFFFFFFFFFFFFFFFFFFFFFFFFFFFFFFFFFFFFFFF AND SUB PUSH2 0x2D48 JUMPI DUP1 PUSH1 0x2 PUSH1 0x0 DUP3 DUP3 SLOAD SUB SWAP3 POP POP DUP2 SWAP1 SSTORE POP PUSH2 0x2D95 JUMP JUMPDEST DUP1 PUSH1 0x0 DUP1 DUP5 PUSH20 0xFFFFFFFFFFFFFFFFFFFFFFFFFFFFFFFFFFFFFFFF AND PUSH20 0xFFFFFFFFFFFFFFFFFFFFFFFFFFFFFFFFFFFFFFFF AND DUP2 MSTORE PUSH1 0x20 ADD SWAP1 DUP2 MSTORE PUSH1 0x20 ADD PUSH1 0x0 KECCAK256 PUSH1 0x0 DUP3 DUP3 SLOAD ADD SWAP3 POP POP DUP2 SWAP1 SSTORE POP JUMPDEST DUP2 PUSH20 0xFFFFFFFFFFFFFFFFFFFFFFFFFFFFFFFFFFFFFFFF AND DUP4 PUSH20 0xFFFFFFFFFFFFFFFFFFFFFFFFFFFFFFFFFFFFFFFF AND PUSH32 0xDDF252AD1BE2C89B69C2B068FC378DAA952BA7F163C4A11628F55A4DF523B3EF DUP4 PUSH1 0x40 MLOAD PUSH2 0x2DF2 SWAP2 SWAP1 PUSH2 0x316A JUMP JUMPDEST PUSH1 0x40 MLOAD DUP1 SWAP2 SUB SWAP1 LOG3 POP POP POP JUMP JUMPDEST PUSH1 0x0 DUP1 REVERT JUMPDEST PUSH1 0x0 DUP1 REVERT JUMPDEST PUSH1 0x0 DUP2 SWAP1 POP SWAP2 SWAP1 POP JUMP JUMPDEST PUSH2 0x2E1C DUP2 PUSH2 0x2E09 JUMP JUMPDEST DUP2 EQ PUSH2 0x2E27 JUMPI PUSH1 0x0 DUP1 REVERT JUMPDEST POP JUMP JUMPDEST PUSH1 0x0 DUP2 CALLDATALOAD SWAP1 POP PUSH2 0x2E39 DUP2 PUSH2 0x2E13 JUMP JUMPDEST SWAP3 SWAP2 POP POP JUMP JUMPDEST PUSH1 0x0 PUSH20 0xFFFFFFFFFFFFFFFFFFFFFFFFFFFFFFFFFFFFFFFF DUP3 AND SWAP1 POP SWAP2 SWAP1 POP JUMP JUMPDEST PUSH1 0x0 PUSH2 0x2E6A DUP3 PUSH2 0x2E3F JUMP JUMPDEST SWAP1 POP SWAP2 SWAP1 POP JUMP JUMPDEST PUSH2 0x2E7A DUP2 PUSH2 0x2E5F JUMP JUMPDEST DUP2 EQ PUSH2 0x2E85 JUMPI PUSH1 0x0 DUP1 REVERT JUMPDEST POP JUMP JUMPDEST PUSH1 0x0 DUP2 CALLDATALOAD SWAP1 POP PUSH2 0x2E97 DUP2 PUSH2 0x2E71 JUMP JUMPDEST SWAP3 SWAP2 POP POP JUMP JUMPDEST PUSH1 0x0 DUP1 REVERT JUMPDEST PUSH1 0x0 DUP1 REVERT JUMPDEST PUSH1 0x0 DUP1 REVERT JUMPDEST PUSH1 0x0 DUP1 DUP4 PUSH1 0x1F DUP5 ADD SLT PUSH2 0x2EC2 JUMPI PUSH2 0x2EC1 PUSH2 0x2E9D JUMP JUMPDEST JUMPDEST DUP3 CALLDATALOAD SWAP1 POP PUSH8 0xFFFFFFFFFFFFFFFF DUP2 GT ISZERO PUSH2 0x2EDF JUMPI PUSH2 0x2EDE PUSH2 0x2EA2 JUMP JUMPDEST JUMPDEST PUSH1 0x20 DUP4 ADD SWAP2 POP DUP4 PUSH1 0x1 DUP3 MUL DUP4 ADD GT ISZERO PUSH2 0x2EFB JUMPI PUSH2 0x2EFA PUSH2 0x2EA7 JUMP JUMPDEST JUMPDEST SWAP3 POP SWAP3 SWAP1 POP JUMP JUMPDEST PUSH1 0x0 DUP1 PUSH1 0x0 DUP1 PUSH1 0x0 PUSH1 0x80 DUP7 DUP9 SUB SLT ISZERO PUSH2 0x2F1E JUMPI PUSH2 0x2F1D PUSH2 0x2DFF JUMP JUMPDEST JUMPDEST PUSH1 0x0 PUSH2 0x2F2C DUP9 DUP3 DUP10 ADD PUSH2 0x2E2A JUMP JUMPDEST SWAP6 POP POP PUSH1 0x20 PUSH2 0x2F3D DUP9 DUP3 DUP10 ADD PUSH2 0x2E2A JUMP JUMPDEST SWAP5 POP POP PUSH1 0x40 PUSH2 0x2F4E DUP9 DUP3 DUP10 ADD PUSH2 0x2E88 JUMP JUMPDEST SWAP4 POP POP PUSH1 0x60 DUP7 ADD CALLDATALOAD PUSH8 0xFFFFFFFFFFFFFFFF DUP2 GT ISZERO PUSH2 0x2F6F JUMPI PUSH2 0x2F6E PUSH2 0x2E04 JUMP JUMPDEST JUMPDEST PUSH2 0x2F7B DUP9 DUP3 DUP10 ADD PUSH2 0x2EAC JUMP JUMPDEST SWAP3 POP SWAP3 POP POP SWAP3 SWAP6 POP SWAP3 SWAP6 SWAP1 SWAP4 POP JUMP JUMPDEST PUSH1 0x0 DUP2 MLOAD SWAP1 POP SWAP2 SWAP1 POP JUMP JUMPDEST PUSH1 0x0 DUP3 DUP3 MSTORE PUSH1 0x20 DUP3 ADD SWAP1 POP SWAP3 SWAP2 POP POP JUMP JUMPDEST PUSH1 0x0 JUMPDEST DUP4 DUP2 LT ISZERO PUSH2 0x2FC4 JUMPI DUP1 DUP3 ADD MLOAD DUP2 DUP5 ADD MSTORE PUSH1 0x20 DUP2 ADD SWAP1 POP PUSH2 0x2FA9 JUMP JUMPDEST PUSH1 0x0 DUP5 DUP5 ADD MSTORE POP POP POP POP JUMP JUMPDEST PUSH1 0x0 PUSH1 0x1F NOT PUSH1 0x1F DUP4 ADD AND SWAP1 POP SWAP2 SWAP1 POP JUMP JUMPDEST PUSH1 0x0 PUSH2 0x2FEC DUP3 PUSH2 0x2F8A JUMP JUMPDEST PUSH2 0x2FF6 DUP2 DUP6 PUSH2 0x2F95 JUMP JUMPDEST SWAP4 POP PUSH2 0x3006 DUP2 DUP6 PUSH1 0x20 DUP7 ADD PUSH2 0x2FA6 JUMP JUMPDEST PUSH2 0x300F DUP2 PUSH2 0x2FD0 JUMP JUMPDEST DUP5 ADD SWAP2 POP POP SWAP3 SWAP2 POP POP JUMP JUMPDEST PUSH1 0x0 PUSH1 0x20 DUP3 ADD SWAP1 POP DUP2 DUP2 SUB PUSH1 0x0 DUP4 ADD MSTORE PUSH2 0x3034 DUP2 DUP5 PUSH2 0x2FE1 JUMP JUMPDEST SWAP1 POP SWAP3 SWAP2 POP POP JUMP JUMPDEST PUSH1 0x0 PUSH14 0xFFFFFFFFFFFFFFFFFFFFFFFFFFFF DUP3 AND SWAP1 POP SWAP2 SWAP1 POP JUMP JUMPDEST PUSH2 0x305F DUP2 PUSH2 0x303C JUMP JUMPDEST DUP3 MSTORE POP POP JUMP JUMPDEST PUSH1 0x0 PUSH4 0xFFFFFFFF DUP3 AND SWAP1 POP SWAP2 SWAP1 POP JUMP JUMPDEST PUSH2 0x307E DUP2 PUSH2 0x3065 JUMP JUMPDEST DUP3 MSTORE POP POP JUMP JUMPDEST PUSH1 0x0 PUSH1 0x60 DUP3 ADD SWAP1 POP PUSH2 0x3099 PUSH1 0x0 DUP4 ADD DUP7 PUSH2 0x3056 JUMP JUMPDEST PUSH2 0x30A6 PUSH1 0x20 DUP4 ADD DUP6 PUSH2 0x3056 JUMP JUMPDEST PUSH2 0x30B3 PUSH1 0x40 DUP4 ADD DUP5 PUSH2 0x3075 JUMP JUMPDEST SWAP5 SWAP4 POP POP POP POP JUMP JUMPDEST PUSH1 0x0 DUP1 PUSH1 0x40 DUP4 DUP6 SUB SLT ISZERO PUSH2 0x30D2 JUMPI PUSH2 0x30D1 PUSH2 0x2DFF JUMP JUMPDEST JUMPDEST PUSH1 0x0 PUSH2 0x30E0 DUP6 DUP3 DUP7 ADD PUSH2 0x2E88 JUMP JUMPDEST SWAP3 POP POP PUSH1 0x20 PUSH2 0x30F1 DUP6 DUP3 DUP7 ADD PUSH2 0x2E2A JUMP JUMPDEST SWAP2 POP POP SWAP3 POP SWAP3 SWAP1 POP JUMP JUMPDEST PUSH1 0x0 DUP2 ISZERO ISZERO SWAP1 POP SWAP2 SWAP1 POP JUMP JUMPDEST PUSH2 0x3110 DUP2 PUSH2 0x30FB JUMP JUMPDEST DUP3 MSTORE POP POP JUMP JUMPDEST PUSH1 0x0 PUSH1 0x20 DUP3 ADD SWAP1 POP PUSH2 0x312B PUSH1 0x0 DUP4 ADD DUP5 PUSH2 0x3107 JUMP JUMPDEST SWAP3 SWAP2 POP POP JUMP JUMPDEST PUSH2 0x313A DUP2 PUSH2 0x2E5F JUMP JUMPDEST DUP3 MSTORE POP POP JUMP JUMPDEST PUSH1 0x0 PUSH1 0x20 DUP3 ADD SWAP1 POP PUSH2 0x3155 PUSH1 0x0 DUP4 ADD DUP5 PUSH2 0x3131 JUMP JUMPDEST SWAP3 SWAP2 POP POP JUMP JUMPDEST PUSH2 0x3164 DUP2 PUSH2 0x2E09 JUMP JUMPDEST DUP3 MSTORE POP POP JUMP JUMPDEST PUSH1 0x0 PUSH1 0x20 DUP3 ADD SWAP1 POP PUSH2 0x317F PUSH1 0x0 DUP4 ADD DUP5 PUSH2 0x315B JUMP JUMPDEST SWAP3 SWAP2 POP POP JUMP JUMPDEST PUSH1 0x0 DUP1 PUSH1 0x0 PUSH1 0x60 DUP5 DUP7 SUB SLT ISZERO PUSH2 0x319E JUMPI PUSH2 0x319D PUSH2 0x2DFF JUMP JUMPDEST JUMPDEST PUSH1 0x0 PUSH2 0x31AC DUP7 DUP3 DUP8 ADD PUSH2 0x2E88 JUMP JUMPDEST SWAP4 POP POP PUSH1 0x20 PUSH2 0x31BD DUP7 DUP3 DUP8 ADD PUSH2 0x2E88 JUMP JUMPDEST SWAP3 POP POP PUSH1 0x40 PUSH2 0x31CE DUP7 DUP3 DUP8 ADD PUSH2 0x2E2A JUMP JUMPDEST SWAP2 POP POP SWAP3 POP SWAP3 POP SWAP3 JUMP JUMPDEST PUSH1 0x0 PUSH1 0xFF DUP3 AND SWAP1 POP SWAP2 SWAP1 POP JUMP JUMPDEST PUSH2 0x31EE DUP2 PUSH2 0x31D8 JUMP JUMPDEST DUP3 MSTORE POP POP JUMP JUMPDEST PUSH1 0x0 PUSH1 0x20 DUP3 ADD SWAP1 POP PUSH2 0x3209 PUSH1 0x0 DUP4 ADD DUP5 PUSH2 0x31E5 JUMP JUMPDEST SWAP3 SWAP2 POP POP JUMP JUMPDEST PUSH1 0x0 DUP1 PUSH1 0x40 DUP4 DUP6 SUB SLT ISZERO PUSH2 0x3226 JUMPI PUSH2 0x3225 PUSH2 0x2DFF JUMP JUMPDEST JUMPDEST PUSH1 0x0 PUSH2 0x3234 DUP6 DUP3 DUP7 ADD PUSH2 0x2E88 JUMP JUMPDEST SWAP3 POP POP PUSH1 0x20 PUSH2 0x3245 DUP6 DUP3 DUP7 ADD PUSH2 0x2E88 JUMP JUMPDEST SWAP2 POP POP SWAP3 POP SWAP3 SWAP1 POP JUMP JUMPDEST PUSH1 0x0 DUP1 PUSH1 0x0 DUP1 PUSH1 0x0 PUSH1 0x80 DUP7 DUP9 SUB SLT ISZERO PUSH2 0x326B JUMPI PUSH2 0x326A PUSH2 0x2DFF JUMP JUMPDEST JUMPDEST PUSH1 0x0 PUSH2 0x3279 DUP9 DUP3 DUP10 ADD PUSH2 0x2E88 JUMP JUMPDEST SWAP6 POP POP PUSH1 0x20 PUSH2 0x328A DUP9 DUP3 DUP10 ADD PUSH2 0x2E2A JUMP JUMPDEST SWAP5 POP POP PUSH1 0x40 PUSH2 0x329B DUP9 DUP3 DUP10 ADD PUSH2 0x2E2A JUMP JUMPDEST SWAP4 POP POP PUSH1 0x60 DUP7 ADD CALLDATALOAD PUSH8 0xFFFFFFFFFFFFFFFF DUP2 GT ISZERO PUSH2 0x32BC JUMPI PUSH2 0x32BB PUSH2 0x2E04 JUMP JUMPDEST JUMPDEST PUSH2 0x32C8 DUP9 DUP3 DUP10 ADD PUSH2 0x2EAC JUMP JUMPDEST SWAP3 POP SWAP3 POP POP SWAP3 SWAP6 POP SWAP3 SWAP6 SWAP1 SWAP4 POP JUMP JUMPDEST PUSH1 0x0 PUSH1 0x20 DUP3 DUP5 SUB SLT ISZERO PUSH2 0x32ED JUMPI PUSH2 0x32EC PUSH2 0x2DFF JUMP JUMPDEST JUMPDEST PUSH1 0x0 PUSH2 0x32FB DUP5 DUP3 DUP6 ADD PUSH2 0x2E88 JUMP JUMPDEST SWAP2 POP POP SWAP3 SWAP2 POP POP JUMP JUMPDEST PUSH1 0x0 PUSH1 0x40 DUP3 ADD SWAP1 POP PUSH2 0x3319 PUSH1 0x0 DUP4 ADD DUP6 PUSH2 0x315B JUMP JUMPDEST PUSH2 0x3326 PUSH1 0x20 DUP4 ADD DUP5 PUSH2 0x315B JUMP JUMPDEST SWAP4 SWAP3 POP POP POP JUMP JUMPDEST PUSH32 0x5265656E7472616E637947756172643A207265656E7472616E742063616C6C00 PUSH1 0x0 DUP3 ADD MSTORE POP JUMP JUMPDEST PUSH1 0x0 PUSH2 0x3363 PUSH1 0x1F DUP4 PUSH2 0x2F95 JUMP JUMPDEST SWAP2 POP PUSH2 0x336E DUP3 PUSH2 0x332D JUMP JUMPDEST PUSH1 0x20 DUP3 ADD SWAP1 POP SWAP2 SWAP1 POP JUMP JUMPDEST PUSH1 0x0 PUSH1 0x20 DUP3 ADD SWAP1 POP DUP2 DUP2 SUB PUSH1 0x0 DUP4 ADD MSTORE PUSH2 0x3392 DUP2 PUSH2 0x3356 JUMP JUMPDEST SWAP1 POP SWAP2 SWAP1 POP JUMP JUMPDEST PUSH32 0x556E697377617056323A20494E53554646494349454E545F4F55545055545F41 PUSH1 0x0 DUP3 ADD MSTORE PUSH32 0x4D4F554E54000000000000000000000000000000000000000000000000000000 PUSH1 0x20 DUP3 ADD MSTORE POP JUMP JUMPDEST PUSH1 0x0 PUSH2 0x33F5 PUSH1 0x25 DUP4 PUSH2 0x2F95 JUMP JUMPDEST SWAP2 POP PUSH2 0x3400 DUP3 PUSH2 0x3399 JUMP JUMPDEST PUSH1 0x40 DUP3 ADD SWAP1 POP SWAP2 SWAP1 POP JUMP JUMPDEST PUSH1 0x0 PUSH1 0x20 DUP3 ADD SWAP1 POP DUP2 DUP2 SUB PUSH1 0x0 DUP4 ADD MSTORE PUSH2 0x3424 DUP2 PUSH2 0x33E8 JUMP JUMPDEST SWAP1 POP SWAP2 SWAP1 POP JUMP JUMPDEST PUSH32 0x556E697377617056323A20494E53554646494349454E545F4C49515549444954 PUSH1 0x0 DUP3 ADD MSTORE PUSH32 0x5900000000000000000000000000000000000000000000000000000000000000 PUSH1 0x20 DUP3 ADD MSTORE POP JUMP JUMPDEST PUSH1 0x0 PUSH2 0x3487 PUSH1 0x21 DUP4 PUSH2 0x2F95 JUMP JUMPDEST SWAP2 POP PUSH2 0x3492 DUP3 PUSH2 0x342B JUMP JUMPDEST PUSH1 0x40 DUP3 ADD SWAP1 POP SWAP2 SWAP1 POP JUMP JUMPDEST PUSH1 0x0 PUSH1 0x20 DUP3 ADD SWAP1 POP DUP2 DUP2 SUB PUSH1 0x0 DUP4 ADD MSTORE PUSH2 0x34B6 DUP2 PUSH2 0x347A JUMP JUMPDEST SWAP1 POP SWAP2 SWAP1 POP JUMP JUMPDEST PUSH32 0x556E697377617056323A20494E56414C49445F544F0000000000000000000000 PUSH1 0x0 DUP3 ADD MSTORE POP JUMP JUMPDEST PUSH1 0x0 PUSH2 0x34F3 PUSH1 0x15 DUP4 PUSH2 0x2F95 JUMP JUMPDEST SWAP2 POP PUSH2 0x34FE DUP3 PUSH2 0x34BD JUMP JUMPDEST PUSH1 0x20 DUP3 ADD SWAP1 POP SWAP2 SWAP1 POP JUMP JUMPDEST PUSH1 0x0 PUSH1 0x20 DUP3 ADD SWAP1 POP DUP2 DUP2 SUB PUSH1 0x0 DUP4 ADD MSTORE PUSH2 0x3522 DUP2 PUSH2 0x34E6 JUMP JUMPDEST SWAP1 POP SWAP2 SWAP1 POP JUMP JUMPDEST PUSH1 0x0 PUSH1 0x40 DUP3 ADD SWAP1 POP PUSH2 0x353E PUSH1 0x0 DUP4 ADD DUP6 PUSH2 0x3131 JUMP JUMPDEST PUSH2 0x354B PUSH1 0x20 DUP4 ADD DUP5 PUSH2 0x315B JUMP JUMPDEST SWAP4 SWAP3 POP POP POP JUMP JUMPDEST PUSH2 0x355B DUP2 PUSH2 0x30FB JUMP JUMPDEST DUP2 EQ PUSH2 0x3566 JUMPI PUSH1 0x0 DUP1 REVERT JUMPDEST POP JUMP JUMPDEST PUSH1 0x0 DUP2 MLOAD SWAP1 POP PUSH2 0x3578 DUP2 PUSH2 0x3552 JUMP JUMPDEST SWAP3 SWAP2 POP POP JUMP JUMPDEST PUSH1 0x0 PUSH1 0x20 DUP3 DUP5 SUB SLT ISZERO PUSH2 0x3594 JUMPI PUSH2 0x3593 PUSH2 0x2DFF JUMP JUMPDEST JUMPDEST PUSH1 0x0 PUSH2 0x35A2 DUP5 DUP3 DUP6 ADD PUSH2 0x3569 JUMP JUMPDEST SWAP2 POP POP SWAP3 SWAP2 POP POP JUMP JUMPDEST PUSH1 0x0 DUP3 DUP3 MSTORE PUSH1 0x20 DUP3 ADD SWAP1 POP SWAP3 SWAP2 POP POP JUMP JUMPDEST DUP3 DUP2 DUP4 CALLDATACOPY PUSH1 0x0 DUP4 DUP4 ADD MSTORE POP POP POP JUMP JUMPDEST PUSH1 0x0 PUSH2 0x35D7 DUP4 DUP6 PUSH2 0x35AB JUMP JUMPDEST SWAP4 POP PUSH2 0x35E4 DUP4 DUP6 DUP5 PUSH2 0x35BC JUMP JUMPDEST PUSH2 0x35ED DUP4 PUSH2 0x2FD0 JUMP JUMPDEST DUP5 ADD SWAP1 POP SWAP4 SWAP3 POP POP POP JUMP JUMPDEST PUSH1 0x0 PUSH1 0x80 DUP3 ADD SWAP1 POP PUSH2 0x360D PUSH1 0x0 DUP4 ADD DUP9 PUSH2 0x3131 JUMP JUMPDEST PUSH2 0x361A PUSH1 0x20 DUP4 ADD DUP8 PUSH2 0x315B JUMP JUMPDEST PUSH2 0x3627 PUSH1 0x40 DUP4 ADD DUP7 PUSH2 0x315B JUMP JUMPDEST DUP2 DUP2 SUB PUSH1 0x60 DUP4 ADD MSTORE PUSH2 0x363A DUP2 DUP5 DUP7 PUSH2 0x35CB JUMP JUMPDEST SWAP1 POP SWAP7 SWAP6 POP POP POP POP POP POP JUMP JUMPDEST PUSH1 0x0 DUP2 MLOAD SWAP1 POP PUSH2 0x3655 DUP2 PUSH2 0x2E13 JUMP JUMPDEST SWAP3 SWAP2 POP POP JUMP JUMPDEST PUSH1 0x0 PUSH1 0x20 DUP3 DUP5 SUB SLT ISZERO PUSH2 0x3671 JUMPI PUSH2 0x3670 PUSH2 0x2DFF JUMP JUMPDEST JUMPDEST PUSH1 0x0 PUSH2 0x367F DUP5 DUP3 DUP6 ADD PUSH2 0x3646 JUMP JUMPDEST SWAP2 POP POP SWAP3 SWAP2 POP POP JUMP JUMPDEST PUSH32 0x4E487B7100000000000000000000000000000000000000000000000000000000 PUSH1 0x0 MSTORE PUSH1 0x11 PUSH1 0x4 MSTORE PUSH1 0x24 PUSH1 0x0 REVERT JUMPDEST PUSH1 0x0 PUSH2 0x36C2 DUP3 PUSH2 0x2E09 JUMP JUMPDEST SWAP2 POP PUSH2 0x36CD DUP4 PUSH2 0x2E09 JUMP JUMPDEST SWAP3 POP DUP3 DUP3 SUB SWAP1 POP DUP2 DUP2 GT ISZERO PUSH2 0x36E5 JUMPI PUSH2 0x36E4 PUSH2 0x3688 JUMP JUMPDEST JUMPDEST SWAP3 SWAP2 POP POP JUMP JUMPDEST PUSH32 0x556E697377617056323A20494E53554646494349454E545F494E5055545F414D PUSH1 0x0 DUP3 ADD MSTORE PUSH32 0x4F554E5400000000000000000000000000000000000000000000000000000000 PUSH1 0x20 DUP3 ADD MSTORE POP JUMP JUMPDEST PUSH1 0x0 PUSH2 0x3747 PUSH1 0x24 DUP4 PUSH2 0x2F95 JUMP JUMPDEST SWAP2 POP PUSH2 0x3752 DUP3 PUSH2 0x36EB JUMP JUMPDEST PUSH1 0x40 DUP3 ADD SWAP1 POP SWAP2 SWAP1 POP JUMP JUMPDEST PUSH1 0x0 PUSH1 0x20 DUP3 ADD SWAP1 POP DUP2 DUP2 SUB PUSH1 0x0 DUP4 ADD MSTORE PUSH2 0x3776 DUP2 PUSH2 0x373A JUMP JUMPDEST SWAP1 POP SWAP2 SWAP1 POP JUMP JUMPDEST PUSH1 0x0 PUSH2 0x3788 DUP3 PUSH2 0x2E09 JUMP JUMPDEST SWAP2 POP PUSH2 0x3793 DUP4 PUSH2 0x2E09 JUMP JUMPDEST SWAP3 POP DUP3 DUP3 MUL PUSH2 0x37A1 DUP2 PUSH2 0x2E09 JUMP JUMPDEST SWAP2 POP DUP3 DUP3 DIV DUP5 EQ DUP4 ISZERO OR PUSH2 0x37B8 JUMPI PUSH2 0x37B7 PUSH2 0x3688 JUMP JUMPDEST JUMPDEST POP SWAP3 SWAP2 POP POP JUMP JUMPDEST PUSH32 0x556E697377617056323A204B0000000000000000000000000000000000000000 PUSH1 0x0 DUP3 ADD MSTORE POP JUMP JUMPDEST PUSH1 0x0 PUSH2 0x37F5 PUSH1 0xC DUP4 PUSH2 0x2F95 JUMP JUMPDEST SWAP2 POP PUSH2 0x3800 DUP3 PUSH2 0x37BF JUMP JUMPDEST PUSH1 0x20 DUP3 ADD SWAP1 POP SWAP2 SWAP1 POP JUMP JUMPDEST PUSH1 0x0 PUSH1 0x20 DUP3 ADD SWAP1 POP DUP2 DUP2 SUB PUSH1 0x0 DUP4 ADD MSTORE PUSH2 0x3824 DUP2 PUSH2 0x37E8 JUMP JUMPDEST SWAP1 POP SWAP2 SWAP1 POP JUMP JUMPDEST PUSH1 0x0 PUSH1 0x80 DUP3 ADD SWAP1 POP PUSH2 0x3840 PUSH1 0x0 DUP4 ADD DUP8 PUSH2 0x315B JUMP JUMPDEST PUSH2 0x384D PUSH1 0x20 DUP4 ADD DUP7 PUSH2 0x315B JUMP JUMPDEST PUSH2 0x385A PUSH1 0x40 DUP4 ADD DUP6 PUSH2 0x315B JUMP JUMPDEST PUSH2 0x3867 PUSH1 0x60 DUP4 ADD DUP5 PUSH2 0x315B JUMP JUMPDEST SWAP6 SWAP5 POP POP POP POP POP JUMP JUMPDEST PUSH32 0x4E487B7100000000000000000000000000000000000000000000000000000000 PUSH1 0x0 MSTORE PUSH1 0x22 PUSH1 0x4 MSTORE PUSH1 0x24 PUSH1 0x0 REVERT JUMPDEST PUSH1 0x0 PUSH1 0x2 DUP3 DIV SWAP1 POP PUSH1 0x1 DUP3 AND DUP1 PUSH2 0x38B7 JUMPI PUSH1 0x7F DUP3 AND SWAP2 POP JUMPDEST PUSH1 0x20 DUP3 LT DUP2 SUB PUSH2 0x38CA JUMPI PUSH2 0x38C9 PUSH2 0x3870 JUMP JUMPDEST JUMPDEST POP SWAP2 SWAP1 POP JUMP JUMPDEST PUSH32 0x556E697377617056323A20464F5242494444454E000000000000000000000000 PUSH1 0x0 DUP3 ADD MSTORE POP JUMP JUMPDEST PUSH1 0x0 PUSH2 0x3906 PUSH1 0x14 DUP4 PUSH2 0x2F95 JUMP JUMPDEST SWAP2 POP PUSH2 0x3911 DUP3 PUSH2 0x38D0 JUMP JUMPDEST PUSH1 0x20 DUP3 ADD SWAP1 POP SWAP2 SWAP1 POP JUMP JUMPDEST PUSH1 0x0 PUSH1 0x20 DUP3 ADD SWAP1 POP DUP2 DUP2 SUB PUSH1 0x0 DUP4 ADD MSTORE PUSH2 0x3935 DUP2 PUSH2 0x38F9 JUMP JUMPDEST SWAP1 POP SWAP2 SWAP1 POP JUMP JUMPDEST PUSH32 0x556E697377617056323A204C4F434B4544000000000000000000000000000000 PUSH1 0x0 DUP3 ADD MSTORE POP JUMP JUMPDEST PUSH1 0x0 PUSH2 0x3972 PUSH1 0x11 DUP4 PUSH2 0x2F95 JUMP JUMPDEST SWAP2 POP PUSH2 0x397D DUP3 PUSH2 0x393C JUMP JUMPDEST PUSH1 0x20 DUP3 ADD SWAP1 POP SWAP2 SWAP1 POP JUMP JUMPDEST PUSH1 0x0 PUSH1 0x20 DUP3 ADD SWAP1 POP DUP2 DUP2 SUB PUSH1 0x0 DUP4 ADD MSTORE PUSH2 0x39A1 DUP2 PUSH2 0x3965 JUMP JUMPDEST SWAP1 POP SWAP2 SWAP1 POP JUMP JUMPDEST PUSH32 0x556E697377617056323A20494E53554646494349454E545F464C4153485F5041 PUSH1 0x0 DUP3 ADD MSTORE PUSH32 0x594D454E545F3000000000000000000000000000000000000000000000000000 PUSH1 0x20 DUP3 ADD MSTORE POP JUMP JUMPDEST PUSH1 0x0 PUSH2 0x3A04 PUSH1 0x27 DUP4 PUSH2 0x2F95 JUMP JUMPDEST SWAP2 POP PUSH2 0x3A0F DUP3 PUSH2 0x39A8 JUMP JUMPDEST PUSH1 0x40 DUP3 ADD SWAP1 POP SWAP2 SWAP1 POP JUMP JUMPDEST PUSH1 0x0 PUSH1 0x20 DUP3 ADD SWAP1 POP DUP2 DUP2 SUB PUSH1 0x0 DUP4 ADD MSTORE PUSH2 0x3A33 DUP2 PUSH2 0x39F7 JUMP JUMPDEST SWAP1 POP SWAP2 SWAP1 POP JUMP JUMPDEST PUSH32 0x556E697377617056323A20494E53554646494349454E545F464C4153485F5041 PUSH1 0x0 DUP3 ADD MSTORE PUSH32 0x594D454E545F3100000000000000000000000000000000000000000000000000 PUSH1 0x20 DUP3 ADD MSTORE POP JUMP JUMPDEST PUSH1 0x0 PUSH2 0x3A96 PUSH1 0x27 DUP4 PUSH2 0x2F95 JUMP JUMPDEST SWAP2 POP PUSH2 0x3AA1 DUP3 PUSH2 0x3A3A JUMP JUMPDEST PUSH1 0x40 DUP3 ADD SWAP1 POP SWAP2 SWAP1 POP JUMP JUMPDEST PUSH1 0x0 PUSH1 0x20 DUP3 ADD SWAP1 POP DUP2 DUP2 SUB PUSH1 0x0 DUP4 ADD MSTORE PUSH2 0x3AC5 DUP2 PUSH2 0x3A89 JUMP JUMPDEST SWAP1 POP SWAP2 SWAP1 POP JUMP JUMPDEST PUSH32 0x4E487B7100000000000000000000000000000000000000000000000000000000 PUSH1 0x0 MSTORE PUSH1 0x12 PUSH1 0x4 MSTORE PUSH1 0x24 PUSH1 0x0 REVERT JUMPDEST PUSH1 0x0 PUSH2 0x3B06 DUP3 PUSH2 0x2E09 JUMP JUMPDEST SWAP2 POP PUSH2 0x3B11 DUP4 PUSH2 0x2E09 JUMP JUMPDEST SWAP3 POP DUP3 PUSH2 0x3B21 JUMPI PUSH2 0x3B20 PUSH2 0x3ACC JUMP JUMPDEST JUMPDEST DUP3 DUP3 DIV SWAP1 POP SWAP3 SWAP2 POP POP JUMP JUMPDEST PUSH32 0x556E697377617056323A20494E53554646494349454E545F4C49515549444954 PUSH1 0x0 DUP3 ADD MSTORE PUSH32 0x595F4D494E544544000000000000000000000000000000000000000000000000 PUSH1 0x20 DUP3 ADD MSTORE POP JUMP JUMPDEST PUSH1 0x0 PUSH2 0x3B88 PUSH1 0x28 DUP4 PUSH2 0x2F95 JUMP JUMPDEST SWAP2 POP PUSH2 0x3B93 DUP3 PUSH2 0x3B2C JUMP JUMPDEST PUSH1 0x40 DUP3 ADD SWAP1 POP SWAP2 SWAP1 POP JUMP JUMPDEST PUSH1 0x0 PUSH1 0x20 DUP3 ADD SWAP1 POP DUP2 DUP2 SUB PUSH1 0x0 DUP4 ADD MSTORE PUSH2 0x3BB7 DUP2 PUSH2 0x3B7B JUMP JUMPDEST SWAP1 POP SWAP2 SWAP1 POP JUMP JUMPDEST PUSH32 0x556E697377617056323A20494E53554646494349454E545F4C49515549444954 PUSH1 0x0 DUP3 ADD MSTORE PUSH32 0x595F4255524E4544000000000000000000000000000000000000000000000000 PUSH1 0x20 DUP3 ADD MSTORE POP JUMP JUMPDEST PUSH1 0x0 PUSH2 0x3C1A PUSH1 0x28 DUP4 PUSH2 0x2F95 JUMP JUMPDEST SWAP2 POP PUSH2 0x3C25 DUP3 PUSH2 0x3BBE JUMP JUMPDEST PUSH1 0x40 DUP3 ADD SWAP1 POP SWAP2 SWAP1 POP JUMP JUMPDEST PUSH1 0x0 PUSH1 0x20 DUP3 ADD SWAP1 POP DUP2 DUP2 SUB PUSH1 0x0 DUP4 ADD MSTORE PUSH2 0x3C49 DUP2 PUSH2 0x3C0D JUMP JUMPDEST SWAP1 POP SWAP2 SWAP1 POP JUMP JUMPDEST PUSH32 0x556E697377617056323A204F564552464C4F5700000000000000000000000000 PUSH1 0x0 DUP3 ADD MSTORE POP JUMP JUMPDEST PUSH1 0x0 PUSH2 0x3C86 PUSH1 0x13 DUP4 PUSH2 0x2F95 JUMP JUMPDEST SWAP2 POP PUSH2 0x3C91 DUP3 PUSH2 0x3C50 JUMP JUMPDEST PUSH1 0x20 DUP3 ADD SWAP1 POP SWAP2 SWAP1 POP JUMP JUMPDEST PUSH1 0x0 PUSH1 0x20 DUP3 ADD SWAP1 POP DUP2 DUP2 SUB PUSH1 0x0 DUP4 ADD MSTORE PUSH2 0x3CB5 DUP2 PUSH2 0x3C79 JUMP JUMPDEST SWAP1 POP SWAP2 SWAP1 POP JUMP JUMPDEST PUSH1 0x0 PUSH2 0x3CC7 DUP3 PUSH2 0x3065 JUMP JUMPDEST SWAP2 POP PUSH2 0x3CD2 DUP4 PUSH2 0x3065 JUMP JUMPDEST SWAP3 POP DUP3 DUP3 SUB SWAP1 POP PUSH4 0xFFFFFFFF DUP2 GT ISZERO PUSH2 0x3CEE JUMPI PUSH2 0x3CED PUSH2 0x3688 JUMP JUMPDEST JUMPDEST SWAP3 SWAP2 POP POP JUMP JUMPDEST PUSH1 0x0 PUSH2 0x3CFF DUP3 PUSH2 0x303C JUMP JUMPDEST SWAP2 POP PUSH2 0x3D0A DUP4 PUSH2 0x303C JUMP JUMPDEST SWAP3 POP DUP3 DUP3 MUL PUSH2 0x3D18 DUP2 PUSH2 0x303C JUMP JUMPDEST SWAP2 POP DUP1 DUP3 EQ PUSH2 0x3D2A JUMPI PUSH2 0x3D29 PUSH2 0x3688 JUMP JUMPDEST JUMPDEST POP SWAP3 SWAP2 POP POP JUMP JUMPDEST PUSH1 0x0 PUSH2 0x3D3C DUP3 PUSH2 0x303C JUMP JUMPDEST SWAP2 POP PUSH2 0x3D47 DUP4 PUSH2 0x303C JUMP JUMPDEST SWAP3 POP DUP3 PUSH2 0x3D57 JUMPI PUSH2 0x3D56 PUSH2 0x3ACC JUMP JUMPDEST JUMPDEST DUP3 DUP3 DIV SWAP1 POP SWAP3 SWAP2 POP POP JUMP JUMPDEST PUSH1 0x0 PUSH2 0x3D6D DUP3 PUSH2 0x2E09 JUMP JUMPDEST SWAP2 POP PUSH2 0x3D78 DUP4 PUSH2 0x2E09 JUMP JUMPDEST SWAP3 POP DUP3 DUP3 ADD SWAP1 POP DUP1 DUP3 GT ISZERO PUSH2 0x3D90 JUMPI PUSH2 0x3D8F PUSH2 0x3688 JUMP JUMPDEST JUMPDEST SWAP3 SWAP2 POP POP JUMP JUMPDEST PUSH1 0x0 PUSH1 0x40 DUP3 ADD SWAP1 POP PUSH2 0x3DAB PUSH1 0x0 DUP4 ADD DUP6 PUSH2 0x3056 JUMP JUMPDEST PUSH2 0x3DB8 PUSH1 0x20 DUP4 ADD DUP5 PUSH2 0x3056 JUMP JUMPDEST SWAP4 SWAP3 POP POP POP JUMP JUMPDEST PUSH1 0x0 PUSH1 0x60 DUP3 ADD SWAP1 POP PUSH2 0x3DD4 PUSH1 0x0 DUP4 ADD DUP7 PUSH2 0x3131 JUMP JUMPDEST PUSH2 0x3DE1 PUSH1 0x20 DUP4 ADD DUP6 PUSH2 0x315B JUMP JUMPDEST PUSH2 0x3DEE PUSH1 0x40 DUP4 ADD DUP5 PUSH2 0x315B JUMP JUMPDEST SWAP5 SWAP4 POP POP POP POP JUMP INVALID LOG2 PUSH5 0x6970667358 0x22 SLT KECCAK256 0x4F BLOBHASH MSTORE8 0xE6 PUSH12 0x19F1205E2D530B855BB567FE COINBASE DUP1 0xA9 SWAP1 JUMP CREATE2 0xAE 0x23 PUSH23 0xBB19C053D4EC64736F6C634300081B0033A26469706673 PC 0x22 SLT KECCAK256 PUSH13 0xF17675E3FCBB04971FEAFA042 0xF KECCAK256 0xAA 0xC4 0xAA JUMPI 0xB4 PUSH28 0x3BFED93A097929634FCB64736F6C634300081B003300000000000000 "},"methodIdentifiers":{"WETH()":"ad5c4648","addLiquidity(address,address,uint256,uint256,uint256,uint256,address,uint256)":"e8e33700","addLiquidityETH(address,uint256,uint256,uint256,address,uint256)":"f305d719","factory()":"c45a0155","removeLiquidity(address,address,uint256,uint256,uint256,address,uint256)":"baa2abde","removeLiquidityETH(address,uint256,uint256,uint256,address,uint256)":"02751cec","swapETHForExactTokens(uint256,address[],address,uint256)":"fb3bdb41","swapExactTokensForTokens(uint256,uint256,address[],address,uint256)":"38ed1739"}}}}}